{"abi":[{"inputs":[{"internalType":"uint256","name":"minimum","type":"uint256"}],"name":"createCampaign","outputs":[],"stateMutability":"nonpayable","type":"function"},{"inputs":[{"internalType":"uint256","name":"","type":"uint256"}],"name":"deployedCampaigns","outputs":[{"internalType":"contract Campaign","name":"","type":"address"}],"stateMutability":"view","type":"function"},{"inputs":[],"name":"getDeployedCampaigns","outputs":[{"internalType":"contract Campaign[]","name":"","type":"address[]"}],"stateMutability":"view","type":"function"}],"devdoc":{"kind":"dev","methods":{},"version":1},"evm":{"assembly":"    /* \"Campaign.sol\":74:447  contract CampaignFactory {... */\n  mstore(0x40, 0x80)\n  callvalue\n  dup1\n  iszero\n  tag_1\n  jumpi\n  0x00\n  dup1\n  revert\ntag_1:\n  pop\n  dataSize(sub_0)\n  dup1\n  dataOffset(sub_0)\n  0x00\n  codecopy\n  0x00\n  return\nstop\n\nsub_0: assembly {\n        /* \"Campaign.sol\":74:447  contract CampaignFactory {... */\n      mstore(0x40, 0x80)\n      callvalue\n      dup1\n      iszero\n      tag_1\n      jumpi\n      0x00\n      dup1\n      revert\n    tag_1:\n      pop\n      jumpi(tag_2, lt(calldatasize, 0x04))\n      shr(0xe0, calldataload(0x00))\n      dup1\n      0x339d50a5\n      eq\n      tag_3\n      jumpi\n      dup1\n      0x4acb9d4f\n      eq\n      tag_4\n      jumpi\n      dup1\n      0xa3303a75\n      eq\n      tag_5\n      jumpi\n    tag_2:\n      0x00\n      dup1\n      revert\n        /* \"Campaign.sol\":106:141  Campaign[] public deployedCampaigns */\n    tag_3:\n      tag_6\n      0x04\n      dup1\n      calldatasize\n      sub\n      dup2\n      add\n      swap1\n      tag_7\n      swap2\n      swap1\n      tag_8\n      jump\t// in\n    tag_7:\n      tag_9\n      jump\t// in\n    tag_6:\n      mload(0x40)\n      tag_10\n      swap2\n      swap1\n      tag_11\n      jump\t// in\n    tag_10:\n      mload(0x40)\n      dup1\n      swap2\n      sub\n      swap1\n      return\n        /* \"Campaign.sol\":329:444  function getDeployedCampaigns() public view returns (Campaign[] memory) {... */\n    tag_4:\n      tag_12\n      tag_13\n      jump\t// in\n    tag_12:\n      mload(0x40)\n      tag_14\n      swap2\n      swap1\n      tag_15\n      jump\t// in\n    tag_14:\n      mload(0x40)\n      dup1\n      swap2\n      sub\n      swap1\n      return\n        /* \"Campaign.sol\":150:321  function createCampaign(uint256 minimum) public {... */\n    tag_5:\n      tag_16\n      0x04\n      dup1\n      calldatasize\n      sub\n      dup2\n      add\n      swap1\n      tag_17\n      swap2\n      swap1\n      tag_8\n      jump\t// in\n    tag_17:\n      tag_18\n      jump\t// in\n    tag_16:\n      stop\n        /* \"Campaign.sol\":106:141  Campaign[] public deployedCampaigns */\n    tag_9:\n      0x00\n      dup2\n      dup2\n      sload\n      dup2\n      lt\n      tag_19\n      jumpi\n      0x00\n      dup1\n      revert\n    tag_19:\n      swap1\n      0x00\n      mstore\n      keccak256(0x00, 0x20)\n      add\n      0x00\n      swap2\n      pop\n      sload\n      swap1\n      0x0100\n      exp\n      swap1\n      div\n      0xffffffffffffffffffffffffffffffffffffffff\n      and\n      dup2\n      jump\t// out\n        /* \"Campaign.sol\":329:444  function getDeployedCampaigns() public view returns (Campaign[] memory) {... */\n    tag_13:\n        /* \"Campaign.sol\":382:399  Campaign[] memory */\n      0x60\n        /* \"Campaign.sol\":419:436  deployedCampaigns */\n      0x00\n        /* \"Campaign.sol\":412:436  return deployedCampaigns */\n      dup1\n      sload\n      dup1\n      0x20\n      mul\n      0x20\n      add\n      mload(0x40)\n      swap1\n      dup2\n      add\n      0x40\n      mstore\n      dup1\n      swap3\n      swap2\n      swap1\n      dup2\n      dup2\n      mstore\n      0x20\n      add\n      dup3\n      dup1\n      sload\n      dup1\n      iszero\n      tag_22\n      jumpi\n      0x20\n      mul\n      dup3\n      add\n      swap2\n      swap1\n      0x00\n      mstore\n      keccak256(0x00, 0x20)\n      swap1\n    tag_23:\n      dup2\n      0x00\n      swap1\n      sload\n      swap1\n      0x0100\n      exp\n      swap1\n      div\n      0xffffffffffffffffffffffffffffffffffffffff\n      and\n      0xffffffffffffffffffffffffffffffffffffffff\n      and\n      dup2\n      mstore\n      0x20\n      add\n      swap1\n      0x01\n      add\n      swap1\n      dup1\n      dup4\n      gt\n      tag_23\n      jumpi\n    tag_22:\n      pop\n      pop\n      pop\n      pop\n      pop\n      swap1\n      pop\n        /* \"Campaign.sol\":329:444  function getDeployedCampaigns() public view returns (Campaign[] memory) {... */\n      swap1\n      jump\t// out\n        /* \"Campaign.sol\":150:321  function createCampaign(uint256 minimum) public {... */\n    tag_18:\n        /* \"Campaign.sol\":209:229  Campaign newCampaign */\n      0x00\n        /* \"Campaign.sol\":245:252  minimum */\n      dup2\n        /* \"Campaign.sol\":254:264  msg.sender */\n      caller\n        /* \"Campaign.sol\":232:265  new Campaign(minimum, msg.sender) */\n      mload(0x40)\n      tag_25\n      swap1\n      tag_26\n      jump\t// in\n    tag_25:\n      tag_27\n      swap3\n      swap2\n      swap1\n      tag_28\n      jump\t// in\n    tag_27:\n      mload(0x40)\n      dup1\n      swap2\n      sub\n      swap1\n      0x00\n      create\n      dup1\n      iszero\n      dup1\n      iszero\n      tag_29\n      jumpi\n      returndatasize\n      0x00\n      dup1\n      returndatacopy\n      revert(0x00, returndatasize)\n    tag_29:\n      pop\n        /* \"Campaign.sol\":209:265  Campaign newCampaign = new Campaign(minimum, msg.sender) */\n      swap1\n      pop\n        /* \"Campaign.sol\":278:295  deployedCampaigns */\n      0x00\n        /* \"Campaign.sol\":301:312  newCampaign */\n      dup2\n        /* \"Campaign.sol\":278:313  deployedCampaigns.push(newCampaign) */\n      swap1\n      dup1\n      0x01\n      dup2\n      sload\n      add\n      dup1\n      dup3\n      sstore\n      dup1\n      swap2\n      pop\n      pop\n      0x01\n      swap1\n      sub\n      swap1\n      0x00\n      mstore\n      keccak256(0x00, 0x20)\n      add\n      0x00\n      swap1\n      swap2\n      swap1\n      swap2\n      swap1\n      swap2\n      0x0100\n      exp\n      dup2\n      sload\n      dup2\n      0xffffffffffffffffffffffffffffffffffffffff\n      mul\n      not\n      and\n      swap1\n      dup4\n      0xffffffffffffffffffffffffffffffffffffffff\n      and\n      mul\n      or\n      swap1\n      sstore\n      pop\n        /* \"Campaign.sol\":198:321  {... */\n      pop\n        /* \"Campaign.sol\":150:321  function createCampaign(uint256 minimum) public {... */\n      pop\n      jump\t// out\n    tag_26:\n      dataSize(sub_0)\n      dup1\n      dataOffset(sub_0)\n      dup4\n      codecopy\n      add\n      swap1\n      jump\t// out\n        /* \"#utility.yul\":88:205   */\n    tag_32:\n        /* \"#utility.yul\":197:198   */\n      0x00\n        /* \"#utility.yul\":194:195   */\n      dup1\n        /* \"#utility.yul\":187:199   */\n      revert\n        /* \"#utility.yul\":334:411   */\n    tag_34:\n        /* \"#utility.yul\":371:378   */\n      0x00\n        /* \"#utility.yul\":400:405   */\n      dup2\n        /* \"#utility.yul\":389:405   */\n      swap1\n      pop\n        /* \"#utility.yul\":334:411   */\n      swap2\n      swap1\n      pop\n      jump\t// out\n        /* \"#utility.yul\":417:539   */\n    tag_35:\n        /* \"#utility.yul\":490:514   */\n      tag_59\n        /* \"#utility.yul\":508:513   */\n      dup2\n        /* \"#utility.yul\":490:514   */\n      tag_34\n      jump\t// in\n    tag_59:\n        /* \"#utility.yul\":483:488   */\n      dup2\n        /* \"#utility.yul\":480:515   */\n      eq\n        /* \"#utility.yul\":470:533   */\n      tag_60\n      jumpi\n        /* \"#utility.yul\":529:530   */\n      0x00\n        /* \"#utility.yul\":526:527   */\n      dup1\n        /* \"#utility.yul\":519:531   */\n      revert\n        /* \"#utility.yul\":470:533   */\n    tag_60:\n        /* \"#utility.yul\":417:539   */\n      pop\n      jump\t// out\n        /* \"#utility.yul\":545:684   */\n    tag_36:\n        /* \"#utility.yul\":591:596   */\n      0x00\n        /* \"#utility.yul\":629:635   */\n      dup2\n        /* \"#utility.yul\":616:636   */\n      calldataload\n        /* \"#utility.yul\":607:636   */\n      swap1\n      pop\n        /* \"#utility.yul\":645:678   */\n      tag_62\n        /* \"#utility.yul\":672:677   */\n      dup2\n        /* \"#utility.yul\":645:678   */\n      tag_35\n      jump\t// in\n    tag_62:\n        /* \"#utility.yul\":545:684   */\n      swap3\n      swap2\n      pop\n      pop\n      jump\t// out\n        /* \"#utility.yul\":690:1019   */\n    tag_8:\n        /* \"#utility.yul\":749:755   */\n      0x00\n        /* \"#utility.yul\":798:800   */\n      0x20\n        /* \"#utility.yul\":786:795   */\n      dup3\n        /* \"#utility.yul\":777:784   */\n      dup5\n        /* \"#utility.yul\":773:796   */\n      sub\n        /* \"#utility.yul\":769:801   */\n      slt\n        /* \"#utility.yul\":766:885   */\n      iszero\n      tag_64\n      jumpi\n        /* \"#utility.yul\":804:883   */\n      tag_65\n      tag_32\n      jump\t// in\n    tag_65:\n        /* \"#utility.yul\":766:885   */\n    tag_64:\n        /* \"#utility.yul\":924:925   */\n      0x00\n        /* \"#utility.yul\":949:1002   */\n      tag_66\n        /* \"#utility.yul\":994:1001   */\n      dup5\n        /* \"#utility.yul\":985:991   */\n      dup3\n        /* \"#utility.yul\":974:983   */\n      dup6\n        /* \"#utility.yul\":970:992   */\n      add\n        /* \"#utility.yul\":949:1002   */\n      tag_36\n      jump\t// in\n    tag_66:\n        /* \"#utility.yul\":939:1002   */\n      swap2\n      pop\n        /* \"#utility.yul\":895:1012   */\n      pop\n        /* \"#utility.yul\":690:1019   */\n      swap3\n      swap2\n      pop\n      pop\n      jump\t// out\n        /* \"#utility.yul\":1025:1151   */\n    tag_37:\n        /* \"#utility.yul\":1062:1069   */\n      0x00\n        /* \"#utility.yul\":1102:1144   */\n      0xffffffffffffffffffffffffffffffffffffffff\n        /* \"#utility.yul\":1095:1100   */\n      dup3\n        /* \"#utility.yul\":1091:1145   */\n      and\n        /* \"#utility.yul\":1080:1145   */\n      swap1\n      pop\n        /* \"#utility.yul\":1025:1151   */\n      swap2\n      swap1\n      pop\n      jump\t// out\n        /* \"#utility.yul\":1157:1217   */\n    tag_38:\n        /* \"#utility.yul\":1185:1188   */\n      0x00\n        /* \"#utility.yul\":1206:1211   */\n      dup2\n        /* \"#utility.yul\":1199:1211   */\n      swap1\n      pop\n        /* \"#utility.yul\":1157:1217   */\n      swap2\n      swap1\n      pop\n      jump\t// out\n        /* \"#utility.yul\":1223:1365   */\n    tag_39:\n        /* \"#utility.yul\":1273:1282   */\n      0x00\n        /* \"#utility.yul\":1306:1359   */\n      tag_70\n        /* \"#utility.yul\":1324:1358   */\n      tag_71\n        /* \"#utility.yul\":1333:1357   */\n      tag_72\n        /* \"#utility.yul\":1351:1356   */\n      dup5\n        /* \"#utility.yul\":1333:1357   */\n      tag_37\n      jump\t// in\n    tag_72:\n        /* \"#utility.yul\":1324:1358   */\n      tag_38\n      jump\t// in\n    tag_71:\n        /* \"#utility.yul\":1306:1359   */\n      tag_37\n      jump\t// in\n    tag_70:\n        /* \"#utility.yul\":1293:1359   */\n      swap1\n      pop\n        /* \"#utility.yul\":1223:1365   */\n      swap2\n      swap1\n      pop\n      jump\t// out\n        /* \"#utility.yul\":1371:1497   */\n    tag_40:\n        /* \"#utility.yul\":1421:1430   */\n      0x00\n        /* \"#utility.yul\":1454:1491   */\n      tag_74\n        /* \"#utility.yul\":1485:1490   */\n      dup3\n        /* \"#utility.yul\":1454:1491   */\n      tag_39\n      jump\t// in\n    tag_74:\n        /* \"#utility.yul\":1441:1491   */\n      swap1\n      pop\n        /* \"#utility.yul\":1371:1497   */\n      swap2\n      swap1\n      pop\n      jump\t// out\n        /* \"#utility.yul\":1503:1645   */\n    tag_41:\n        /* \"#utility.yul\":1569:1578   */\n      0x00\n        /* \"#utility.yul\":1602:1639   */\n      tag_76\n        /* \"#utility.yul\":1633:1638   */\n      dup3\n        /* \"#utility.yul\":1602:1639   */\n      tag_40\n      jump\t// in\n    tag_76:\n        /* \"#utility.yul\":1589:1639   */\n      swap1\n      pop\n        /* \"#utility.yul\":1503:1645   */\n      swap2\n      swap1\n      pop\n      jump\t// out\n        /* \"#utility.yul\":1651:1814   */\n    tag_42:\n        /* \"#utility.yul\":1754:1807   */\n      tag_78\n        /* \"#utility.yul\":1801:1806   */\n      dup2\n        /* \"#utility.yul\":1754:1807   */\n      tag_41\n      jump\t// in\n    tag_78:\n        /* \"#utility.yul\":1749:1752   */\n      dup3\n        /* \"#utility.yul\":1742:1808   */\n      mstore\n        /* \"#utility.yul\":1651:1814   */\n      pop\n      pop\n      jump\t// out\n        /* \"#utility.yul\":1820:2074   */\n    tag_11:\n        /* \"#utility.yul\":1929:1933   */\n      0x00\n        /* \"#utility.yul\":1967:1969   */\n      0x20\n        /* \"#utility.yul\":1956:1965   */\n      dup3\n        /* \"#utility.yul\":1952:1970   */\n      add\n        /* \"#utility.yul\":1944:1970   */\n      swap1\n      pop\n        /* \"#utility.yul\":1980:2067   */\n      tag_80\n        /* \"#utility.yul\":2064:2065   */\n      0x00\n        /* \"#utility.yul\":2053:2062   */\n      dup4\n        /* \"#utility.yul\":2049:2066   */\n      add\n        /* \"#utility.yul\":2040:2046   */\n      dup5\n        /* \"#utility.yul\":1980:2067   */\n      tag_42\n      jump\t// in\n    tag_80:\n        /* \"#utility.yul\":1820:2074   */\n      swap3\n      swap2\n      pop\n      pop\n      jump\t// out\n        /* \"#utility.yul\":2080:2210   */\n    tag_43:\n        /* \"#utility.yul\":2163:2169   */\n      0x00\n        /* \"#utility.yul\":2197:2202   */\n      dup2\n        /* \"#utility.yul\":2191:2203   */\n      mload\n        /* \"#utility.yul\":2181:2203   */\n      swap1\n      pop\n        /* \"#utility.yul\":2080:2210   */\n      swap2\n      swap1\n      pop\n      jump\t// out\n        /* \"#utility.yul\":2216:2400   */\n    tag_44:\n        /* \"#utility.yul\":2315:2326   */\n      0x00\n        /* \"#utility.yul\":2349:2355   */\n      dup3\n        /* \"#utility.yul\":2344:2347   */\n      dup3\n        /* \"#utility.yul\":2337:2356   */\n      mstore\n        /* \"#utility.yul\":2389:2393   */\n      0x20\n        /* \"#utility.yul\":2384:2387   */\n      dup3\n        /* \"#utility.yul\":2380:2394   */\n      add\n        /* \"#utility.yul\":2365:2394   */\n      swap1\n      pop\n        /* \"#utility.yul\":2216:2400   */\n      swap3\n      swap2\n      pop\n      pop\n      jump\t// out\n        /* \"#utility.yul\":2406:2554   */\n    tag_45:\n        /* \"#utility.yul\":2489:2493   */\n      0x00\n        /* \"#utility.yul\":2512:2515   */\n      dup2\n        /* \"#utility.yul\":2504:2515   */\n      swap1\n      pop\n        /* \"#utility.yul\":2542:2546   */\n      0x20\n        /* \"#utility.yul\":2537:2540   */\n      dup3\n        /* \"#utility.yul\":2533:2547   */\n      add\n        /* \"#utility.yul\":2525:2547   */\n      swap1\n      pop\n        /* \"#utility.yul\":2406:2554   */\n      swap2\n      swap1\n      pop\n      jump\t// out\n        /* \"#utility.yul\":2560:2713   */\n    tag_46:\n        /* \"#utility.yul\":2653:2706   */\n      tag_85\n        /* \"#utility.yul\":2700:2705   */\n      dup2\n        /* \"#utility.yul\":2653:2706   */\n      tag_41\n      jump\t// in\n    tag_85:\n        /* \"#utility.yul\":2648:2651   */\n      dup3\n        /* \"#utility.yul\":2641:2707   */\n      mstore\n        /* \"#utility.yul\":2560:2713   */\n      pop\n      pop\n      jump\t// out\n        /* \"#utility.yul\":2719:2930   */\n    tag_47:\n        /* \"#utility.yul\":2804:2814   */\n      0x00\n        /* \"#utility.yul\":2825:2887   */\n      tag_87\n        /* \"#utility.yul\":2883:2886   */\n      dup4\n        /* \"#utility.yul\":2875:2881   */\n      dup4\n        /* \"#utility.yul\":2825:2887   */\n      tag_46\n      jump\t// in\n    tag_87:\n        /* \"#utility.yul\":2919:2923   */\n      0x20\n        /* \"#utility.yul\":2914:2917   */\n      dup4\n        /* \"#utility.yul\":2910:2924   */\n      add\n        /* \"#utility.yul\":2896:2924   */\n      swap1\n      pop\n        /* \"#utility.yul\":2719:2930   */\n      swap3\n      swap2\n      pop\n      pop\n      jump\t// out\n        /* \"#utility.yul\":2936:3065   */\n    tag_48:\n        /* \"#utility.yul\":3022:3026   */\n      0x00\n        /* \"#utility.yul\":3054:3058   */\n      0x20\n        /* \"#utility.yul\":3049:3052   */\n      dup3\n        /* \"#utility.yul\":3045:3059   */\n      add\n        /* \"#utility.yul\":3037:3059   */\n      swap1\n      pop\n        /* \"#utility.yul\":2936:3065   */\n      swap2\n      swap1\n      pop\n      jump\t// out\n        /* \"#utility.yul\":3111:3923   */\n    tag_49:\n        /* \"#utility.yul\":3246:3249   */\n      0x00\n        /* \"#utility.yul\":3275:3345   */\n      tag_90\n        /* \"#utility.yul\":3339:3344   */\n      dup3\n        /* \"#utility.yul\":3275:3345   */\n      tag_43\n      jump\t// in\n    tag_90:\n        /* \"#utility.yul\":3361:3447   */\n      tag_91\n        /* \"#utility.yul\":3440:3446   */\n      dup2\n        /* \"#utility.yul\":3435:3438   */\n      dup6\n        /* \"#utility.yul\":3361:3447   */\n      tag_44\n      jump\t// in\n    tag_91:\n        /* \"#utility.yul\":3354:3447   */\n      swap4\n      pop\n        /* \"#utility.yul\":3471:3543   */\n      tag_92\n        /* \"#utility.yul\":3537:3542   */\n      dup4\n        /* \"#utility.yul\":3471:3543   */\n      tag_45\n      jump\t// in\n    tag_92:\n        /* \"#utility.yul\":3566:3573   */\n      dup1\n        /* \"#utility.yul\":3597:3598   */\n      0x00\n        /* \"#utility.yul\":3582:3898   */\n    tag_93:\n        /* \"#utility.yul\":3607:3613   */\n      dup4\n        /* \"#utility.yul\":3604:3605   */\n      dup2\n        /* \"#utility.yul\":3601:3614   */\n      lt\n        /* \"#utility.yul\":3582:3898   */\n      iszero\n      tag_95\n      jumpi\n        /* \"#utility.yul\":3683:3689   */\n      dup2\n        /* \"#utility.yul\":3677:3690   */\n      mload\n        /* \"#utility.yul\":3710:3789   */\n      tag_96\n        /* \"#utility.yul\":3785:3788   */\n      dup9\n        /* \"#utility.yul\":3770:3783   */\n      dup3\n        /* \"#utility.yul\":3710:3789   */\n      tag_47\n      jump\t// in\n    tag_96:\n        /* \"#utility.yul\":3703:3789   */\n      swap8\n      pop\n        /* \"#utility.yul\":3812:3888   */\n      tag_97\n        /* \"#utility.yul\":3881:3887   */\n      dup4\n        /* \"#utility.yul\":3812:3888   */\n      tag_48\n      jump\t// in\n    tag_97:\n        /* \"#utility.yul\":3802:3888   */\n      swap3\n      pop\n        /* \"#utility.yul\":3642:3898   */\n      pop\n        /* \"#utility.yul\":3629:3630   */\n      0x01\n        /* \"#utility.yul\":3626:3627   */\n      dup2\n        /* \"#utility.yul\":3622:3631   */\n      add\n        /* \"#utility.yul\":3617:3631   */\n      swap1\n      pop\n        /* \"#utility.yul\":3582:3898   */\n      jump(tag_93)\n    tag_95:\n        /* \"#utility.yul\":3586:3600   */\n      pop\n        /* \"#utility.yul\":3914:3917   */\n      dup6\n        /* \"#utility.yul\":3907:3917   */\n      swap4\n      pop\n        /* \"#utility.yul\":3251:3923   */\n      pop\n      pop\n      pop\n        /* \"#utility.yul\":3111:3923   */\n      swap3\n      swap2\n      pop\n      pop\n      jump\t// out\n        /* \"#utility.yul\":3929:4334   */\n    tag_15:\n        /* \"#utility.yul\":4088:4092   */\n      0x00\n        /* \"#utility.yul\":4126:4128   */\n      0x20\n        /* \"#utility.yul\":4115:4124   */\n      dup3\n        /* \"#utility.yul\":4111:4129   */\n      add\n        /* \"#utility.yul\":4103:4129   */\n      swap1\n      pop\n        /* \"#utility.yul\":4175:4184   */\n      dup2\n        /* \"#utility.yul\":4169:4173   */\n      dup2\n        /* \"#utility.yul\":4165:4185   */\n      sub\n        /* \"#utility.yul\":4161:4162   */\n      0x00\n        /* \"#utility.yul\":4150:4159   */\n      dup4\n        /* \"#utility.yul\":4146:4163   */\n      add\n        /* \"#utility.yul\":4139:4186   */\n      mstore\n        /* \"#utility.yul\":4203:4327   */\n      tag_99\n        /* \"#utility.yul\":4322:4326   */\n      dup2\n        /* \"#utility.yul\":4313:4319   */\n      dup5\n        /* \"#utility.yul\":4203:4327   */\n      tag_49\n      jump\t// in\n    tag_99:\n        /* \"#utility.yul\":4195:4327   */\n      swap1\n      pop\n        /* \"#utility.yul\":3929:4334   */\n      swap3\n      swap2\n      pop\n      pop\n      jump\t// out\n        /* \"#utility.yul\":4340:4458   */\n    tag_50:\n        /* \"#utility.yul\":4427:4451   */\n      tag_101\n        /* \"#utility.yul\":4445:4450   */\n      dup2\n        /* \"#utility.yul\":4427:4451   */\n      tag_34\n      jump\t// in\n    tag_101:\n        /* \"#utility.yul\":4422:4425   */\n      dup3\n        /* \"#utility.yul\":4415:4452   */\n      mstore\n        /* \"#utility.yul\":4340:4458   */\n      pop\n      pop\n      jump\t// out\n        /* \"#utility.yul\":4464:4560   */\n    tag_51:\n        /* \"#utility.yul\":4501:4508   */\n      0x00\n        /* \"#utility.yul\":4530:4554   */\n      tag_103\n        /* \"#utility.yul\":4548:4553   */\n      dup3\n        /* \"#utility.yul\":4530:4554   */\n      tag_37\n      jump\t// in\n    tag_103:\n        /* \"#utility.yul\":4519:4554   */\n      swap1\n      pop\n        /* \"#utility.yul\":4464:4560   */\n      swap2\n      swap1\n      pop\n      jump\t// out\n        /* \"#utility.yul\":4566:4684   */\n    tag_52:\n        /* \"#utility.yul\":4653:4677   */\n      tag_105\n        /* \"#utility.yul\":4671:4676   */\n      dup2\n        /* \"#utility.yul\":4653:4677   */\n      tag_51\n      jump\t// in\n    tag_105:\n        /* \"#utility.yul\":4648:4651   */\n      dup3\n        /* \"#utility.yul\":4641:4678   */\n      mstore\n        /* \"#utility.yul\":4566:4684   */\n      pop\n      pop\n      jump\t// out\n        /* \"#utility.yul\":4690:5022   */\n    tag_28:\n        /* \"#utility.yul\":4811:4815   */\n      0x00\n        /* \"#utility.yul\":4849:4851   */\n      0x40\n        /* \"#utility.yul\":4838:4847   */\n      dup3\n        /* \"#utility.yul\":4834:4852   */\n      add\n        /* \"#utility.yul\":4826:4852   */\n      swap1\n      pop\n        /* \"#utility.yul\":4862:4933   */\n      tag_107\n        /* \"#utility.yul\":4930:4931   */\n      0x00\n        /* \"#utility.yul\":4919:4928   */\n      dup4\n        /* \"#utility.yul\":4915:4932   */\n      add\n        /* \"#utility.yul\":4906:4912   */\n      dup6\n        /* \"#utility.yul\":4862:4933   */\n      tag_50\n      jump\t// in\n    tag_107:\n        /* \"#utility.yul\":4943:5015   */\n      tag_108\n        /* \"#utility.yul\":5011:5013   */\n      0x20\n        /* \"#utility.yul\":5000:5009   */\n      dup4\n        /* \"#utility.yul\":4996:5014   */\n      add\n        /* \"#utility.yul\":4987:4993   */\n      dup5\n        /* \"#utility.yul\":4943:5015   */\n      tag_52\n      jump\t// in\n    tag_108:\n        /* \"#utility.yul\":4690:5022   */\n      swap4\n      swap3\n      pop\n      pop\n      pop\n      jump\t// out\n    stop\n\n    sub_0: assembly {\n            /* \"Campaign.sol\":451:3660  contract Campaign {... */\n          mstore(0x40, 0x80)\n            /* \"Campaign.sol\":929:1051  constructor(uint256 minimum, address creator) {... */\n          callvalue\n          dup1\n          iszero\n          tag_1\n          jumpi\n          0x00\n          dup1\n          revert\n        tag_1:\n          pop\n          mload(0x40)\n          sub(codesize, bytecodeSize)\n          dup1\n          bytecodeSize\n          dup4\n          codecopy\n          dup2\n          dup2\n          add\n          0x40\n          mstore\n          dup2\n          add\n          swap1\n          tag_2\n          swap2\n          swap1\n          tag_3\n          jump\t// in\n        tag_2:\n            /* \"Campaign.sol\":996:1003  creator */\n          dup1\n            /* \"Campaign.sol\":986:993  manager */\n          0x00\n          dup1\n            /* \"Campaign.sol\":986:1003  manager = creator */\n          0x0100\n          exp\n          dup2\n          sload\n          dup2\n          0xffffffffffffffffffffffffffffffffffffffff\n          mul\n          not\n          and\n          swap1\n          dup4\n          0xffffffffffffffffffffffffffffffffffffffff\n          and\n          mul\n          or\n          swap1\n          sstore\n          pop\n            /* \"Campaign.sol\":1036:1043  minimum */\n          dup2\n            /* \"Campaign.sol\":1014:1033  minimumContribution */\n          0x01\n            /* \"Campaign.sol\":1014:1043  minimumContribution = minimum */\n          dup2\n          swap1\n          sstore\n          pop\n            /* \"Campaign.sol\":929:1051  constructor(uint256 minimum, address creator) {... */\n          pop\n          pop\n            /* \"Campaign.sol\":451:3660  contract Campaign {... */\n          jump(tag_6)\n            /* \"#utility.yul\":88:205   */\n        tag_8:\n            /* \"#utility.yul\":197:198   */\n          0x00\n            /* \"#utility.yul\":194:195   */\n          dup1\n            /* \"#utility.yul\":187:199   */\n          revert\n            /* \"#utility.yul\":334:411   */\n        tag_10:\n            /* \"#utility.yul\":371:378   */\n          0x00\n            /* \"#utility.yul\":400:405   */\n          dup2\n            /* \"#utility.yul\":389:405   */\n          swap1\n          pop\n            /* \"#utility.yul\":334:411   */\n          swap2\n          swap1\n          pop\n          jump\t// out\n            /* \"#utility.yul\":417:539   */\n        tag_11:\n            /* \"#utility.yul\":490:514   */\n          tag_23\n            /* \"#utility.yul\":508:513   */\n          dup2\n            /* \"#utility.yul\":490:514   */\n          tag_10\n          jump\t// in\n        tag_23:\n            /* \"#utility.yul\":483:488   */\n          dup2\n            /* \"#utility.yul\":480:515   */\n          eq\n            /* \"#utility.yul\":470:533   */\n          tag_24\n          jumpi\n            /* \"#utility.yul\":529:530   */\n          0x00\n            /* \"#utility.yul\":526:527   */\n          dup1\n            /* \"#utility.yul\":519:531   */\n          revert\n            /* \"#utility.yul\":470:533   */\n        tag_24:\n            /* \"#utility.yul\":417:539   */\n          pop\n          jump\t// out\n            /* \"#utility.yul\":545:688   */\n        tag_12:\n            /* \"#utility.yul\":602:607   */\n          0x00\n            /* \"#utility.yul\":633:639   */\n          dup2\n            /* \"#utility.yul\":627:640   */\n          mload\n            /* \"#utility.yul\":618:640   */\n          swap1\n          pop\n            /* \"#utility.yul\":649:682   */\n          tag_26\n            /* \"#utility.yul\":676:681   */\n          dup2\n            /* \"#utility.yul\":649:682   */\n          tag_11\n          jump\t// in\n        tag_26:\n            /* \"#utility.yul\":545:688   */\n          swap3\n          swap2\n          pop\n          pop\n          jump\t// out\n            /* \"#utility.yul\":694:820   */\n        tag_13:\n            /* \"#utility.yul\":731:738   */\n          0x00\n            /* \"#utility.yul\":771:813   */\n          0xffffffffffffffffffffffffffffffffffffffff\n            /* \"#utility.yul\":764:769   */\n          dup3\n            /* \"#utility.yul\":760:814   */\n          and\n            /* \"#utility.yul\":749:814   */\n          swap1\n          pop\n            /* \"#utility.yul\":694:820   */\n          swap2\n          swap1\n          pop\n          jump\t// out\n            /* \"#utility.yul\":826:922   */\n        tag_14:\n            /* \"#utility.yul\":863:870   */\n          0x00\n            /* \"#utility.yul\":892:916   */\n          tag_29\n            /* \"#utility.yul\":910:915   */\n          dup3\n            /* \"#utility.yul\":892:916   */\n          tag_13\n          jump\t// in\n        tag_29:\n            /* \"#utility.yul\":881:916   */\n          swap1\n          pop\n            /* \"#utility.yul\":826:922   */\n          swap2\n          swap1\n          pop\n          jump\t// out\n            /* \"#utility.yul\":928:1050   */\n        tag_15:\n            /* \"#utility.yul\":1001:1025   */\n          tag_31\n            /* \"#utility.yul\":1019:1024   */\n          dup2\n            /* \"#utility.yul\":1001:1025   */\n          tag_14\n          jump\t// in\n        tag_31:\n            /* \"#utility.yul\":994:999   */\n          dup2\n            /* \"#utility.yul\":991:1026   */\n          eq\n            /* \"#utility.yul\":981:1044   */\n          tag_32\n          jumpi\n            /* \"#utility.yul\":1040:1041   */\n          0x00\n            /* \"#utility.yul\":1037:1038   */\n          dup1\n            /* \"#utility.yul\":1030:1042   */\n          revert\n            /* \"#utility.yul\":981:1044   */\n        tag_32:\n            /* \"#utility.yul\":928:1050   */\n          pop\n          jump\t// out\n            /* \"#utility.yul\":1056:1199   */\n        tag_16:\n            /* \"#utility.yul\":1113:1118   */\n          0x00\n            /* \"#utility.yul\":1144:1150   */\n          dup2\n            /* \"#utility.yul\":1138:1151   */\n          mload\n            /* \"#utility.yul\":1129:1151   */\n          swap1\n          pop\n            /* \"#utility.yul\":1160:1193   */\n          tag_34\n            /* \"#utility.yul\":1187:1192   */\n          dup2\n            /* \"#utility.yul\":1160:1193   */\n          tag_15\n          jump\t// in\n        tag_34:\n            /* \"#utility.yul\":1056:1199   */\n          swap3\n          swap2\n          pop\n          pop\n          jump\t// out\n            /* \"#utility.yul\":1205:1712   */\n        tag_3:\n            /* \"#utility.yul\":1284:1290   */\n          0x00\n            /* \"#utility.yul\":1292:1298   */\n          dup1\n            /* \"#utility.yul\":1341:1343   */\n          0x40\n            /* \"#utility.yul\":1329:1338   */\n          dup4\n            /* \"#utility.yul\":1320:1327   */\n          dup6\n            /* \"#utility.yul\":1316:1339   */\n          sub\n            /* \"#utility.yul\":1312:1344   */\n          slt\n            /* \"#utility.yul\":1309:1428   */\n          iszero\n          tag_36\n          jumpi\n            /* \"#utility.yul\":1347:1426   */\n          tag_37\n          tag_8\n          jump\t// in\n        tag_37:\n            /* \"#utility.yul\":1309:1428   */\n        tag_36:\n            /* \"#utility.yul\":1467:1468   */\n          0x00\n            /* \"#utility.yul\":1492:1556   */\n          tag_38\n            /* \"#utility.yul\":1548:1555   */\n          dup6\n            /* \"#utility.yul\":1539:1545   */\n          dup3\n            /* \"#utility.yul\":1528:1537   */\n          dup7\n            /* \"#utility.yul\":1524:1546   */\n          add\n            /* \"#utility.yul\":1492:1556   */\n          tag_12\n          jump\t// in\n        tag_38:\n            /* \"#utility.yul\":1482:1556   */\n          swap3\n          pop\n            /* \"#utility.yul\":1438:1566   */\n          pop\n            /* \"#utility.yul\":1605:1607   */\n          0x20\n            /* \"#utility.yul\":1631:1695   */\n          tag_39\n            /* \"#utility.yul\":1687:1694   */\n          dup6\n            /* \"#utility.yul\":1678:1684   */\n          dup3\n            /* \"#utility.yul\":1667:1676   */\n          dup7\n            /* \"#utility.yul\":1663:1685   */\n          add\n            /* \"#utility.yul\":1631:1695   */\n          tag_16\n          jump\t// in\n        tag_39:\n            /* \"#utility.yul\":1621:1695   */\n          swap2\n          pop\n            /* \"#utility.yul\":1576:1705   */\n          pop\n            /* \"#utility.yul\":1205:1712   */\n          swap3\n          pop\n          swap3\n          swap1\n          pop\n          jump\t// out\n            /* \"Campaign.sol\":451:3660  contract Campaign {... */\n        tag_6:\n          dataSize(sub_0)\n          dup1\n          dataOffset(sub_0)\n          0x00\n          codecopy\n          0x00\n          return\n        stop\n\n        sub_0: assembly {\n                /* \"Campaign.sol\":451:3660  contract Campaign {... */\n              mstore(0x40, 0x80)\n              jumpi(tag_1, lt(calldatasize, 0x04))\n              shr(0xe0, calldataload(0x00))\n              dup1\n              0x81d12c58\n              gt\n              tag_13\n              jumpi\n              dup1\n              0x81d12c58\n              eq\n              tag_7\n              jumpi\n              dup1\n              0x82fde093\n              eq\n              tag_8\n              jumpi\n              dup1\n              0x8a9cfd55\n              eq\n              tag_9\n              jumpi\n              dup1\n              0x937e09b1\n              eq\n              tag_10\n              jumpi\n              dup1\n              0xd7bb99ba\n              eq\n              tag_11\n              jumpi\n              dup1\n              0xd7d1bbdb\n              eq\n              tag_12\n              jumpi\n              jump(tag_1)\n            tag_13:\n              dup1\n              0x03441006\n              eq\n              tag_2\n              jumpi\n              dup1\n              0x0a144391\n              eq\n              tag_3\n              jumpi\n              dup1\n              0x3410452a\n              eq\n              tag_4\n              jumpi\n              dup1\n              0x4051ddac\n              eq\n              tag_5\n              jumpi\n              dup1\n              0x481c6a75\n              eq\n              tag_6\n              jumpi\n            tag_1:\n              0x00\n              dup1\n              revert\n                /* \"Campaign.sol\":2617:3074  function finalizeRequest(uint256 index) public onlyManager {... */\n            tag_2:\n              callvalue\n              dup1\n              iszero\n              tag_14\n              jumpi\n              0x00\n              dup1\n              revert\n            tag_14:\n              pop\n              tag_15\n              0x04\n              dup1\n              calldatasize\n              sub\n              dup2\n              add\n              swap1\n              tag_16\n              swap2\n              swap1\n              tag_17\n              jump\t// in\n            tag_16:\n              tag_18\n              jump\t// in\n            tag_15:\n              stop\n                /* \"Campaign.sol\":767:808  mapping(address => bool) public approvers */\n            tag_3:\n              callvalue\n              dup1\n              iszero\n              tag_19\n              jumpi\n              0x00\n              dup1\n              revert\n            tag_19:\n              pop\n              tag_20\n              0x04\n              dup1\n              calldatasize\n              sub\n              dup2\n              add\n              swap1\n              tag_21\n              swap2\n              swap1\n              tag_22\n              jump\t// in\n            tag_21:\n              tag_23\n              jump\t// in\n            tag_20:\n              mload(0x40)\n              tag_24\n              swap2\n              swap1\n              tag_25\n              jump\t// in\n            tag_24:\n              mload(0x40)\n              dup1\n              swap2\n              sub\n              swap1\n              return\n                /* \"Campaign.sol\":3470:3565  function getRequestsCount() public view returns (uint256) {... */\n            tag_4:\n              callvalue\n              dup1\n              iszero\n              tag_26\n              jumpi\n              0x00\n              dup1\n              revert\n            tag_26:\n              pop\n              tag_27\n              tag_28\n              jump\t// in\n            tag_27:\n              mload(0x40)\n              tag_29\n              swap2\n              swap1\n              tag_30\n              jump\t// in\n            tag_29:\n              mload(0x40)\n              dup1\n              swap2\n              sub\n              swap1\n              return\n                /* \"Campaign.sol\":3082:3462  function getSummary()... */\n            tag_5:\n              callvalue\n              dup1\n              iszero\n              tag_31\n              jumpi\n              0x00\n              dup1\n              revert\n            tag_31:\n              pop\n              tag_32\n              tag_33\n              jump\t// in\n            tag_32:\n              mload(0x40)\n              tag_34\n              swap6\n              swap5\n              swap4\n              swap3\n              swap2\n              swap1\n              tag_35\n              jump\t// in\n            tag_34:\n              mload(0x40)\n              dup1\n              swap2\n              sub\n              swap1\n              return\n                /* \"Campaign.sol\":697:719  address public manager */\n            tag_6:\n              callvalue\n              dup1\n              iszero\n              tag_36\n              jumpi\n              0x00\n              dup1\n              revert\n            tag_36:\n              pop\n              tag_37\n              tag_38\n              jump\t// in\n            tag_37:\n              mload(0x40)\n              tag_39\n              swap2\n              swap1\n              tag_40\n              jump\t// in\n            tag_39:\n              mload(0x40)\n              dup1\n              swap2\n              sub\n              swap1\n              return\n                /* \"Campaign.sol\":877:920  mapping(uint256 => Request) public requests */\n            tag_7:\n              callvalue\n              dup1\n              iszero\n              tag_41\n              jumpi\n              0x00\n              dup1\n              revert\n            tag_41:\n              pop\n              tag_42\n              0x04\n              dup1\n              calldatasize\n              sub\n              dup2\n              add\n              swap1\n              tag_43\n              swap2\n              swap1\n              tag_17\n              jump\t// in\n            tag_43:\n              tag_44\n              jump\t// in\n            tag_42:\n              mload(0x40)\n              tag_45\n              swap6\n              swap5\n              swap4\n              swap3\n              swap2\n              swap1\n              tag_46\n              jump\t// in\n            tag_45:\n              mload(0x40)\n              dup1\n              swap2\n              sub\n              swap1\n              return\n                /* \"Campaign.sol\":815:844  uint256 public approversCount */\n            tag_8:\n              callvalue\n              dup1\n              iszero\n              tag_47\n              jumpi\n              0x00\n              dup1\n              revert\n            tag_47:\n              pop\n              tag_48\n              tag_49\n              jump\t// in\n            tag_48:\n              mload(0x40)\n              tag_50\n              swap2\n              swap1\n              tag_30\n              jump\t// in\n            tag_50:\n              mload(0x40)\n              dup1\n              swap2\n              sub\n              swap1\n              return\n                /* \"Campaign.sol\":1329:2113  function createRequest(... */\n            tag_9:\n              callvalue\n              dup1\n              iszero\n              tag_51\n              jumpi\n              0x00\n              dup1\n              revert\n            tag_51:\n              pop\n              tag_52\n              0x04\n              dup1\n              calldatasize\n              sub\n              dup2\n              add\n              swap1\n              tag_53\n              swap2\n              swap1\n              tag_54\n              jump\t// in\n            tag_53:\n              tag_55\n              jump\t// in\n            tag_52:\n              stop\n                /* \"Campaign.sol\":726:760  uint256 public minimumContribution */\n            tag_10:\n              callvalue\n              dup1\n              iszero\n              tag_56\n              jumpi\n              0x00\n              dup1\n              revert\n            tag_56:\n              pop\n              tag_57\n              tag_58\n              jump\t// in\n            tag_57:\n              mload(0x40)\n              tag_59\n              swap2\n              swap1\n              tag_30\n              jump\t// in\n            tag_59:\n              mload(0x40)\n              dup1\n              swap2\n              sub\n              swap1\n              return\n                /* \"Campaign.sol\":1059:1321  function contribute() public payable {... */\n            tag_11:\n              tag_60\n              tag_61\n              jump\t// in\n            tag_60:\n              stop\n                /* \"Campaign.sol\":2121:2609  function approveRequest(uint256 index) public {... */\n            tag_12:\n              callvalue\n              dup1\n              iszero\n              tag_62\n              jumpi\n              0x00\n              dup1\n              revert\n            tag_62:\n              pop\n              tag_63\n              0x04\n              dup1\n              calldatasize\n              sub\n              dup2\n              add\n              swap1\n              tag_64\n              swap2\n              swap1\n              tag_17\n              jump\t// in\n            tag_64:\n              tag_65\n              jump\t// in\n            tag_63:\n              stop\n                /* \"Campaign.sol\":2617:3074  function finalizeRequest(uint256 index) public onlyManager {... */\n            tag_18:\n                /* \"Campaign.sol\":3629:3636  manager */\n              0x00\n              dup1\n              sload\n              swap1\n              0x0100\n              exp\n              swap1\n              div\n              0xffffffffffffffffffffffffffffffffffffffff\n              and\n                /* \"Campaign.sol\":3615:3636  msg.sender == manager */\n              0xffffffffffffffffffffffffffffffffffffffff\n              and\n                /* \"Campaign.sol\":3615:3625  msg.sender */\n              caller\n                /* \"Campaign.sol\":3615:3636  msg.sender == manager */\n              0xffffffffffffffffffffffffffffffffffffffff\n              and\n              eq\n                /* \"Campaign.sol\":3607:3637  require(msg.sender == manager) */\n              tag_67\n              jumpi\n              0x00\n              dup1\n              revert\n            tag_67:\n                /* \"Campaign.sol\":2687:2710  Request storage request */\n              0x00\n                /* \"Campaign.sol\":2713:2721  requests */\n              0x05\n                /* \"Campaign.sol\":2713:2728  requests[index] */\n              0x00\n                /* \"Campaign.sol\":2722:2727  index */\n              dup4\n                /* \"Campaign.sol\":2713:2728  requests[index] */\n              dup2\n              mstore\n              0x20\n              add\n              swap1\n              dup2\n              mstore\n              0x20\n              add\n              0x00\n              keccak256\n                /* \"Campaign.sol\":2687:2728  Request storage request = requests[index] */\n              swap1\n              pop\n                /* \"Campaign.sol\":2805:2806  2 */\n              0x02\n                /* \"Campaign.sol\":2788:2802  approversCount */\n              sload(0x03)\n                /* \"Campaign.sol\":2788:2806  approversCount / 2 */\n              tag_69\n              swap2\n              swap1\n              tag_70\n              jump\t// in\n            tag_69:\n                /* \"Campaign.sol\":2763:2770  request */\n              dup2\n                /* \"Campaign.sol\":2763:2784  request.approvalCount */\n              0x03\n              add\n              sload\n                /* \"Campaign.sol\":2763:2807  request.approvalCount > (approversCount / 2) */\n              gt\n                /* \"Campaign.sol\":2741:2896  require(... */\n              tag_71\n              jumpi\n              mload(0x40)\n              0x08c379a000000000000000000000000000000000000000000000000000000000\n              dup2\n              mstore\n              0x04\n              add\n              tag_72\n              swap1\n              tag_73\n              jump\t// in\n            tag_72:\n              mload(0x40)\n              dup1\n              swap2\n              sub\n              swap1\n              revert\n            tag_71:\n                /* \"Campaign.sol\":2918:2925  request */\n              dup1\n                /* \"Campaign.sol\":2918:2934  request.complete */\n              0x02\n              add\n              0x14\n              swap1\n              sload\n              swap1\n              0x0100\n              exp\n              swap1\n              div\n              0xff\n              and\n                /* \"Campaign.sol\":2917:2934  !request.complete */\n              iszero\n                /* \"Campaign.sol\":2909:2978  require(!request.complete, \"This request has already been finalized\") */\n              tag_74\n              jumpi\n              mload(0x40)\n              0x08c379a000000000000000000000000000000000000000000000000000000000\n              dup2\n              mstore\n              0x04\n              add\n              tag_75\n              swap1\n              tag_76\n              jump\t// in\n            tag_75:\n              mload(0x40)\n              dup1\n              swap2\n              sub\n              swap1\n              revert\n            tag_74:\n                /* \"Campaign.sol\":2991:2998  request */\n              dup1\n                /* \"Campaign.sol\":2991:3008  request.recipient */\n              0x02\n              add\n              0x00\n              swap1\n              sload\n              swap1\n              0x0100\n              exp\n              swap1\n              div\n              0xffffffffffffffffffffffffffffffffffffffff\n              and\n                /* \"Campaign.sol\":2991:3017  request.recipient.transfer */\n              0xffffffffffffffffffffffffffffffffffffffff\n              and\n                /* \"Campaign.sol\":2991:3032  request.recipient.transfer(request.value) */\n              0x08fc\n                /* \"Campaign.sol\":3018:3025  request */\n              dup3\n                /* \"Campaign.sol\":3018:3031  request.value */\n              0x01\n              add\n              sload\n                /* \"Campaign.sol\":2991:3032  request.recipient.transfer(request.value) */\n              swap1\n              dup2\n              iszero\n              mul\n              swap1\n              mload(0x40)\n              0x00\n              mload(0x40)\n              dup1\n              dup4\n              sub\n              dup2\n              dup6\n              dup9\n              dup9\n              call\n              swap4\n              pop\n              pop\n              pop\n              pop\n              iszero\n              dup1\n              iszero\n              tag_78\n              jumpi\n              returndatasize\n              0x00\n              dup1\n              returndatacopy\n              revert(0x00, returndatasize)\n            tag_78:\n              pop\n                /* \"Campaign.sol\":3062:3066  true */\n              0x01\n                /* \"Campaign.sol\":3043:3050  request */\n              dup2\n                /* \"Campaign.sol\":3043:3059  request.complete */\n              0x02\n              add\n              0x14\n                /* \"Campaign.sol\":3043:3066  request.complete = true */\n              0x0100\n              exp\n              dup2\n              sload\n              dup2\n              0xff\n              mul\n              not\n              and\n              swap1\n              dup4\n              iszero\n              iszero\n              mul\n              or\n              swap1\n              sstore\n              pop\n                /* \"Campaign.sol\":2676:3074  {... */\n              pop\n                /* \"Campaign.sol\":2617:3074  function finalizeRequest(uint256 index) public onlyManager {... */\n              pop\n              jump\t// out\n                /* \"Campaign.sol\":767:808  mapping(address => bool) public approvers */\n            tag_23:\n              mstore(0x20, 0x02)\n              dup1\n              0x00\n              mstore\n              keccak256(0x00, 0x40)\n              0x00\n              swap2\n              pop\n              sload\n              swap1\n              0x0100\n              exp\n              swap1\n              div\n              0xff\n              and\n              dup2\n              jump\t// out\n                /* \"Campaign.sol\":3470:3565  function getRequestsCount() public view returns (uint256) {... */\n            tag_28:\n                /* \"Campaign.sol\":3519:3526  uint256 */\n              0x00\n                /* \"Campaign.sol\":3546:3557  numRequests */\n              sload(0x04)\n                /* \"Campaign.sol\":3539:3557  return numRequests */\n              swap1\n              pop\n                /* \"Campaign.sol\":3470:3565  function getRequestsCount() public view returns (uint256) {... */\n              swap1\n              jump\t// out\n                /* \"Campaign.sol\":3082:3462  function getSummary()... */\n            tag_33:\n                /* \"Campaign.sol\":3166:3173  uint256 */\n              0x00\n                /* \"Campaign.sol\":3188:3195  uint256 */\n              dup1\n                /* \"Campaign.sol\":3210:3217  uint256 */\n              0x00\n                /* \"Campaign.sol\":3232:3239  uint256 */\n              dup1\n                /* \"Campaign.sol\":3254:3261  address */\n              0x00\n                /* \"Campaign.sol\":3311:3330  minimumContribution */\n              sload(0x01)\n                /* \"Campaign.sol\":3345:3366  address(this).balance */\n              selfbalance\n                /* \"Campaign.sol\":3381:3392  numRequests */\n              sload(0x04)\n                /* \"Campaign.sol\":3407:3421  approversCount */\n              sload(0x03)\n                /* \"Campaign.sol\":3436:3443  manager */\n              0x00\n              dup1\n              sload\n              swap1\n              0x0100\n              exp\n              swap1\n              div\n              0xffffffffffffffffffffffffffffffffffffffff\n              and\n                /* \"Campaign.sol\":3289:3454  return (... */\n              swap5\n              pop\n              swap5\n              pop\n              swap5\n              pop\n              swap5\n              pop\n              swap5\n              pop\n                /* \"Campaign.sol\":3082:3462  function getSummary()... */\n              swap1\n              swap2\n              swap3\n              swap4\n              swap5\n              jump\t// out\n                /* \"Campaign.sol\":697:719  address public manager */\n            tag_38:\n              0x00\n              dup1\n              sload\n              swap1\n              0x0100\n              exp\n              swap1\n              div\n              0xffffffffffffffffffffffffffffffffffffffff\n              and\n              dup2\n              jump\t// out\n                /* \"Campaign.sol\":877:920  mapping(uint256 => Request) public requests */\n            tag_44:\n              mstore(0x20, 0x05)\n              dup1\n              0x00\n              mstore\n              keccak256(0x00, 0x40)\n              0x00\n              swap2\n              pop\n              swap1\n              pop\n              dup1\n              0x00\n              add\n              dup1\n              sload\n              tag_81\n              swap1\n              tag_82\n              jump\t// in\n            tag_81:\n              dup1\n              0x1f\n              add\n              0x20\n              dup1\n              swap2\n              div\n              mul\n              0x20\n              add\n              mload(0x40)\n              swap1\n              dup2\n              add\n              0x40\n              mstore\n              dup1\n              swap3\n              swap2\n              swap1\n              dup2\n              dup2\n              mstore\n              0x20\n              add\n              dup3\n              dup1\n              sload\n              tag_83\n              swap1\n              tag_82\n              jump\t// in\n            tag_83:\n              dup1\n              iszero\n              tag_84\n              jumpi\n              dup1\n              0x1f\n              lt\n              tag_85\n              jumpi\n              0x0100\n              dup1\n              dup4\n              sload\n              div\n              mul\n              dup4\n              mstore\n              swap2\n              0x20\n              add\n              swap2\n              jump(tag_84)\n            tag_85:\n              dup3\n              add\n              swap2\n              swap1\n              0x00\n              mstore\n              keccak256(0x00, 0x20)\n              swap1\n            tag_86:\n              dup2\n              sload\n              dup2\n              mstore\n              swap1\n              0x01\n              add\n              swap1\n              0x20\n              add\n              dup1\n              dup4\n              gt\n              tag_86\n              jumpi\n              dup3\n              swap1\n              sub\n              0x1f\n              and\n              dup3\n              add\n              swap2\n            tag_84:\n              pop\n              pop\n              pop\n              pop\n              pop\n              swap1\n              dup1\n              0x01\n              add\n              sload\n              swap1\n              dup1\n              0x02\n              add\n              0x00\n              swap1\n              sload\n              swap1\n              0x0100\n              exp\n              swap1\n              div\n              0xffffffffffffffffffffffffffffffffffffffff\n              and\n              swap1\n              dup1\n              0x02\n              add\n              0x14\n              swap1\n              sload\n              swap1\n              0x0100\n              exp\n              swap1\n              div\n              0xff\n              and\n              swap1\n              dup1\n              0x03\n              add\n              sload\n              swap1\n              pop\n              dup6\n              jump\t// out\n                /* \"Campaign.sol\":815:844  uint256 public approversCount */\n            tag_49:\n              sload(0x03)\n              dup2\n              jump\t// out\n                /* \"Campaign.sol\":1329:2113  function createRequest(... */\n            tag_55:\n                /* \"Campaign.sol\":3629:3636  manager */\n              0x00\n              dup1\n              sload\n              swap1\n              0x0100\n              exp\n              swap1\n              div\n              0xffffffffffffffffffffffffffffffffffffffff\n              and\n                /* \"Campaign.sol\":3615:3636  msg.sender == manager */\n              0xffffffffffffffffffffffffffffffffffffffff\n              and\n                /* \"Campaign.sol\":3615:3625  msg.sender */\n              caller\n                /* \"Campaign.sol\":3615:3636  msg.sender == manager */\n              0xffffffffffffffffffffffffffffffffffffffff\n              and\n              eq\n                /* \"Campaign.sol\":3607:3637  require(msg.sender == manager) */\n              tag_88\n              jumpi\n              0x00\n              dup1\n              revert\n            tag_88:\n                /* \"Campaign.sol\":1888:1914  Request storage newRequest */\n              0x00\n                /* \"Campaign.sol\":1917:1925  requests */\n              0x05\n                /* \"Campaign.sol\":1917:1940  requests[numRequests++] */\n              0x00\n                /* \"Campaign.sol\":1926:1937  numRequests */\n              0x04\n              0x00\n                /* \"Campaign.sol\":1926:1939  numRequests++ */\n              dup2\n              sload\n              dup1\n              swap3\n              swap2\n              swap1\n              tag_90\n              swap1\n              tag_91\n              jump\t// in\n            tag_90:\n              swap2\n              swap1\n              pop\n              sstore\n                /* \"Campaign.sol\":1917:1940  requests[numRequests++] */\n              dup2\n              mstore\n              0x20\n              add\n              swap1\n              dup2\n              mstore\n              0x20\n              add\n              0x00\n              keccak256\n                /* \"Campaign.sol\":1888:1940  Request storage newRequest = requests[numRequests++] */\n              swap1\n              pop\n                /* \"Campaign.sol\":1978:1989  description */\n              dup4\n                /* \"Campaign.sol\":1953:1963  newRequest */\n              dup2\n                /* \"Campaign.sol\":1953:1975  newRequest.description */\n              0x00\n              add\n                /* \"Campaign.sol\":1953:1989  newRequest.description = description */\n              swap1\n              dup1\n              mload\n              swap1\n              0x20\n              add\n              swap1\n              tag_92\n              swap3\n              swap2\n              swap1\n              tag_93\n              jump\t// in\n            tag_92:\n              pop\n                /* \"Campaign.sol\":2019:2024  value */\n              dup3\n                /* \"Campaign.sol\":2000:2010  newRequest */\n              dup2\n                /* \"Campaign.sol\":2000:2016  newRequest.value */\n              0x01\n              add\n                /* \"Campaign.sol\":2000:2024  newRequest.value = value */\n              dup2\n              swap1\n              sstore\n              pop\n                /* \"Campaign.sol\":2058:2067  recipient */\n              dup2\n                /* \"Campaign.sol\":2035:2045  newRequest */\n              dup2\n                /* \"Campaign.sol\":2035:2055  newRequest.recipient */\n              0x02\n              add\n              0x00\n                /* \"Campaign.sol\":2035:2067  newRequest.recipient = recipient */\n              0x0100\n              exp\n              dup2\n              sload\n              dup2\n              0xffffffffffffffffffffffffffffffffffffffff\n              mul\n              not\n              and\n              swap1\n              dup4\n              0xffffffffffffffffffffffffffffffffffffffff\n              and\n              mul\n              or\n              swap1\n              sstore\n              pop\n                /* \"Campaign.sol\":2100:2105  false */\n              0x00\n                /* \"Campaign.sol\":2078:2088  newRequest */\n              dup2\n                /* \"Campaign.sol\":2078:2097  newRequest.complete */\n              0x02\n              add\n              0x14\n                /* \"Campaign.sol\":2078:2105  newRequest.complete = false */\n              0x0100\n              exp\n              dup2\n              sload\n              dup2\n              0xff\n              mul\n              not\n              and\n              swap1\n              dup4\n              iszero\n              iszero\n              mul\n              or\n              swap1\n              sstore\n              pop\n                /* \"Campaign.sol\":1474:2113  {... */\n              pop\n                /* \"Campaign.sol\":1329:2113  function createRequest(... */\n              pop\n              pop\n              pop\n              jump\t// out\n                /* \"Campaign.sol\":726:760  uint256 public minimumContribution */\n            tag_58:\n              sload(0x01)\n              dup2\n              jump\t// out\n                /* \"Campaign.sol\":1059:1321  function contribute() public payable {... */\n            tag_61:\n                /* \"Campaign.sol\":1141:1160  minimumContribution */\n              sload(0x01)\n                /* \"Campaign.sol\":1129:1138  msg.value */\n              callvalue\n                /* \"Campaign.sol\":1129:1160  msg.value > minimumContribution */\n              gt\n                /* \"Campaign.sol\":1107:1245  require(... */\n              tag_95\n              jumpi\n              mload(0x40)\n              0x08c379a000000000000000000000000000000000000000000000000000000000\n              dup2\n              mstore\n              0x04\n              add\n              tag_96\n              swap1\n              tag_97\n              jump\t// in\n            tag_96:\n              mload(0x40)\n              dup1\n              swap2\n              sub\n              swap1\n              revert\n            tag_95:\n                /* \"Campaign.sol\":1282:1286  true */\n              0x01\n                /* \"Campaign.sol\":1258:1267  approvers */\n              0x02\n                /* \"Campaign.sol\":1258:1279  approvers[msg.sender] */\n              0x00\n                /* \"Campaign.sol\":1268:1278  msg.sender */\n              caller\n                /* \"Campaign.sol\":1258:1279  approvers[msg.sender] */\n              0xffffffffffffffffffffffffffffffffffffffff\n              and\n              0xffffffffffffffffffffffffffffffffffffffff\n              and\n              dup2\n              mstore\n              0x20\n              add\n              swap1\n              dup2\n              mstore\n              0x20\n              add\n              0x00\n              keccak256\n              0x00\n                /* \"Campaign.sol\":1258:1286  approvers[msg.sender] = true */\n              0x0100\n              exp\n              dup2\n              sload\n              dup2\n              0xff\n              mul\n              not\n              and\n              swap1\n              dup4\n              iszero\n              iszero\n              mul\n              or\n              swap1\n              sstore\n              pop\n                /* \"Campaign.sol\":1297:1311  approversCount */\n              0x03\n              0x00\n                /* \"Campaign.sol\":1297:1313  approversCount++ */\n              dup2\n              sload\n              dup1\n              swap3\n              swap2\n              swap1\n              tag_98\n              swap1\n              tag_91\n              jump\t// in\n            tag_98:\n              swap2\n              swap1\n              pop\n              sstore\n              pop\n                /* \"Campaign.sol\":1059:1321  function contribute() public payable {... */\n              jump\t// out\n                /* \"Campaign.sol\":2121:2609  function approveRequest(uint256 index) public {... */\n            tag_65:\n                /* \"Campaign.sol\":2178:2201  Request storage request */\n              0x00\n                /* \"Campaign.sol\":2204:2212  requests */\n              0x05\n                /* \"Campaign.sol\":2204:2219  requests[index] */\n              0x00\n                /* \"Campaign.sol\":2213:2218  index */\n              dup4\n                /* \"Campaign.sol\":2204:2219  requests[index] */\n              dup2\n              mstore\n              0x20\n              add\n              swap1\n              dup2\n              mstore\n              0x20\n              add\n              0x00\n              keccak256\n                /* \"Campaign.sol\":2178:2219  Request storage request = requests[index] */\n              swap1\n              pop\n                /* \"Campaign.sol\":2254:2263  approvers */\n              0x02\n                /* \"Campaign.sol\":2254:2275  approvers[msg.sender] */\n              0x00\n                /* \"Campaign.sol\":2264:2274  msg.sender */\n              caller\n                /* \"Campaign.sol\":2254:2275  approvers[msg.sender] */\n              0xffffffffffffffffffffffffffffffffffffffff\n              and\n              0xffffffffffffffffffffffffffffffffffffffff\n              and\n              dup2\n              mstore\n              0x20\n              add\n              swap1\n              dup2\n              mstore\n              0x20\n              add\n              0x00\n              keccak256\n              0x00\n              swap1\n              sload\n              swap1\n              0x0100\n              exp\n              swap1\n              div\n              0xff\n              and\n                /* \"Campaign.sol\":2232:2379  require(... */\n              tag_100\n              jumpi\n              mload(0x40)\n              0x08c379a000000000000000000000000000000000000000000000000000000000\n              dup2\n              mstore\n              0x04\n              add\n              tag_101\n              swap1\n              tag_102\n              jump\t// in\n            tag_101:\n              mload(0x40)\n              dup1\n              swap2\n              sub\n              swap1\n              revert\n            tag_100:\n                /* \"Campaign.sol\":2415:2422  request */\n              dup1\n                /* \"Campaign.sol\":2415:2432  request.approvals */\n              0x04\n              add\n                /* \"Campaign.sol\":2415:2444  request.approvals[msg.sender] */\n              0x00\n                /* \"Campaign.sol\":2433:2443  msg.sender */\n              caller\n                /* \"Campaign.sol\":2415:2444  request.approvals[msg.sender] */\n              0xffffffffffffffffffffffffffffffffffffffff\n              and\n              0xffffffffffffffffffffffffffffffffffffffff\n              and\n              dup2\n              mstore\n              0x20\n              add\n              swap1\n              dup2\n              mstore\n              0x20\n              add\n              0x00\n              keccak256\n              0x00\n              swap1\n              sload\n              swap1\n              0x0100\n              exp\n              swap1\n              div\n              0xff\n              and\n                /* \"Campaign.sol\":2414:2444  !request.approvals[msg.sender] */\n              iszero\n                /* \"Campaign.sol\":2392:2518  require(... */\n              tag_103\n              jumpi\n              mload(0x40)\n              0x08c379a000000000000000000000000000000000000000000000000000000000\n              dup2\n              mstore\n              0x04\n              add\n              tag_104\n              swap1\n              tag_105\n              jump\t// in\n            tag_104:\n              mload(0x40)\n              dup1\n              swap2\n              sub\n              swap1\n              revert\n            tag_103:\n                /* \"Campaign.sol\":2563:2567  true */\n              0x01\n                /* \"Campaign.sol\":2531:2538  request */\n              dup2\n                /* \"Campaign.sol\":2531:2548  request.approvals */\n              0x04\n              add\n                /* \"Campaign.sol\":2531:2560  request.approvals[msg.sender] */\n              0x00\n                /* \"Campaign.sol\":2549:2559  msg.sender */\n              caller\n                /* \"Campaign.sol\":2531:2560  request.approvals[msg.sender] */\n              0xffffffffffffffffffffffffffffffffffffffff\n              and\n              0xffffffffffffffffffffffffffffffffffffffff\n              and\n              dup2\n              mstore\n              0x20\n              add\n              swap1\n              dup2\n              mstore\n              0x20\n              add\n              0x00\n              keccak256\n              0x00\n                /* \"Campaign.sol\":2531:2567  request.approvals[msg.sender] = true */\n              0x0100\n              exp\n              dup2\n              sload\n              dup2\n              0xff\n              mul\n              not\n              and\n              swap1\n              dup4\n              iszero\n              iszero\n              mul\n              or\n              swap1\n              sstore\n              pop\n                /* \"Campaign.sol\":2578:2585  request */\n              dup1\n                /* \"Campaign.sol\":2578:2599  request.approvalCount */\n              0x03\n              add\n              0x00\n                /* \"Campaign.sol\":2578:2601  request.approvalCount++ */\n              dup2\n              sload\n              dup1\n              swap3\n              swap2\n              swap1\n              tag_106\n              swap1\n              tag_91\n              jump\t// in\n            tag_106:\n              swap2\n              swap1\n              pop\n              sstore\n              pop\n                /* \"Campaign.sol\":2167:2609  {... */\n              pop\n                /* \"Campaign.sol\":2121:2609  function approveRequest(uint256 index) public {... */\n              pop\n              jump\t// out\n            tag_93:\n              dup3\n              dup1\n              sload\n              tag_107\n              swap1\n              tag_82\n              jump\t// in\n            tag_107:\n              swap1\n              0x00\n              mstore\n              keccak256(0x00, 0x20)\n              swap1\n              0x1f\n              add\n              0x20\n              swap1\n              div\n              dup2\n              add\n              swap3\n              dup3\n              tag_109\n              jumpi\n              0x00\n              dup6\n              sstore\n              jump(tag_108)\n            tag_109:\n              dup3\n              0x1f\n              lt\n              tag_110\n              jumpi\n              dup1\n              mload\n              not(0xff)\n              and\n              dup4\n              dup1\n              add\n              or\n              dup6\n              sstore\n              jump(tag_108)\n            tag_110:\n              dup3\n              dup1\n              add\n              0x01\n              add\n              dup6\n              sstore\n              dup3\n              iszero\n              tag_108\n              jumpi\n              swap2\n              dup3\n              add\n            tag_111:\n              dup3\n              dup2\n              gt\n              iszero\n              tag_112\n              jumpi\n              dup3\n              mload\n              dup3\n              sstore\n              swap2\n              0x20\n              add\n              swap2\n              swap1\n              0x01\n              add\n              swap1\n              jump(tag_111)\n            tag_112:\n            tag_108:\n              pop\n              swap1\n              pop\n              tag_113\n              swap2\n              swap1\n              tag_114\n              jump\t// in\n            tag_113:\n              pop\n              swap1\n              jump\t// out\n            tag_114:\n            tag_115:\n              dup1\n              dup3\n              gt\n              iszero\n              tag_116\n              jumpi\n              0x00\n              dup2\n              0x00\n              swap1\n              sstore\n              pop\n              0x01\n              add\n              jump(tag_115)\n            tag_116:\n              pop\n              swap1\n              jump\t// out\n                /* \"#utility.yul\":7:82   */\n            tag_117:\n                /* \"#utility.yul\":40:46   */\n              0x00\n                /* \"#utility.yul\":73:75   */\n              0x40\n                /* \"#utility.yul\":67:76   */\n              mload\n                /* \"#utility.yul\":57:76   */\n              swap1\n              pop\n                /* \"#utility.yul\":7:82   */\n              swap1\n              jump\t// out\n                /* \"#utility.yul\":88:205   */\n            tag_118:\n                /* \"#utility.yul\":197:198   */\n              0x00\n                /* \"#utility.yul\":194:195   */\n              dup1\n                /* \"#utility.yul\":187:199   */\n              revert\n                /* \"#utility.yul\":211:328   */\n            tag_119:\n                /* \"#utility.yul\":320:321   */\n              0x00\n                /* \"#utility.yul\":317:318   */\n              dup1\n                /* \"#utility.yul\":310:322   */\n              revert\n                /* \"#utility.yul\":334:411   */\n            tag_120:\n                /* \"#utility.yul\":371:378   */\n              0x00\n                /* \"#utility.yul\":400:405   */\n              dup2\n                /* \"#utility.yul\":389:405   */\n              swap1\n              pop\n                /* \"#utility.yul\":334:411   */\n              swap2\n              swap1\n              pop\n              jump\t// out\n                /* \"#utility.yul\":417:539   */\n            tag_121:\n                /* \"#utility.yul\":490:514   */\n              tag_168\n                /* \"#utility.yul\":508:513   */\n              dup2\n                /* \"#utility.yul\":490:514   */\n              tag_120\n              jump\t// in\n            tag_168:\n                /* \"#utility.yul\":483:488   */\n              dup2\n                /* \"#utility.yul\":480:515   */\n              eq\n                /* \"#utility.yul\":470:533   */\n              tag_169\n              jumpi\n                /* \"#utility.yul\":529:530   */\n              0x00\n                /* \"#utility.yul\":526:527   */\n              dup1\n                /* \"#utility.yul\":519:531   */\n              revert\n                /* \"#utility.yul\":470:533   */\n            tag_169:\n                /* \"#utility.yul\":417:539   */\n              pop\n              jump\t// out\n                /* \"#utility.yul\":545:684   */\n            tag_122:\n                /* \"#utility.yul\":591:596   */\n              0x00\n                /* \"#utility.yul\":629:635   */\n              dup2\n                /* \"#utility.yul\":616:636   */\n              calldataload\n                /* \"#utility.yul\":607:636   */\n              swap1\n              pop\n                /* \"#utility.yul\":645:678   */\n              tag_171\n                /* \"#utility.yul\":672:677   */\n              dup2\n                /* \"#utility.yul\":645:678   */\n              tag_121\n              jump\t// in\n            tag_171:\n                /* \"#utility.yul\":545:684   */\n              swap3\n              swap2\n              pop\n              pop\n              jump\t// out\n                /* \"#utility.yul\":690:1019   */\n            tag_17:\n                /* \"#utility.yul\":749:755   */\n              0x00\n                /* \"#utility.yul\":798:800   */\n              0x20\n                /* \"#utility.yul\":786:795   */\n              dup3\n                /* \"#utility.yul\":777:784   */\n              dup5\n                /* \"#utility.yul\":773:796   */\n              sub\n                /* \"#utility.yul\":769:801   */\n              slt\n                /* \"#utility.yul\":766:885   */\n              iszero\n              tag_173\n              jumpi\n                /* \"#utility.yul\":804:883   */\n              tag_174\n              tag_118\n              jump\t// in\n            tag_174:\n                /* \"#utility.yul\":766:885   */\n            tag_173:\n                /* \"#utility.yul\":924:925   */\n              0x00\n                /* \"#utility.yul\":949:1002   */\n              tag_175\n                /* \"#utility.yul\":994:1001   */\n              dup5\n                /* \"#utility.yul\":985:991   */\n              dup3\n                /* \"#utility.yul\":974:983   */\n              dup6\n                /* \"#utility.yul\":970:992   */\n              add\n                /* \"#utility.yul\":949:1002   */\n              tag_122\n              jump\t// in\n            tag_175:\n                /* \"#utility.yul\":939:1002   */\n              swap2\n              pop\n                /* \"#utility.yul\":895:1012   */\n              pop\n                /* \"#utility.yul\":690:1019   */\n              swap3\n              swap2\n              pop\n              pop\n              jump\t// out\n                /* \"#utility.yul\":1025:1151   */\n            tag_123:\n                /* \"#utility.yul\":1062:1069   */\n              0x00\n                /* \"#utility.yul\":1102:1144   */\n              0xffffffffffffffffffffffffffffffffffffffff\n                /* \"#utility.yul\":1095:1100   */\n              dup3\n                /* \"#utility.yul\":1091:1145   */\n              and\n                /* \"#utility.yul\":1080:1145   */\n              swap1\n              pop\n                /* \"#utility.yul\":1025:1151   */\n              swap2\n              swap1\n              pop\n              jump\t// out\n                /* \"#utility.yul\":1157:1253   */\n            tag_124:\n                /* \"#utility.yul\":1194:1201   */\n              0x00\n                /* \"#utility.yul\":1223:1247   */\n              tag_178\n                /* \"#utility.yul\":1241:1246   */\n              dup3\n                /* \"#utility.yul\":1223:1247   */\n              tag_123\n              jump\t// in\n            tag_178:\n                /* \"#utility.yul\":1212:1247   */\n              swap1\n              pop\n                /* \"#utility.yul\":1157:1253   */\n              swap2\n              swap1\n              pop\n              jump\t// out\n                /* \"#utility.yul\":1259:1381   */\n            tag_125:\n                /* \"#utility.yul\":1332:1356   */\n              tag_180\n                /* \"#utility.yul\":1350:1355   */\n              dup2\n                /* \"#utility.yul\":1332:1356   */\n              tag_124\n              jump\t// in\n            tag_180:\n                /* \"#utility.yul\":1325:1330   */\n              dup2\n                /* \"#utility.yul\":1322:1357   */\n              eq\n                /* \"#utility.yul\":1312:1375   */\n              tag_181\n              jumpi\n                /* \"#utility.yul\":1371:1372   */\n              0x00\n                /* \"#utility.yul\":1368:1369   */\n              dup1\n                /* \"#utility.yul\":1361:1373   */\n              revert\n                /* \"#utility.yul\":1312:1375   */\n            tag_181:\n                /* \"#utility.yul\":1259:1381   */\n              pop\n              jump\t// out\n                /* \"#utility.yul\":1387:1526   */\n            tag_126:\n                /* \"#utility.yul\":1433:1438   */\n              0x00\n                /* \"#utility.yul\":1471:1477   */\n              dup2\n                /* \"#utility.yul\":1458:1478   */\n              calldataload\n                /* \"#utility.yul\":1449:1478   */\n              swap1\n              pop\n                /* \"#utility.yul\":1487:1520   */\n              tag_183\n                /* \"#utility.yul\":1514:1519   */\n              dup2\n                /* \"#utility.yul\":1487:1520   */\n              tag_125\n              jump\t// in\n            tag_183:\n                /* \"#utility.yul\":1387:1526   */\n              swap3\n              swap2\n              pop\n              pop\n              jump\t// out\n                /* \"#utility.yul\":1532:1861   */\n            tag_22:\n                /* \"#utility.yul\":1591:1597   */\n              0x00\n                /* \"#utility.yul\":1640:1642   */\n              0x20\n                /* \"#utility.yul\":1628:1637   */\n              dup3\n                /* \"#utility.yul\":1619:1626   */\n              dup5\n                /* \"#utility.yul\":1615:1638   */\n              sub\n                /* \"#utility.yul\":1611:1643   */\n              slt\n                /* \"#utility.yul\":1608:1727   */\n              iszero\n              tag_185\n              jumpi\n                /* \"#utility.yul\":1646:1725   */\n              tag_186\n              tag_118\n              jump\t// in\n            tag_186:\n                /* \"#utility.yul\":1608:1727   */\n            tag_185:\n                /* \"#utility.yul\":1766:1767   */\n              0x00\n                /* \"#utility.yul\":1791:1844   */\n              tag_187\n                /* \"#utility.yul\":1836:1843   */\n              dup5\n                /* \"#utility.yul\":1827:1833   */\n              dup3\n                /* \"#utility.yul\":1816:1825   */\n              dup6\n                /* \"#utility.yul\":1812:1834   */\n              add\n                /* \"#utility.yul\":1791:1844   */\n              tag_126\n              jump\t// in\n            tag_187:\n                /* \"#utility.yul\":1781:1844   */\n              swap2\n              pop\n                /* \"#utility.yul\":1737:1854   */\n              pop\n                /* \"#utility.yul\":1532:1861   */\n              swap3\n              swap2\n              pop\n              pop\n              jump\t// out\n                /* \"#utility.yul\":1867:1957   */\n            tag_127:\n                /* \"#utility.yul\":1901:1908   */\n              0x00\n                /* \"#utility.yul\":1944:1949   */\n              dup2\n                /* \"#utility.yul\":1937:1950   */\n              iszero\n                /* \"#utility.yul\":1930:1951   */\n              iszero\n                /* \"#utility.yul\":1919:1951   */\n              swap1\n              pop\n                /* \"#utility.yul\":1867:1957   */\n              swap2\n              swap1\n              pop\n              jump\t// out\n                /* \"#utility.yul\":1963:2072   */\n            tag_128:\n                /* \"#utility.yul\":2044:2065   */\n              tag_190\n                /* \"#utility.yul\":2059:2064   */\n              dup2\n                /* \"#utility.yul\":2044:2065   */\n              tag_127\n              jump\t// in\n            tag_190:\n                /* \"#utility.yul\":2039:2042   */\n              dup3\n                /* \"#utility.yul\":2032:2066   */\n              mstore\n                /* \"#utility.yul\":1963:2072   */\n              pop\n              pop\n              jump\t// out\n                /* \"#utility.yul\":2078:2288   */\n            tag_25:\n                /* \"#utility.yul\":2165:2169   */\n              0x00\n                /* \"#utility.yul\":2203:2205   */\n              0x20\n                /* \"#utility.yul\":2192:2201   */\n              dup3\n                /* \"#utility.yul\":2188:2206   */\n              add\n                /* \"#utility.yul\":2180:2206   */\n              swap1\n              pop\n                /* \"#utility.yul\":2216:2281   */\n              tag_192\n                /* \"#utility.yul\":2278:2279   */\n              0x00\n                /* \"#utility.yul\":2267:2276   */\n              dup4\n                /* \"#utility.yul\":2263:2280   */\n              add\n                /* \"#utility.yul\":2254:2260   */\n              dup5\n                /* \"#utility.yul\":2216:2281   */\n              tag_128\n              jump\t// in\n            tag_192:\n                /* \"#utility.yul\":2078:2288   */\n              swap3\n              swap2\n              pop\n              pop\n              jump\t// out\n                /* \"#utility.yul\":2294:2412   */\n            tag_129:\n                /* \"#utility.yul\":2381:2405   */\n              tag_194\n                /* \"#utility.yul\":2399:2404   */\n              dup2\n                /* \"#utility.yul\":2381:2405   */\n              tag_120\n              jump\t// in\n            tag_194:\n                /* \"#utility.yul\":2376:2379   */\n              dup3\n                /* \"#utility.yul\":2369:2406   */\n              mstore\n                /* \"#utility.yul\":2294:2412   */\n              pop\n              pop\n              jump\t// out\n                /* \"#utility.yul\":2418:2640   */\n            tag_30:\n                /* \"#utility.yul\":2511:2515   */\n              0x00\n                /* \"#utility.yul\":2549:2551   */\n              0x20\n                /* \"#utility.yul\":2538:2547   */\n              dup3\n                /* \"#utility.yul\":2534:2552   */\n              add\n                /* \"#utility.yul\":2526:2552   */\n              swap1\n              pop\n                /* \"#utility.yul\":2562:2633   */\n              tag_196\n                /* \"#utility.yul\":2630:2631   */\n              0x00\n                /* \"#utility.yul\":2619:2628   */\n              dup4\n                /* \"#utility.yul\":2615:2632   */\n              add\n                /* \"#utility.yul\":2606:2612   */\n              dup5\n                /* \"#utility.yul\":2562:2633   */\n              tag_129\n              jump\t// in\n            tag_196:\n                /* \"#utility.yul\":2418:2640   */\n              swap3\n              swap2\n              pop\n              pop\n              jump\t// out\n                /* \"#utility.yul\":2646:2764   */\n            tag_130:\n                /* \"#utility.yul\":2733:2757   */\n              tag_198\n                /* \"#utility.yul\":2751:2756   */\n              dup2\n                /* \"#utility.yul\":2733:2757   */\n              tag_124\n              jump\t// in\n            tag_198:\n                /* \"#utility.yul\":2728:2731   */\n              dup3\n                /* \"#utility.yul\":2721:2758   */\n              mstore\n                /* \"#utility.yul\":2646:2764   */\n              pop\n              pop\n              jump\t// out\n                /* \"#utility.yul\":2770:3434   */\n            tag_35:\n                /* \"#utility.yul\":2975:2979   */\n              0x00\n                /* \"#utility.yul\":3013:3016   */\n              0xa0\n                /* \"#utility.yul\":3002:3011   */\n              dup3\n                /* \"#utility.yul\":2998:3017   */\n              add\n                /* \"#utility.yul\":2990:3017   */\n              swap1\n              pop\n                /* \"#utility.yul\":3027:3098   */\n              tag_200\n                /* \"#utility.yul\":3095:3096   */\n              0x00\n                /* \"#utility.yul\":3084:3093   */\n              dup4\n                /* \"#utility.yul\":3080:3097   */\n              add\n                /* \"#utility.yul\":3071:3077   */\n              dup9\n                /* \"#utility.yul\":3027:3098   */\n              tag_129\n              jump\t// in\n            tag_200:\n                /* \"#utility.yul\":3108:3180   */\n              tag_201\n                /* \"#utility.yul\":3176:3178   */\n              0x20\n                /* \"#utility.yul\":3165:3174   */\n              dup4\n                /* \"#utility.yul\":3161:3179   */\n              add\n                /* \"#utility.yul\":3152:3158   */\n              dup8\n                /* \"#utility.yul\":3108:3180   */\n              tag_129\n              jump\t// in\n            tag_201:\n                /* \"#utility.yul\":3190:3262   */\n              tag_202\n                /* \"#utility.yul\":3258:3260   */\n              0x40\n                /* \"#utility.yul\":3247:3256   */\n              dup4\n                /* \"#utility.yul\":3243:3261   */\n              add\n                /* \"#utility.yul\":3234:3240   */\n              dup7\n                /* \"#utility.yul\":3190:3262   */\n              tag_129\n              jump\t// in\n            tag_202:\n                /* \"#utility.yul\":3272:3344   */\n              tag_203\n                /* \"#utility.yul\":3340:3342   */\n              0x60\n                /* \"#utility.yul\":3329:3338   */\n              dup4\n                /* \"#utility.yul\":3325:3343   */\n              add\n                /* \"#utility.yul\":3316:3322   */\n              dup6\n                /* \"#utility.yul\":3272:3344   */\n              tag_129\n              jump\t// in\n            tag_203:\n                /* \"#utility.yul\":3354:3427   */\n              tag_204\n                /* \"#utility.yul\":3422:3425   */\n              0x80\n                /* \"#utility.yul\":3411:3420   */\n              dup4\n                /* \"#utility.yul\":3407:3426   */\n              add\n                /* \"#utility.yul\":3398:3404   */\n              dup5\n                /* \"#utility.yul\":3354:3427   */\n              tag_130\n              jump\t// in\n            tag_204:\n                /* \"#utility.yul\":2770:3434   */\n              swap7\n              swap6\n              pop\n              pop\n              pop\n              pop\n              pop\n              pop\n              jump\t// out\n                /* \"#utility.yul\":3440:3662   */\n            tag_40:\n                /* \"#utility.yul\":3533:3537   */\n              0x00\n                /* \"#utility.yul\":3571:3573   */\n              0x20\n                /* \"#utility.yul\":3560:3569   */\n              dup3\n                /* \"#utility.yul\":3556:3574   */\n              add\n                /* \"#utility.yul\":3548:3574   */\n              swap1\n              pop\n                /* \"#utility.yul\":3584:3655   */\n              tag_206\n                /* \"#utility.yul\":3652:3653   */\n              0x00\n                /* \"#utility.yul\":3641:3650   */\n              dup4\n                /* \"#utility.yul\":3637:3654   */\n              add\n                /* \"#utility.yul\":3628:3634   */\n              dup5\n                /* \"#utility.yul\":3584:3655   */\n              tag_130\n              jump\t// in\n            tag_206:\n                /* \"#utility.yul\":3440:3662   */\n              swap3\n              swap2\n              pop\n              pop\n              jump\t// out\n                /* \"#utility.yul\":3668:3767   */\n            tag_131:\n                /* \"#utility.yul\":3720:3726   */\n              0x00\n                /* \"#utility.yul\":3754:3759   */\n              dup2\n                /* \"#utility.yul\":3748:3760   */\n              mload\n                /* \"#utility.yul\":3738:3760   */\n              swap1\n              pop\n                /* \"#utility.yul\":3668:3767   */\n              swap2\n              swap1\n              pop\n              jump\t// out\n                /* \"#utility.yul\":3773:3942   */\n            tag_132:\n                /* \"#utility.yul\":3857:3868   */\n              0x00\n                /* \"#utility.yul\":3891:3897   */\n              dup3\n                /* \"#utility.yul\":3886:3889   */\n              dup3\n                /* \"#utility.yul\":3879:3898   */\n              mstore\n                /* \"#utility.yul\":3931:3935   */\n              0x20\n                /* \"#utility.yul\":3926:3929   */\n              dup3\n                /* \"#utility.yul\":3922:3936   */\n              add\n                /* \"#utility.yul\":3907:3936   */\n              swap1\n              pop\n                /* \"#utility.yul\":3773:3942   */\n              swap3\n              swap2\n              pop\n              pop\n              jump\t// out\n                /* \"#utility.yul\":3948:4255   */\n            tag_133:\n                /* \"#utility.yul\":4016:4017   */\n              0x00\n                /* \"#utility.yul\":4026:4139   */\n            tag_210:\n                /* \"#utility.yul\":4040:4046   */\n              dup4\n                /* \"#utility.yul\":4037:4038   */\n              dup2\n                /* \"#utility.yul\":4034:4047   */\n              lt\n                /* \"#utility.yul\":4026:4139   */\n              iszero\n              tag_212\n              jumpi\n                /* \"#utility.yul\":4125:4126   */\n              dup1\n                /* \"#utility.yul\":4120:4123   */\n              dup3\n                /* \"#utility.yul\":4116:4127   */\n              add\n                /* \"#utility.yul\":4110:4128   */\n              mload\n                /* \"#utility.yul\":4106:4107   */\n              dup2\n                /* \"#utility.yul\":4101:4104   */\n              dup5\n                /* \"#utility.yul\":4097:4108   */\n              add\n                /* \"#utility.yul\":4090:4129   */\n              mstore\n                /* \"#utility.yul\":4062:4064   */\n              0x20\n                /* \"#utility.yul\":4059:4060   */\n              dup2\n                /* \"#utility.yul\":4055:4065   */\n              add\n                /* \"#utility.yul\":4050:4065   */\n              swap1\n              pop\n                /* \"#utility.yul\":4026:4139   */\n              jump(tag_210)\n            tag_212:\n                /* \"#utility.yul\":4157:4163   */\n              dup4\n                /* \"#utility.yul\":4154:4155   */\n              dup2\n                /* \"#utility.yul\":4151:4164   */\n              gt\n                /* \"#utility.yul\":4148:4249   */\n              iszero\n              tag_213\n              jumpi\n                /* \"#utility.yul\":4237:4238   */\n              0x00\n                /* \"#utility.yul\":4228:4234   */\n              dup5\n                /* \"#utility.yul\":4223:4226   */\n              dup5\n                /* \"#utility.yul\":4219:4235   */\n              add\n                /* \"#utility.yul\":4212:4239   */\n              mstore\n                /* \"#utility.yul\":4148:4249   */\n            tag_213:\n                /* \"#utility.yul\":3997:4255   */\n              pop\n                /* \"#utility.yul\":3948:4255   */\n              pop\n              pop\n              pop\n              jump\t// out\n                /* \"#utility.yul\":4261:4363   */\n            tag_134:\n                /* \"#utility.yul\":4302:4308   */\n              0x00\n                /* \"#utility.yul\":4353:4355   */\n              0x1f\n                /* \"#utility.yul\":4349:4356   */\n              not\n                /* \"#utility.yul\":4344:4346   */\n              0x1f\n                /* \"#utility.yul\":4337:4342   */\n              dup4\n                /* \"#utility.yul\":4333:4347   */\n              add\n                /* \"#utility.yul\":4329:4357   */\n              and\n                /* \"#utility.yul\":4319:4357   */\n              swap1\n              pop\n                /* \"#utility.yul\":4261:4363   */\n              swap2\n              swap1\n              pop\n              jump\t// out\n                /* \"#utility.yul\":4369:4733   */\n            tag_135:\n                /* \"#utility.yul\":4457:4460   */\n              0x00\n                /* \"#utility.yul\":4485:4524   */\n              tag_216\n                /* \"#utility.yul\":4518:4523   */\n              dup3\n                /* \"#utility.yul\":4485:4524   */\n              tag_131\n              jump\t// in\n            tag_216:\n                /* \"#utility.yul\":4540:4611   */\n              tag_217\n                /* \"#utility.yul\":4604:4610   */\n              dup2\n                /* \"#utility.yul\":4599:4602   */\n              dup6\n                /* \"#utility.yul\":4540:4611   */\n              tag_132\n              jump\t// in\n            tag_217:\n                /* \"#utility.yul\":4533:4611   */\n              swap4\n              pop\n                /* \"#utility.yul\":4620:4672   */\n              tag_218\n                /* \"#utility.yul\":4665:4671   */\n              dup2\n                /* \"#utility.yul\":4660:4663   */\n              dup6\n                /* \"#utility.yul\":4653:4657   */\n              0x20\n                /* \"#utility.yul\":4646:4651   */\n              dup7\n                /* \"#utility.yul\":4642:4658   */\n              add\n                /* \"#utility.yul\":4620:4672   */\n              tag_133\n              jump\t// in\n            tag_218:\n                /* \"#utility.yul\":4697:4726   */\n              tag_219\n                /* \"#utility.yul\":4719:4725   */\n              dup2\n                /* \"#utility.yul\":4697:4726   */\n              tag_134\n              jump\t// in\n            tag_219:\n                /* \"#utility.yul\":4692:4695   */\n              dup5\n                /* \"#utility.yul\":4688:4727   */\n              add\n                /* \"#utility.yul\":4681:4727   */\n              swap2\n              pop\n                /* \"#utility.yul\":4461:4733   */\n              pop\n                /* \"#utility.yul\":4369:4733   */\n              swap3\n              swap2\n              pop\n              pop\n              jump\t// out\n                /* \"#utility.yul\":4739:4843   */\n            tag_136:\n                /* \"#utility.yul\":4784:4791   */\n              0x00\n                /* \"#utility.yul\":4813:4837   */\n              tag_221\n                /* \"#utility.yul\":4831:4836   */\n              dup3\n                /* \"#utility.yul\":4813:4837   */\n              tag_123\n              jump\t// in\n            tag_221:\n                /* \"#utility.yul\":4802:4837   */\n              swap1\n              pop\n                /* \"#utility.yul\":4739:4843   */\n              swap2\n              swap1\n              pop\n              jump\t// out\n                /* \"#utility.yul\":4849:4991   */\n            tag_137:\n                /* \"#utility.yul\":4952:4984   */\n              tag_223\n                /* \"#utility.yul\":4978:4983   */\n              dup2\n                /* \"#utility.yul\":4952:4984   */\n              tag_136\n              jump\t// in\n            tag_223:\n                /* \"#utility.yul\":4947:4950   */\n              dup3\n                /* \"#utility.yul\":4940:4985   */\n              mstore\n                /* \"#utility.yul\":4849:4991   */\n              pop\n              pop\n              jump\t// out\n                /* \"#utility.yul\":4997:5772   */\n            tag_46:\n                /* \"#utility.yul\":5232:5236   */\n              0x00\n                /* \"#utility.yul\":5270:5273   */\n              0xa0\n                /* \"#utility.yul\":5259:5268   */\n              dup3\n                /* \"#utility.yul\":5255:5274   */\n              add\n                /* \"#utility.yul\":5247:5274   */\n              swap1\n              pop\n                /* \"#utility.yul\":5320:5329   */\n              dup2\n                /* \"#utility.yul\":5314:5318   */\n              dup2\n                /* \"#utility.yul\":5310:5330   */\n              sub\n                /* \"#utility.yul\":5306:5307   */\n              0x00\n                /* \"#utility.yul\":5295:5304   */\n              dup4\n                /* \"#utility.yul\":5291:5308   */\n              add\n                /* \"#utility.yul\":5284:5331   */\n              mstore\n                /* \"#utility.yul\":5348:5426   */\n              tag_225\n                /* \"#utility.yul\":5421:5425   */\n              dup2\n                /* \"#utility.yul\":5412:5418   */\n              dup9\n                /* \"#utility.yul\":5348:5426   */\n              tag_135\n              jump\t// in\n            tag_225:\n                /* \"#utility.yul\":5340:5426   */\n              swap1\n              pop\n                /* \"#utility.yul\":5436:5508   */\n              tag_226\n                /* \"#utility.yul\":5504:5506   */\n              0x20\n                /* \"#utility.yul\":5493:5502   */\n              dup4\n                /* \"#utility.yul\":5489:5507   */\n              add\n                /* \"#utility.yul\":5480:5486   */\n              dup8\n                /* \"#utility.yul\":5436:5508   */\n              tag_129\n              jump\t// in\n            tag_226:\n                /* \"#utility.yul\":5518:5606   */\n              tag_227\n                /* \"#utility.yul\":5602:5604   */\n              0x40\n                /* \"#utility.yul\":5591:5600   */\n              dup4\n                /* \"#utility.yul\":5587:5605   */\n              add\n                /* \"#utility.yul\":5578:5584   */\n              dup7\n                /* \"#utility.yul\":5518:5606   */\n              tag_137\n              jump\t// in\n            tag_227:\n                /* \"#utility.yul\":5616:5682   */\n              tag_228\n                /* \"#utility.yul\":5678:5680   */\n              0x60\n                /* \"#utility.yul\":5667:5676   */\n              dup4\n                /* \"#utility.yul\":5663:5681   */\n              add\n                /* \"#utility.yul\":5654:5660   */\n              dup6\n                /* \"#utility.yul\":5616:5682   */\n              tag_128\n              jump\t// in\n            tag_228:\n                /* \"#utility.yul\":5692:5765   */\n              tag_229\n                /* \"#utility.yul\":5760:5763   */\n              0x80\n                /* \"#utility.yul\":5749:5758   */\n              dup4\n                /* \"#utility.yul\":5745:5764   */\n              add\n                /* \"#utility.yul\":5736:5742   */\n              dup5\n                /* \"#utility.yul\":5692:5765   */\n              tag_129\n              jump\t// in\n            tag_229:\n                /* \"#utility.yul\":4997:5772   */\n              swap7\n              swap6\n              pop\n              pop\n              pop\n              pop\n              pop\n              pop\n              jump\t// out\n                /* \"#utility.yul\":5778:5895   */\n            tag_138:\n                /* \"#utility.yul\":5887:5888   */\n              0x00\n                /* \"#utility.yul\":5884:5885   */\n              dup1\n                /* \"#utility.yul\":5877:5889   */\n              revert\n                /* \"#utility.yul\":5901:6018   */\n            tag_139:\n                /* \"#utility.yul\":6010:6011   */\n              0x00\n                /* \"#utility.yul\":6007:6008   */\n              dup1\n                /* \"#utility.yul\":6000:6012   */\n              revert\n                /* \"#utility.yul\":6024:6204   */\n            tag_140:\n                /* \"#utility.yul\":6072:6149   */\n              0x4e487b7100000000000000000000000000000000000000000000000000000000\n                /* \"#utility.yul\":6069:6070   */\n              0x00\n                /* \"#utility.yul\":6062:6150   */\n              mstore\n                /* \"#utility.yul\":6169:6173   */\n              0x41\n                /* \"#utility.yul\":6166:6167   */\n              0x04\n                /* \"#utility.yul\":6159:6174   */\n              mstore\n                /* \"#utility.yul\":6193:6197   */\n              0x24\n                /* \"#utility.yul\":6190:6191   */\n              0x00\n                /* \"#utility.yul\":6183:6198   */\n              revert\n                /* \"#utility.yul\":6210:6491   */\n            tag_141:\n                /* \"#utility.yul\":6293:6320   */\n              tag_234\n                /* \"#utility.yul\":6315:6319   */\n              dup3\n                /* \"#utility.yul\":6293:6320   */\n              tag_134\n              jump\t// in\n            tag_234:\n                /* \"#utility.yul\":6285:6291   */\n              dup2\n                /* \"#utility.yul\":6281:6321   */\n              add\n                /* \"#utility.yul\":6423:6429   */\n              dup2\n                /* \"#utility.yul\":6411:6421   */\n              dup2\n                /* \"#utility.yul\":6408:6430   */\n              lt\n                /* \"#utility.yul\":6387:6405   */\n              0xffffffffffffffff\n                /* \"#utility.yul\":6375:6385   */\n              dup3\n                /* \"#utility.yul\":6372:6406   */\n              gt\n                /* \"#utility.yul\":6369:6431   */\n              or\n                /* \"#utility.yul\":6366:6454   */\n              iszero\n              tag_235\n              jumpi\n                /* \"#utility.yul\":6434:6452   */\n              tag_236\n              tag_140\n              jump\t// in\n            tag_236:\n                /* \"#utility.yul\":6366:6454   */\n            tag_235:\n                /* \"#utility.yul\":6474:6484   */\n              dup1\n                /* \"#utility.yul\":6470:6472   */\n              0x40\n                /* \"#utility.yul\":6463:6485   */\n              mstore\n                /* \"#utility.yul\":6253:6491   */\n              pop\n                /* \"#utility.yul\":6210:6491   */\n              pop\n              pop\n              jump\t// out\n                /* \"#utility.yul\":6497:6626   */\n            tag_142:\n                /* \"#utility.yul\":6531:6537   */\n              0x00\n                /* \"#utility.yul\":6558:6578   */\n              tag_238\n              tag_117\n              jump\t// in\n            tag_238:\n                /* \"#utility.yul\":6548:6578   */\n              swap1\n              pop\n                /* \"#utility.yul\":6587:6620   */\n              tag_239\n                /* \"#utility.yul\":6615:6619   */\n              dup3\n                /* \"#utility.yul\":6607:6613   */\n              dup3\n                /* \"#utility.yul\":6587:6620   */\n              tag_141\n              jump\t// in\n            tag_239:\n                /* \"#utility.yul\":6497:6626   */\n              swap2\n              swap1\n              pop\n              jump\t// out\n                /* \"#utility.yul\":6632:6940   */\n            tag_143:\n                /* \"#utility.yul\":6694:6698   */\n              0x00\n                /* \"#utility.yul\":6784:6802   */\n              0xffffffffffffffff\n                /* \"#utility.yul\":6776:6782   */\n              dup3\n                /* \"#utility.yul\":6773:6803   */\n              gt\n                /* \"#utility.yul\":6770:6826   */\n              iszero\n              tag_241\n              jumpi\n                /* \"#utility.yul\":6806:6824   */\n              tag_242\n              tag_140\n              jump\t// in\n            tag_242:\n                /* \"#utility.yul\":6770:6826   */\n            tag_241:\n                /* \"#utility.yul\":6844:6873   */\n              tag_243\n                /* \"#utility.yul\":6866:6872   */\n              dup3\n                /* \"#utility.yul\":6844:6873   */\n              tag_134\n              jump\t// in\n            tag_243:\n                /* \"#utility.yul\":6836:6873   */\n              swap1\n              pop\n                /* \"#utility.yul\":6928:6932   */\n              0x20\n                /* \"#utility.yul\":6922:6926   */\n              dup2\n                /* \"#utility.yul\":6918:6933   */\n              add\n                /* \"#utility.yul\":6910:6933   */\n              swap1\n              pop\n                /* \"#utility.yul\":6632:6940   */\n              swap2\n              swap1\n              pop\n              jump\t// out\n                /* \"#utility.yul\":6946:7100   */\n            tag_144:\n                /* \"#utility.yul\":7030:7036   */\n              dup3\n                /* \"#utility.yul\":7025:7028   */\n              dup2\n                /* \"#utility.yul\":7020:7023   */\n              dup4\n                /* \"#utility.yul\":7007:7037   */\n              calldatacopy\n                /* \"#utility.yul\":7092:7093   */\n              0x00\n                /* \"#utility.yul\":7083:7089   */\n              dup4\n                /* \"#utility.yul\":7078:7081   */\n              dup4\n                /* \"#utility.yul\":7074:7090   */\n              add\n                /* \"#utility.yul\":7067:7094   */\n              mstore\n                /* \"#utility.yul\":6946:7100   */\n              pop\n              pop\n              pop\n              jump\t// out\n                /* \"#utility.yul\":7106:7518   */\n            tag_145:\n                /* \"#utility.yul\":7184:7189   */\n              0x00\n                /* \"#utility.yul\":7209:7275   */\n              tag_246\n                /* \"#utility.yul\":7225:7274   */\n              tag_247\n                /* \"#utility.yul\":7267:7273   */\n              dup5\n                /* \"#utility.yul\":7225:7274   */\n              tag_143\n              jump\t// in\n            tag_247:\n                /* \"#utility.yul\":7209:7275   */\n              tag_142\n              jump\t// in\n            tag_246:\n                /* \"#utility.yul\":7200:7275   */\n              swap1\n              pop\n                /* \"#utility.yul\":7298:7304   */\n              dup3\n                /* \"#utility.yul\":7291:7296   */\n              dup2\n                /* \"#utility.yul\":7284:7305   */\n              mstore\n                /* \"#utility.yul\":7336:7340   */\n              0x20\n                /* \"#utility.yul\":7329:7334   */\n              dup2\n                /* \"#utility.yul\":7325:7341   */\n              add\n                /* \"#utility.yul\":7374:7377   */\n              dup5\n                /* \"#utility.yul\":7365:7371   */\n              dup5\n                /* \"#utility.yul\":7360:7363   */\n              dup5\n                /* \"#utility.yul\":7356:7372   */\n              add\n                /* \"#utility.yul\":7353:7378   */\n              gt\n                /* \"#utility.yul\":7350:7462   */\n              iszero\n              tag_248\n              jumpi\n                /* \"#utility.yul\":7381:7460   */\n              tag_249\n              tag_139\n              jump\t// in\n            tag_249:\n                /* \"#utility.yul\":7350:7462   */\n            tag_248:\n                /* \"#utility.yul\":7471:7512   */\n              tag_250\n                /* \"#utility.yul\":7505:7511   */\n              dup5\n                /* \"#utility.yul\":7500:7503   */\n              dup3\n                /* \"#utility.yul\":7495:7498   */\n              dup6\n                /* \"#utility.yul\":7471:7512   */\n              tag_144\n              jump\t// in\n            tag_250:\n                /* \"#utility.yul\":7190:7518   */\n              pop\n                /* \"#utility.yul\":7106:7518   */\n              swap4\n              swap3\n              pop\n              pop\n              pop\n              jump\t// out\n                /* \"#utility.yul\":7538:7878   */\n            tag_146:\n                /* \"#utility.yul\":7594:7599   */\n              0x00\n                /* \"#utility.yul\":7643:7646   */\n              dup3\n                /* \"#utility.yul\":7636:7640   */\n              0x1f\n                /* \"#utility.yul\":7628:7634   */\n              dup4\n                /* \"#utility.yul\":7624:7641   */\n              add\n                /* \"#utility.yul\":7620:7647   */\n              slt\n                /* \"#utility.yul\":7610:7732   */\n              tag_252\n              jumpi\n                /* \"#utility.yul\":7651:7730   */\n              tag_253\n              tag_138\n              jump\t// in\n            tag_253:\n                /* \"#utility.yul\":7610:7732   */\n            tag_252:\n                /* \"#utility.yul\":7768:7774   */\n              dup2\n                /* \"#utility.yul\":7755:7775   */\n              calldataload\n                /* \"#utility.yul\":7793:7872   */\n              tag_254\n                /* \"#utility.yul\":7868:7871   */\n              dup5\n                /* \"#utility.yul\":7860:7866   */\n              dup3\n                /* \"#utility.yul\":7853:7857   */\n              0x20\n                /* \"#utility.yul\":7845:7851   */\n              dup7\n                /* \"#utility.yul\":7841:7858   */\n              add\n                /* \"#utility.yul\":7793:7872   */\n              tag_145\n              jump\t// in\n            tag_254:\n                /* \"#utility.yul\":7784:7872   */\n              swap2\n              pop\n                /* \"#utility.yul\":7600:7878   */\n              pop\n                /* \"#utility.yul\":7538:7878   */\n              swap3\n              swap2\n              pop\n              pop\n              jump\t// out\n                /* \"#utility.yul\":7884:8022   */\n            tag_147:\n                /* \"#utility.yul\":7965:7997   */\n              tag_256\n                /* \"#utility.yul\":7991:7996   */\n              dup2\n                /* \"#utility.yul\":7965:7997   */\n              tag_136\n              jump\t// in\n            tag_256:\n                /* \"#utility.yul\":7958:7963   */\n              dup2\n                /* \"#utility.yul\":7955:7998   */\n              eq\n                /* \"#utility.yul\":7945:8016   */\n              tag_257\n              jumpi\n                /* \"#utility.yul\":8012:8013   */\n              0x00\n                /* \"#utility.yul\":8009:8010   */\n              dup1\n                /* \"#utility.yul\":8002:8014   */\n              revert\n                /* \"#utility.yul\":7945:8016   */\n            tag_257:\n                /* \"#utility.yul\":7884:8022   */\n              pop\n              jump\t// out\n                /* \"#utility.yul\":8028:8183   */\n            tag_148:\n                /* \"#utility.yul\":8082:8087   */\n              0x00\n                /* \"#utility.yul\":8120:8126   */\n              dup2\n                /* \"#utility.yul\":8107:8127   */\n              calldataload\n                /* \"#utility.yul\":8098:8127   */\n              swap1\n              pop\n                /* \"#utility.yul\":8136:8177   */\n              tag_259\n                /* \"#utility.yul\":8171:8176   */\n              dup2\n                /* \"#utility.yul\":8136:8177   */\n              tag_147\n              jump\t// in\n            tag_259:\n                /* \"#utility.yul\":8028:8183   */\n              swap3\n              swap2\n              pop\n              pop\n              jump\t// out\n                /* \"#utility.yul\":8189:9004   */\n            tag_54:\n                /* \"#utility.yul\":8284:8290   */\n              0x00\n                /* \"#utility.yul\":8292:8298   */\n              dup1\n                /* \"#utility.yul\":8300:8306   */\n              0x00\n                /* \"#utility.yul\":8349:8351   */\n              0x60\n                /* \"#utility.yul\":8337:8346   */\n              dup5\n                /* \"#utility.yul\":8328:8335   */\n              dup7\n                /* \"#utility.yul\":8324:8347   */\n              sub\n                /* \"#utility.yul\":8320:8352   */\n              slt\n                /* \"#utility.yul\":8317:8436   */\n              iszero\n              tag_261\n              jumpi\n                /* \"#utility.yul\":8355:8434   */\n              tag_262\n              tag_118\n              jump\t// in\n            tag_262:\n                /* \"#utility.yul\":8317:8436   */\n            tag_261:\n                /* \"#utility.yul\":8503:8504   */\n              0x00\n                /* \"#utility.yul\":8492:8501   */\n              dup5\n                /* \"#utility.yul\":8488:8505   */\n              add\n                /* \"#utility.yul\":8475:8506   */\n              calldataload\n                /* \"#utility.yul\":8533:8551   */\n              0xffffffffffffffff\n                /* \"#utility.yul\":8525:8531   */\n              dup2\n                /* \"#utility.yul\":8522:8552   */\n              gt\n                /* \"#utility.yul\":8519:8636   */\n              iszero\n              tag_263\n              jumpi\n                /* \"#utility.yul\":8555:8634   */\n              tag_264\n              tag_119\n              jump\t// in\n            tag_264:\n                /* \"#utility.yul\":8519:8636   */\n            tag_263:\n                /* \"#utility.yul\":8660:8723   */\n              tag_265\n                /* \"#utility.yul\":8715:8722   */\n              dup7\n                /* \"#utility.yul\":8706:8712   */\n              dup3\n                /* \"#utility.yul\":8695:8704   */\n              dup8\n                /* \"#utility.yul\":8691:8713   */\n              add\n                /* \"#utility.yul\":8660:8723   */\n              tag_146\n              jump\t// in\n            tag_265:\n                /* \"#utility.yul\":8650:8723   */\n              swap4\n              pop\n                /* \"#utility.yul\":8446:8733   */\n              pop\n                /* \"#utility.yul\":8772:8774   */\n              0x20\n                /* \"#utility.yul\":8798:8851   */\n              tag_266\n                /* \"#utility.yul\":8843:8850   */\n              dup7\n                /* \"#utility.yul\":8834:8840   */\n              dup3\n                /* \"#utility.yul\":8823:8832   */\n              dup8\n                /* \"#utility.yul\":8819:8841   */\n              add\n                /* \"#utility.yul\":8798:8851   */\n              tag_122\n              jump\t// in\n            tag_266:\n                /* \"#utility.yul\":8788:8851   */\n              swap3\n              pop\n                /* \"#utility.yul\":8743:8861   */\n              pop\n                /* \"#utility.yul\":8900:8902   */\n              0x40\n                /* \"#utility.yul\":8926:8987   */\n              tag_267\n                /* \"#utility.yul\":8979:8986   */\n              dup7\n                /* \"#utility.yul\":8970:8976   */\n              dup3\n                /* \"#utility.yul\":8959:8968   */\n              dup8\n                /* \"#utility.yul\":8955:8977   */\n              add\n                /* \"#utility.yul\":8926:8987   */\n              tag_148\n              jump\t// in\n            tag_267:\n                /* \"#utility.yul\":8916:8987   */\n              swap2\n              pop\n                /* \"#utility.yul\":8871:8997   */\n              pop\n                /* \"#utility.yul\":8189:9004   */\n              swap3\n              pop\n              swap3\n              pop\n              swap3\n              jump\t// out\n                /* \"#utility.yul\":9010:9190   */\n            tag_149:\n                /* \"#utility.yul\":9058:9135   */\n              0x4e487b7100000000000000000000000000000000000000000000000000000000\n                /* \"#utility.yul\":9055:9056   */\n              0x00\n                /* \"#utility.yul\":9048:9136   */\n              mstore\n                /* \"#utility.yul\":9155:9159   */\n              0x12\n                /* \"#utility.yul\":9152:9153   */\n              0x04\n                /* \"#utility.yul\":9145:9160   */\n              mstore\n                /* \"#utility.yul\":9179:9183   */\n              0x24\n                /* \"#utility.yul\":9176:9177   */\n              0x00\n                /* \"#utility.yul\":9169:9184   */\n              revert\n                /* \"#utility.yul\":9196:9376   */\n            tag_150:\n                /* \"#utility.yul\":9244:9321   */\n              0x4e487b7100000000000000000000000000000000000000000000000000000000\n                /* \"#utility.yul\":9241:9242   */\n              0x00\n                /* \"#utility.yul\":9234:9322   */\n              mstore\n                /* \"#utility.yul\":9341:9345   */\n              0x11\n                /* \"#utility.yul\":9338:9339   */\n              0x04\n                /* \"#utility.yul\":9331:9346   */\n              mstore\n                /* \"#utility.yul\":9365:9369   */\n              0x24\n                /* \"#utility.yul\":9362:9363   */\n              0x00\n                /* \"#utility.yul\":9355:9370   */\n              revert\n                /* \"#utility.yul\":9382:9567   */\n            tag_70:\n                /* \"#utility.yul\":9422:9423   */\n              0x00\n                /* \"#utility.yul\":9439:9459   */\n              tag_271\n                /* \"#utility.yul\":9457:9458   */\n              dup3\n                /* \"#utility.yul\":9439:9459   */\n              tag_120\n              jump\t// in\n            tag_271:\n                /* \"#utility.yul\":9434:9459   */\n              swap2\n              pop\n                /* \"#utility.yul\":9473:9493   */\n              tag_272\n                /* \"#utility.yul\":9491:9492   */\n              dup4\n                /* \"#utility.yul\":9473:9493   */\n              tag_120\n              jump\t// in\n            tag_272:\n                /* \"#utility.yul\":9468:9493   */\n              swap3\n              pop\n                /* \"#utility.yul\":9512:9513   */\n              dup3\n                /* \"#utility.yul\":9502:9537   */\n              tag_273\n              jumpi\n                /* \"#utility.yul\":9517:9535   */\n              tag_274\n              tag_149\n              jump\t// in\n            tag_274:\n                /* \"#utility.yul\":9502:9537   */\n            tag_273:\n                /* \"#utility.yul\":9559:9560   */\n              dup3\n                /* \"#utility.yul\":9556:9557   */\n              dup3\n                /* \"#utility.yul\":9552:9561   */\n              div\n                /* \"#utility.yul\":9547:9561   */\n              swap1\n              pop\n                /* \"#utility.yul\":9382:9567   */\n              swap3\n              swap2\n              pop\n              pop\n              jump\t// out\n                /* \"#utility.yul\":9573:9821   */\n            tag_151:\n                /* \"#utility.yul\":9713:9747   */\n              0x546869732072657175657374206e65656473206d6f726520617070726f76616c\n                /* \"#utility.yul\":9709:9710   */\n              0x00\n                /* \"#utility.yul\":9701:9707   */\n              dup3\n                /* \"#utility.yul\":9697:9711   */\n              add\n                /* \"#utility.yul\":9690:9748   */\n              mstore\n                /* \"#utility.yul\":9782:9813   */\n              0x73206265666f72652069742063616e2062652066696e616c697a65642e000000\n                /* \"#utility.yul\":9777:9779   */\n              0x20\n                /* \"#utility.yul\":9769:9775   */\n              dup3\n                /* \"#utility.yul\":9765:9780   */\n              add\n                /* \"#utility.yul\":9758:9814   */\n              mstore\n                /* \"#utility.yul\":9573:9821   */\n              pop\n              jump\t// out\n                /* \"#utility.yul\":9827:10193   */\n            tag_152:\n                /* \"#utility.yul\":9969:9972   */\n              0x00\n                /* \"#utility.yul\":9990:10057   */\n              tag_277\n                /* \"#utility.yul\":10054:10056   */\n              0x3d\n                /* \"#utility.yul\":10049:10052   */\n              dup4\n                /* \"#utility.yul\":9990:10057   */\n              tag_132\n              jump\t// in\n            tag_277:\n                /* \"#utility.yul\":9983:10057   */\n              swap2\n              pop\n                /* \"#utility.yul\":10066:10159   */\n              tag_278\n                /* \"#utility.yul\":10155:10158   */\n              dup3\n                /* \"#utility.yul\":10066:10159   */\n              tag_151\n              jump\t// in\n            tag_278:\n                /* \"#utility.yul\":10184:10186   */\n              0x40\n                /* \"#utility.yul\":10179:10182   */\n              dup3\n                /* \"#utility.yul\":10175:10187   */\n              add\n                /* \"#utility.yul\":10168:10187   */\n              swap1\n              pop\n                /* \"#utility.yul\":9827:10193   */\n              swap2\n              swap1\n              pop\n              jump\t// out\n                /* \"#utility.yul\":10199:10618   */\n            tag_73:\n                /* \"#utility.yul\":10365:10369   */\n              0x00\n                /* \"#utility.yul\":10403:10405   */\n              0x20\n                /* \"#utility.yul\":10392:10401   */\n              dup3\n                /* \"#utility.yul\":10388:10406   */\n              add\n                /* \"#utility.yul\":10380:10406   */\n              swap1\n              pop\n                /* \"#utility.yul\":10452:10461   */\n              dup2\n                /* \"#utility.yul\":10446:10450   */\n              dup2\n                /* \"#utility.yul\":10442:10462   */\n              sub\n                /* \"#utility.yul\":10438:10439   */\n              0x00\n                /* \"#utility.yul\":10427:10436   */\n              dup4\n                /* \"#utility.yul\":10423:10440   */\n              add\n                /* \"#utility.yul\":10416:10463   */\n              mstore\n                /* \"#utility.yul\":10480:10611   */\n              tag_280\n                /* \"#utility.yul\":10606:10610   */\n              dup2\n                /* \"#utility.yul\":10480:10611   */\n              tag_152\n              jump\t// in\n            tag_280:\n                /* \"#utility.yul\":10472:10611   */\n              swap1\n              pop\n                /* \"#utility.yul\":10199:10618   */\n              swap2\n              swap1\n              pop\n              jump\t// out\n                /* \"#utility.yul\":10624:10850   */\n            tag_153:\n                /* \"#utility.yul\":10764:10798   */\n              0x5468697320726571756573742068617320616c7265616479206265656e206669\n                /* \"#utility.yul\":10760:10761   */\n              0x00\n                /* \"#utility.yul\":10752:10758   */\n              dup3\n                /* \"#utility.yul\":10748:10762   */\n              add\n                /* \"#utility.yul\":10741:10799   */\n              mstore\n                /* \"#utility.yul\":10833:10842   */\n              0x6e616c697a656400000000000000000000000000000000000000000000000000\n                /* \"#utility.yul\":10828:10830   */\n              0x20\n                /* \"#utility.yul\":10820:10826   */\n              dup3\n                /* \"#utility.yul\":10816:10831   */\n              add\n                /* \"#utility.yul\":10809:10843   */\n              mstore\n                /* \"#utility.yul\":10624:10850   */\n              pop\n              jump\t// out\n                /* \"#utility.yul\":10856:11222   */\n            tag_154:\n                /* \"#utility.yul\":10998:11001   */\n              0x00\n                /* \"#utility.yul\":11019:11086   */\n              tag_283\n                /* \"#utility.yul\":11083:11085   */\n              0x27\n                /* \"#utility.yul\":11078:11081   */\n              dup4\n                /* \"#utility.yul\":11019:11086   */\n              tag_132\n              jump\t// in\n            tag_283:\n                /* \"#utility.yul\":11012:11086   */\n              swap2\n              pop\n                /* \"#utility.yul\":11095:11188   */\n              tag_284\n                /* \"#utility.yul\":11184:11187   */\n              dup3\n                /* \"#utility.yul\":11095:11188   */\n              tag_153\n              jump\t// in\n            tag_284:\n                /* \"#utility.yul\":11213:11215   */\n              0x40\n                /* \"#utility.yul\":11208:11211   */\n              dup3\n                /* \"#utility.yul\":11204:11216   */\n              add\n                /* \"#utility.yul\":11197:11216   */\n              swap1\n              pop\n                /* \"#utility.yul\":10856:11222   */\n              swap2\n              swap1\n              pop\n              jump\t// out\n                /* \"#utility.yul\":11228:11647   */\n            tag_76:\n                /* \"#utility.yul\":11394:11398   */\n              0x00\n                /* \"#utility.yul\":11432:11434   */\n              0x20\n                /* \"#utility.yul\":11421:11430   */\n              dup3\n                /* \"#utility.yul\":11417:11435   */\n              add\n                /* \"#utility.yul\":11409:11435   */\n              swap1\n              pop\n                /* \"#utility.yul\":11481:11490   */\n              dup2\n                /* \"#utility.yul\":11475:11479   */\n              dup2\n                /* \"#utility.yul\":11471:11491   */\n              sub\n                /* \"#utility.yul\":11467:11468   */\n              0x00\n                /* \"#utility.yul\":11456:11465   */\n              dup4\n                /* \"#utility.yul\":11452:11469   */\n              add\n                /* \"#utility.yul\":11445:11492   */\n              mstore\n                /* \"#utility.yul\":11509:11640   */\n              tag_286\n                /* \"#utility.yul\":11635:11639   */\n              dup2\n                /* \"#utility.yul\":11509:11640   */\n              tag_154\n              jump\t// in\n            tag_286:\n                /* \"#utility.yul\":11501:11640   */\n              swap1\n              pop\n                /* \"#utility.yul\":11228:11647   */\n              swap2\n              swap1\n              pop\n              jump\t// out\n                /* \"#utility.yul\":11653:11833   */\n            tag_155:\n                /* \"#utility.yul\":11701:11778   */\n              0x4e487b7100000000000000000000000000000000000000000000000000000000\n                /* \"#utility.yul\":11698:11699   */\n              0x00\n                /* \"#utility.yul\":11691:11779   */\n              mstore\n                /* \"#utility.yul\":11798:11802   */\n              0x22\n                /* \"#utility.yul\":11795:11796   */\n              0x04\n                /* \"#utility.yul\":11788:11803   */\n              mstore\n                /* \"#utility.yul\":11822:11826   */\n              0x24\n                /* \"#utility.yul\":11819:11820   */\n              0x00\n                /* \"#utility.yul\":11812:11827   */\n              revert\n                /* \"#utility.yul\":11839:12159   */\n            tag_82:\n                /* \"#utility.yul\":11883:11889   */\n              0x00\n                /* \"#utility.yul\":11920:11921   */\n              0x02\n                /* \"#utility.yul\":11914:11918   */\n              dup3\n                /* \"#utility.yul\":11910:11922   */\n              div\n                /* \"#utility.yul\":11900:11922   */\n              swap1\n              pop\n                /* \"#utility.yul\":11967:11968   */\n              0x01\n                /* \"#utility.yul\":11961:11965   */\n              dup3\n                /* \"#utility.yul\":11957:11969   */\n              and\n                /* \"#utility.yul\":11988:12006   */\n              dup1\n                /* \"#utility.yul\":11978:12059   */\n              tag_289\n              jumpi\n                /* \"#utility.yul\":12044:12048   */\n              0x7f\n                /* \"#utility.yul\":12036:12042   */\n              dup3\n                /* \"#utility.yul\":12032:12049   */\n              and\n                /* \"#utility.yul\":12022:12049   */\n              swap2\n              pop\n                /* \"#utility.yul\":11978:12059   */\n            tag_289:\n                /* \"#utility.yul\":12106:12108   */\n              0x20\n                /* \"#utility.yul\":12098:12104   */\n              dup3\n                /* \"#utility.yul\":12095:12109   */\n              lt\n                /* \"#utility.yul\":12075:12093   */\n              dup2\n                /* \"#utility.yul\":12072:12110   */\n              sub\n                /* \"#utility.yul\":12069:12153   */\n              tag_290\n              jumpi\n                /* \"#utility.yul\":12125:12143   */\n              tag_291\n              tag_155\n              jump\t// in\n            tag_291:\n                /* \"#utility.yul\":12069:12153   */\n            tag_290:\n                /* \"#utility.yul\":11890:12159   */\n              pop\n                /* \"#utility.yul\":11839:12159   */\n              swap2\n              swap1\n              pop\n              jump\t// out\n                /* \"#utility.yul\":12165:12398   */\n            tag_91:\n                /* \"#utility.yul\":12204:12207   */\n              0x00\n                /* \"#utility.yul\":12227:12251   */\n              tag_293\n                /* \"#utility.yul\":12245:12250   */\n              dup3\n                /* \"#utility.yul\":12227:12251   */\n              tag_120\n              jump\t// in\n            tag_293:\n                /* \"#utility.yul\":12218:12251   */\n              swap2\n              pop\n                /* \"#utility.yul\":12273:12339   */\n              0xffffffffffffffffffffffffffffffffffffffffffffffffffffffffffffffff\n                /* \"#utility.yul\":12266:12271   */\n              dup3\n                /* \"#utility.yul\":12263:12340   */\n              sub\n                /* \"#utility.yul\":12260:12363   */\n              tag_294\n              jumpi\n                /* \"#utility.yul\":12343:12361   */\n              tag_295\n              tag_150\n              jump\t// in\n            tag_295:\n                /* \"#utility.yul\":12260:12363   */\n            tag_294:\n                /* \"#utility.yul\":12390:12391   */\n              0x01\n                /* \"#utility.yul\":12383:12388   */\n              dup3\n                /* \"#utility.yul\":12379:12392   */\n              add\n                /* \"#utility.yul\":12372:12392   */\n              swap1\n              pop\n                /* \"#utility.yul\":12165:12398   */\n              swap2\n              swap1\n              pop\n              jump\t// out\n                /* \"#utility.yul\":12404:12648   */\n            tag_156:\n                /* \"#utility.yul\":12544:12578   */\n              0x54686520616d6f756e7420656e7465726564206973206c657373207468616e20\n                /* \"#utility.yul\":12540:12541   */\n              0x00\n                /* \"#utility.yul\":12532:12538   */\n              dup3\n                /* \"#utility.yul\":12528:12542   */\n              add\n                /* \"#utility.yul\":12521:12579   */\n              mstore\n                /* \"#utility.yul\":12613:12640   */\n              0x746865206d696e696d756d20636f6e747269627574696f6e2e00000000000000\n                /* \"#utility.yul\":12608:12610   */\n              0x20\n                /* \"#utility.yul\":12600:12606   */\n              dup3\n                /* \"#utility.yul\":12596:12611   */\n              add\n                /* \"#utility.yul\":12589:12641   */\n              mstore\n                /* \"#utility.yul\":12404:12648   */\n              pop\n              jump\t// out\n                /* \"#utility.yul\":12654:13020   */\n            tag_157:\n                /* \"#utility.yul\":12796:12799   */\n              0x00\n                /* \"#utility.yul\":12817:12884   */\n              tag_298\n                /* \"#utility.yul\":12881:12883   */\n              0x39\n                /* \"#utility.yul\":12876:12879   */\n              dup4\n                /* \"#utility.yul\":12817:12884   */\n              tag_132\n              jump\t// in\n            tag_298:\n                /* \"#utility.yul\":12810:12884   */\n              swap2\n              pop\n                /* \"#utility.yul\":12893:12986   */\n              tag_299\n                /* \"#utility.yul\":12982:12985   */\n              dup3\n                /* \"#utility.yul\":12893:12986   */\n              tag_156\n              jump\t// in\n            tag_299:\n                /* \"#utility.yul\":13011:13013   */\n              0x40\n                /* \"#utility.yul\":13006:13009   */\n              dup3\n                /* \"#utility.yul\":13002:13014   */\n              add\n                /* \"#utility.yul\":12995:13014   */\n              swap1\n              pop\n                /* \"#utility.yul\":12654:13020   */\n              swap2\n              swap1\n              pop\n              jump\t// out\n                /* \"#utility.yul\":13026:13445   */\n            tag_97:\n                /* \"#utility.yul\":13192:13196   */\n              0x00\n                /* \"#utility.yul\":13230:13232   */\n              0x20\n                /* \"#utility.yul\":13219:13228   */\n              dup3\n                /* \"#utility.yul\":13215:13233   */\n              add\n                /* \"#utility.yul\":13207:13233   */\n              swap1\n              pop\n                /* \"#utility.yul\":13279:13288   */\n              dup2\n                /* \"#utility.yul\":13273:13277   */\n              dup2\n                /* \"#utility.yul\":13269:13289   */\n              sub\n                /* \"#utility.yul\":13265:13266   */\n              0x00\n                /* \"#utility.yul\":13254:13263   */\n              dup4\n                /* \"#utility.yul\":13250:13267   */\n              add\n                /* \"#utility.yul\":13243:13290   */\n              mstore\n                /* \"#utility.yul\":13307:13438   */\n              tag_301\n                /* \"#utility.yul\":13433:13437   */\n              dup2\n                /* \"#utility.yul\":13307:13438   */\n              tag_157\n              jump\t// in\n            tag_301:\n                /* \"#utility.yul\":13299:13438   */\n              swap1\n              pop\n                /* \"#utility.yul\":13026:13445   */\n              swap2\n              swap1\n              pop\n              jump\t// out\n                /* \"#utility.yul\":13451:13751   */\n            tag_158:\n                /* \"#utility.yul\":13591:13625   */\n              0x5065726d697373696f6e2064656e69656421204f6e6c7920636f6e7472696275\n                /* \"#utility.yul\":13587:13588   */\n              0x00\n                /* \"#utility.yul\":13579:13585   */\n              dup3\n                /* \"#utility.yul\":13575:13589   */\n              add\n                /* \"#utility.yul\":13568:13626   */\n              mstore\n                /* \"#utility.yul\":13660:13694   */\n              0x746f72732063616e20617070726f76652061207370656369666963207061796d\n                /* \"#utility.yul\":13655:13657   */\n              0x20\n                /* \"#utility.yul\":13647:13653   */\n              dup3\n                /* \"#utility.yul\":13643:13658   */\n              add\n                /* \"#utility.yul\":13636:13695   */\n              mstore\n                /* \"#utility.yul\":13729:13743   */\n              0x656e7420726571756573742e0000000000000000000000000000000000000000\n                /* \"#utility.yul\":13724:13726   */\n              0x40\n                /* \"#utility.yul\":13716:13722   */\n              dup3\n                /* \"#utility.yul\":13712:13727   */\n              add\n                /* \"#utility.yul\":13705:13744   */\n              mstore\n                /* \"#utility.yul\":13451:13751   */\n              pop\n              jump\t// out\n                /* \"#utility.yul\":13757:14123   */\n            tag_159:\n                /* \"#utility.yul\":13899:13902   */\n              0x00\n                /* \"#utility.yul\":13920:13987   */\n              tag_304\n                /* \"#utility.yul\":13984:13986   */\n              0x4c\n                /* \"#utility.yul\":13979:13982   */\n              dup4\n                /* \"#utility.yul\":13920:13987   */\n              tag_132\n              jump\t// in\n            tag_304:\n                /* \"#utility.yul\":13913:13987   */\n              swap2\n              pop\n                /* \"#utility.yul\":13996:14089   */\n              tag_305\n                /* \"#utility.yul\":14085:14088   */\n              dup3\n                /* \"#utility.yul\":13996:14089   */\n              tag_158\n              jump\t// in\n            tag_305:\n                /* \"#utility.yul\":14114:14116   */\n              0x60\n                /* \"#utility.yul\":14109:14112   */\n              dup3\n                /* \"#utility.yul\":14105:14117   */\n              add\n                /* \"#utility.yul\":14098:14117   */\n              swap1\n              pop\n                /* \"#utility.yul\":13757:14123   */\n              swap2\n              swap1\n              pop\n              jump\t// out\n                /* \"#utility.yul\":14129:14548   */\n            tag_102:\n                /* \"#utility.yul\":14295:14299   */\n              0x00\n                /* \"#utility.yul\":14333:14335   */\n              0x20\n                /* \"#utility.yul\":14322:14331   */\n              dup3\n                /* \"#utility.yul\":14318:14336   */\n              add\n                /* \"#utility.yul\":14310:14336   */\n              swap1\n              pop\n                /* \"#utility.yul\":14382:14391   */\n              dup2\n                /* \"#utility.yul\":14376:14380   */\n              dup2\n                /* \"#utility.yul\":14372:14392   */\n              sub\n                /* \"#utility.yul\":14368:14369   */\n              0x00\n                /* \"#utility.yul\":14357:14366   */\n              dup4\n                /* \"#utility.yul\":14353:14370   */\n              add\n                /* \"#utility.yul\":14346:14393   */\n              mstore\n                /* \"#utility.yul\":14410:14541   */\n              tag_307\n                /* \"#utility.yul\":14536:14540   */\n              dup2\n                /* \"#utility.yul\":14410:14541   */\n              tag_159\n              jump\t// in\n            tag_307:\n                /* \"#utility.yul\":14402:14541   */\n              swap1\n              pop\n                /* \"#utility.yul\":14129:14548   */\n              swap2\n              swap1\n              pop\n              jump\t// out\n                /* \"#utility.yul\":14554:14787   */\n            tag_160:\n                /* \"#utility.yul\":14694:14728   */\n              0x596f75206861766520616c726561647920766f74656420746f20617070726f76\n                /* \"#utility.yul\":14690:14691   */\n              0x00\n                /* \"#utility.yul\":14682:14688   */\n              dup3\n                /* \"#utility.yul\":14678:14692   */\n              add\n                /* \"#utility.yul\":14671:14729   */\n              mstore\n                /* \"#utility.yul\":14763:14779   */\n              0x6520746869732072657175657374000000000000000000000000000000000000\n                /* \"#utility.yul\":14758:14760   */\n              0x20\n                /* \"#utility.yul\":14750:14756   */\n              dup3\n                /* \"#utility.yul\":14746:14761   */\n              add\n                /* \"#utility.yul\":14739:14780   */\n              mstore\n                /* \"#utility.yul\":14554:14787   */\n              pop\n              jump\t// out\n                /* \"#utility.yul\":14793:15159   */\n            tag_161:\n                /* \"#utility.yul\":14935:14938   */\n              0x00\n                /* \"#utility.yul\":14956:15023   */\n              tag_310\n                /* \"#utility.yul\":15020:15022   */\n              0x2e\n                /* \"#utility.yul\":15015:15018   */\n              dup4\n                /* \"#utility.yul\":14956:15023   */\n              tag_132\n              jump\t// in\n            tag_310:\n                /* \"#utility.yul\":14949:15023   */\n              swap2\n              pop\n                /* \"#utility.yul\":15032:15125   */\n              tag_311\n                /* \"#utility.yul\":15121:15124   */\n              dup3\n                /* \"#utility.yul\":15032:15125   */\n              tag_160\n              jump\t// in\n            tag_311:\n                /* \"#utility.yul\":15150:15152   */\n              0x40\n                /* \"#utility.yul\":15145:15148   */\n              dup3\n                /* \"#utility.yul\":15141:15153   */\n              add\n                /* \"#utility.yul\":15134:15153   */\n              swap1\n              pop\n                /* \"#utility.yul\":14793:15159   */\n              swap2\n              swap1\n              pop\n              jump\t// out\n                /* \"#utility.yul\":15165:15584   */\n            tag_105:\n                /* \"#utility.yul\":15331:15335   */\n              0x00\n                /* \"#utility.yul\":15369:15371   */\n              0x20\n                /* \"#utility.yul\":15358:15367   */\n              dup3\n                /* \"#utility.yul\":15354:15372   */\n              add\n                /* \"#utility.yul\":15346:15372   */\n              swap1\n              pop\n                /* \"#utility.yul\":15418:15427   */\n              dup2\n                /* \"#utility.yul\":15412:15416   */\n              dup2\n                /* \"#utility.yul\":15408:15428   */\n              sub\n                /* \"#utility.yul\":15404:15405   */\n              0x00\n                /* \"#utility.yul\":15393:15402   */\n              dup4\n                /* \"#utility.yul\":15389:15406   */\n              add\n                /* \"#utility.yul\":15382:15429   */\n              mstore\n                /* \"#utility.yul\":15446:15577   */\n              tag_313\n                /* \"#utility.yul\":15572:15576   */\n              dup2\n                /* \"#utility.yul\":15446:15577   */\n              tag_161\n              jump\t// in\n            tag_313:\n                /* \"#utility.yul\":15438:15577   */\n              swap1\n              pop\n                /* \"#utility.yul\":15165:15584   */\n              swap2\n              swap1\n              pop\n              jump\t// out\n\n            auxdata: 0xa2646970667358221220f26b3e7777d4e72513cd9ba94f4d28b37fb12bab22ec7c6b6f6d413938710c2b64736f6c634300080e0033\n        }\n    }\n\n    auxdata: 0xa2646970667358221220c7461c295ecf7102300457be6a7b0ec32789f94f96f287d0c579379e08efae8064736f6c634300080e0033\n}\n","bytecode":{"linkReferences":{},"object":"608060405234801561001057600080fd5b5061190b806100206000396000f3fe608060405234801561001057600080fd5b50600436106100415760003560e01c8063339d50a5146100465780634acb9d4f14610076578063a3303a7514610094575b600080fd5b610060600480360381019061005b9190610266565b6100b0565b60405161006d9190610312565b60405180910390f35b61007e6100ef565b60405161008b91906103eb565b60405180910390f35b6100ae60048036038101906100a99190610266565b61017d565b005b600081815481106100c057600080fd5b906000526020600020016000915054906101000a900473ffffffffffffffffffffffffffffffffffffffff1681565b6060600080548060200260200160405190810160405280929190818152602001828054801561017357602002820191906000526020600020905b8160009054906101000a900473ffffffffffffffffffffffffffffffffffffffff1673ffffffffffffffffffffffffffffffffffffffff1681526020019060010190808311610129575b5050505050905090565b6000813360405161018d9061021e565b61019892919061043d565b604051809103906000f0801580156101b4573d6000803e3d6000fd5b5090506000819080600181540180825580915050600190039060005260206000200160009091909190916101000a81548173ffffffffffffffffffffffffffffffffffffffff021916908373ffffffffffffffffffffffffffffffffffffffff1602179055505050565b61146f8061046783390190565b600080fd5b6000819050919050565b61024381610230565b811461024e57600080fd5b50565b6000813590506102608161023a565b92915050565b60006020828403121561027c5761027b61022b565b5b600061028a84828501610251565b91505092915050565b600073ffffffffffffffffffffffffffffffffffffffff82169050919050565b6000819050919050565b60006102d86102d36102ce84610293565b6102b3565b610293565b9050919050565b60006102ea826102bd565b9050919050565b60006102fc826102df565b9050919050565b61030c816102f1565b82525050565b60006020820190506103276000830184610303565b92915050565b600081519050919050565b600082825260208201905092915050565b6000819050602082019050919050565b610362816102f1565b82525050565b60006103748383610359565b60208301905092915050565b6000602082019050919050565b60006103988261032d565b6103a28185610338565b93506103ad83610349565b8060005b838110156103de5781516103c58882610368565b97506103d083610380565b9250506001810190506103b1565b5085935050505092915050565b60006020820190508181036000830152610405818461038d565b905092915050565b61041681610230565b82525050565b600061042782610293565b9050919050565b6104378161041c565b82525050565b6000604082019050610452600083018561040d565b61045f602083018461042e565b939250505056fe60806040523480156200001157600080fd5b506040516200146f3803806200146f83398181016040528101906200003791906200012b565b806000806101000a81548173ffffffffffffffffffffffffffffffffffffffff021916908373ffffffffffffffffffffffffffffffffffffffff16021790555081600181905550505062000172565b600080fd5b6000819050919050565b620000a0816200008b565b8114620000ac57600080fd5b50565b600081519050620000c08162000095565b92915050565b600073ffffffffffffffffffffffffffffffffffffffff82169050919050565b6000620000f382620000c6565b9050919050565b6200010581620000e6565b81146200011157600080fd5b50565b6000815190506200012581620000fa565b92915050565b6000806040838503121562000145576200014462000086565b5b60006200015585828601620000af565b9250506020620001688582860162000114565b9150509250929050565b6112ed80620001826000396000f3fe60806040526004361061009c5760003560e01c806381d12c581161006457806381d12c581461018c57806382fde093146101cd5780638a9cfd55146101f8578063937e09b114610221578063d7bb99ba1461024c578063d7d1bbdb146102565761009c565b806303441006146100a15780630a144391146100ca5780633410452a146101075780634051ddac14610132578063481c6a7514610161575b600080fd5b3480156100ad57600080fd5b506100c860048036038101906100c39190610a07565b61027f565b005b3480156100d657600080fd5b506100f160048036038101906100ec9190610a92565b610424565b6040516100fe9190610ada565b60405180910390f35b34801561011357600080fd5b5061011c610444565b6040516101299190610b04565b60405180910390f35b34801561013e57600080fd5b5061014761044e565b604051610158959493929190610b2e565b60405180910390f35b34801561016d57600080fd5b50610176610492565b6040516101839190610b81565b60405180910390f35b34801561019857600080fd5b506101b360048036038101906101ae9190610a07565b6104b6565b6040516101c4959493929190610c56565b60405180910390f35b3480156101d957600080fd5b506101e26105a1565b6040516101ef9190610b04565b60405180910390f35b34801561020457600080fd5b5061021f600480360381019061021a9190610e11565b6105a7565b005b34801561022d57600080fd5b506102366106b4565b6040516102439190610b04565b60405180910390f35b6102546106ba565b005b34801561026257600080fd5b5061027d60048036038101906102789190610a07565b610770565b005b60008054906101000a900473ffffffffffffffffffffffffffffffffffffffff1673ffffffffffffffffffffffffffffffffffffffff163373ffffffffffffffffffffffffffffffffffffffff16146102d757600080fd5b600060056000838152602001908152602001600020905060026003546102fd9190610ede565b816003015411610342576040517f08c379a000000000000000000000000000000000000000000000000000000000815260040161033990610f81565b60405180910390fd5b8060020160149054906101000a900460ff1615610394576040517f08c379a000000000000000000000000000000000000000000000000000000000815260040161038b90611013565b60405180910390fd5b8060020160009054906101000a900473ffffffffffffffffffffffffffffffffffffffff1673ffffffffffffffffffffffffffffffffffffffff166108fc82600101549081150290604051600060405180830381858888f19350505050158015610402573d6000803e3d6000fd5b5060018160020160146101000a81548160ff0219169083151502179055505050565b60026020528060005260406000206000915054906101000a900460ff1681565b6000600454905090565b60008060008060006001544760045460035460008054906101000a900473ffffffffffffffffffffffffffffffffffffffff16945094509450945094509091929394565b60008054906101000a900473ffffffffffffffffffffffffffffffffffffffff1681565b60056020528060005260406000206000915090508060000180546104d990611062565b80601f016020809104026020016040519081016040528092919081815260200182805461050590611062565b80156105525780601f1061052757610100808354040283529160200191610552565b820191906000526020600020905b81548152906001019060200180831161053557829003601f168201915b5050505050908060010154908060020160009054906101000a900473ffffffffffffffffffffffffffffffffffffffff16908060020160149054906101000a900460ff16908060030154905085565b60035481565b60008054906101000a900473ffffffffffffffffffffffffffffffffffffffff1673ffffffffffffffffffffffffffffffffffffffff163373ffffffffffffffffffffffffffffffffffffffff16146105ff57600080fd5b6000600560006004600081548092919061061890611093565b91905055815260200190815260200160002090508381600001908051906020019061064492919061091a565b50828160010181905550818160020160006101000a81548173ffffffffffffffffffffffffffffffffffffffff021916908373ffffffffffffffffffffffffffffffffffffffff16021790555060008160020160146101000a81548160ff02191690831515021790555050505050565b60015481565b60015434116106fe576040517f08c379a00000000000000000000000000000000000000000000000000000000081526004016106f59061114d565b60405180910390fd5b6001600260003373ffffffffffffffffffffffffffffffffffffffff1673ffffffffffffffffffffffffffffffffffffffff16815260200190815260200160002060006101000a81548160ff0219169083151502179055506003600081548092919061076990611093565b9190505550565b6000600560008381526020019081526020016000209050600260003373ffffffffffffffffffffffffffffffffffffffff1673ffffffffffffffffffffffffffffffffffffffff16815260200190815260200160002060009054906101000a900460ff16610813576040517f08c379a000000000000000000000000000000000000000000000000000000000815260040161080a90611205565b60405180910390fd5b8060040160003373ffffffffffffffffffffffffffffffffffffffff1673ffffffffffffffffffffffffffffffffffffffff16815260200190815260200160002060009054906101000a900460ff16156108a2576040517f08c379a000000000000000000000000000000000000000000000000000000000815260040161089990611297565b60405180910390fd5b60018160040160003373ffffffffffffffffffffffffffffffffffffffff1673ffffffffffffffffffffffffffffffffffffffff16815260200190815260200160002060006101000a81548160ff02191690831515021790555080600301600081548092919061091190611093565b91905055505050565b82805461092690611062565b90600052602060002090601f016020900481019282610948576000855561098f565b82601f1061096157805160ff191683800117855561098f565b8280016001018555821561098f579182015b8281111561098e578251825591602001919060010190610973565b5b50905061099c91906109a0565b5090565b5b808211156109b95760008160009055506001016109a1565b5090565b6000604051905090565b600080fd5b600080fd5b6000819050919050565b6109e4816109d1565b81146109ef57600080fd5b50565b600081359050610a01816109db565b92915050565b600060208284031215610a1d57610a1c6109c7565b5b6000610a2b848285016109f2565b91505092915050565b600073ffffffffffffffffffffffffffffffffffffffff82169050919050565b6000610a5f82610a34565b9050919050565b610a6f81610a54565b8114610a7a57600080fd5b50565b600081359050610a8c81610a66565b92915050565b600060208284031215610aa857610aa76109c7565b5b6000610ab684828501610a7d565b91505092915050565b60008115159050919050565b610ad481610abf565b82525050565b6000602082019050610aef6000830184610acb565b92915050565b610afe816109d1565b82525050565b6000602082019050610b196000830184610af5565b92915050565b610b2881610a54565b82525050565b600060a082019050610b436000830188610af5565b610b506020830187610af5565b610b5d6040830186610af5565b610b6a6060830185610af5565b610b776080830184610b1f565b9695505050505050565b6000602082019050610b966000830184610b1f565b92915050565b600081519050919050565b600082825260208201905092915050565b60005b83811015610bd6578082015181840152602081019050610bbb565b83811115610be5576000848401525b50505050565b6000601f19601f8301169050919050565b6000610c0782610b9c565b610c118185610ba7565b9350610c21818560208601610bb8565b610c2a81610beb565b840191505092915050565b6000610c4082610a34565b9050919050565b610c5081610c35565b82525050565b600060a0820190508181036000830152610c708188610bfc565b9050610c7f6020830187610af5565b610c8c6040830186610c47565b610c996060830185610acb565b610ca66080830184610af5565b9695505050505050565b600080fd5b600080fd5b7f4e487b7100000000000000000000000000000000000000000000000000000000600052604160045260246000fd5b610cf282610beb565b810181811067ffffffffffffffff82111715610d1157610d10610cba565b5b80604052505050565b6000610d246109bd565b9050610d308282610ce9565b919050565b600067ffffffffffffffff821115610d5057610d4f610cba565b5b610d5982610beb565b9050602081019050919050565b82818337600083830152505050565b6000610d88610d8384610d35565b610d1a565b905082815260208101848484011115610da457610da3610cb5565b5b610daf848285610d66565b509392505050565b600082601f830112610dcc57610dcb610cb0565b5b8135610ddc848260208601610d75565b91505092915050565b610dee81610c35565b8114610df957600080fd5b50565b600081359050610e0b81610de5565b92915050565b600080600060608486031215610e2a57610e296109c7565b5b600084013567ffffffffffffffff811115610e4857610e476109cc565b5b610e5486828701610db7565b9350506020610e65868287016109f2565b9250506040610e7686828701610dfc565b9150509250925092565b7f4e487b7100000000000000000000000000000000000000000000000000000000600052601260045260246000fd5b7f4e487b7100000000000000000000000000000000000000000000000000000000600052601160045260246000fd5b6000610ee9826109d1565b9150610ef4836109d1565b925082610f0457610f03610e80565b5b828204905092915050565b7f546869732072657175657374206e65656473206d6f726520617070726f76616c60008201527f73206265666f72652069742063616e2062652066696e616c697a65642e000000602082015250565b6000610f6b603d83610ba7565b9150610f7682610f0f565b604082019050919050565b60006020820190508181036000830152610f9a81610f5e565b9050919050565b7f5468697320726571756573742068617320616c7265616479206265656e20666960008201527f6e616c697a656400000000000000000000000000000000000000000000000000602082015250565b6000610ffd602783610ba7565b915061100882610fa1565b604082019050919050565b6000602082019050818103600083015261102c81610ff0565b9050919050565b7f4e487b7100000000000000000000000000000000000000000000000000000000600052602260045260246000fd5b6000600282049050600182168061107a57607f821691505b60208210810361108d5761108c611033565b5b50919050565b600061109e826109d1565b91507fffffffffffffffffffffffffffffffffffffffffffffffffffffffffffffffff82036110d0576110cf610eaf565b5b600182019050919050565b7f54686520616d6f756e7420656e7465726564206973206c657373207468616e2060008201527f746865206d696e696d756d20636f6e747269627574696f6e2e00000000000000602082015250565b6000611137603983610ba7565b9150611142826110db565b604082019050919050565b600060208201905081810360008301526111668161112a565b9050919050565b7f5065726d697373696f6e2064656e69656421204f6e6c7920636f6e747269627560008201527f746f72732063616e20617070726f76652061207370656369666963207061796d60208201527f656e7420726571756573742e0000000000000000000000000000000000000000604082015250565b60006111ef604c83610ba7565b91506111fa8261116d565b606082019050919050565b6000602082019050818103600083015261121e816111e2565b9050919050565b7f596f75206861766520616c726561647920766f74656420746f20617070726f7660008201527f6520746869732072657175657374000000000000000000000000000000000000602082015250565b6000611281602e83610ba7565b915061128c82611225565b604082019050919050565b600060208201905081810360008301526112b081611274565b905091905056fea2646970667358221220f26b3e7777d4e72513cd9ba94f4d28b37fb12bab22ec7c6b6f6d413938710c2b64736f6c634300080e0033a2646970667358221220c7461c295ecf7102300457be6a7b0ec32789f94f96f287d0c579379e08efae8064736f6c634300080e0033","opcodes":"PUSH1 0x80 PUSH1 0x40 MSTORE CALLVALUE DUP1 ISZERO PUSH2 0x10 JUMPI PUSH1 0x0 DUP1 REVERT JUMPDEST POP PUSH2 0x190B DUP1 PUSH2 0x20 PUSH1 0x0 CODECOPY PUSH1 0x0 RETURN INVALID PUSH1 0x80 PUSH1 0x40 MSTORE CALLVALUE DUP1 ISZERO PUSH2 0x10 JUMPI PUSH1 0x0 DUP1 REVERT JUMPDEST POP PUSH1 0x4 CALLDATASIZE LT PUSH2 0x41 JUMPI PUSH1 0x0 CALLDATALOAD PUSH1 0xE0 SHR DUP1 PUSH4 0x339D50A5 EQ PUSH2 0x46 JUMPI DUP1 PUSH4 0x4ACB9D4F EQ PUSH2 0x76 JUMPI DUP1 PUSH4 0xA3303A75 EQ PUSH2 0x94 JUMPI JUMPDEST PUSH1 0x0 DUP1 REVERT JUMPDEST PUSH2 0x60 PUSH1 0x4 DUP1 CALLDATASIZE SUB DUP2 ADD SWAP1 PUSH2 0x5B SWAP2 SWAP1 PUSH2 0x266 JUMP JUMPDEST PUSH2 0xB0 JUMP JUMPDEST PUSH1 0x40 MLOAD PUSH2 0x6D SWAP2 SWAP1 PUSH2 0x312 JUMP JUMPDEST PUSH1 0x40 MLOAD DUP1 SWAP2 SUB SWAP1 RETURN JUMPDEST PUSH2 0x7E PUSH2 0xEF JUMP JUMPDEST PUSH1 0x40 MLOAD PUSH2 0x8B SWAP2 SWAP1 PUSH2 0x3EB JUMP JUMPDEST PUSH1 0x40 MLOAD DUP1 SWAP2 SUB SWAP1 RETURN JUMPDEST PUSH2 0xAE PUSH1 0x4 DUP1 CALLDATASIZE SUB DUP2 ADD SWAP1 PUSH2 0xA9 SWAP2 SWAP1 PUSH2 0x266 JUMP JUMPDEST PUSH2 0x17D JUMP JUMPDEST STOP JUMPDEST PUSH1 0x0 DUP2 DUP2 SLOAD DUP2 LT PUSH2 0xC0 JUMPI PUSH1 0x0 DUP1 REVERT JUMPDEST SWAP1 PUSH1 0x0 MSTORE PUSH1 0x20 PUSH1 0x0 KECCAK256 ADD PUSH1 0x0 SWAP2 POP SLOAD SWAP1 PUSH2 0x100 EXP SWAP1 DIV PUSH20 0xFFFFFFFFFFFFFFFFFFFFFFFFFFFFFFFFFFFFFFFF AND DUP2 JUMP JUMPDEST PUSH1 0x60 PUSH1 0x0 DUP1 SLOAD DUP1 PUSH1 0x20 MUL PUSH1 0x20 ADD PUSH1 0x40 MLOAD SWAP1 DUP2 ADD PUSH1 0x40 MSTORE DUP1 SWAP3 SWAP2 SWAP1 DUP2 DUP2 MSTORE PUSH1 0x20 ADD DUP3 DUP1 SLOAD DUP1 ISZERO PUSH2 0x173 JUMPI PUSH1 0x20 MUL DUP3 ADD SWAP2 SWAP1 PUSH1 0x0 MSTORE PUSH1 0x20 PUSH1 0x0 KECCAK256 SWAP1 JUMPDEST DUP2 PUSH1 0x0 SWAP1 SLOAD SWAP1 PUSH2 0x100 EXP SWAP1 DIV PUSH20 0xFFFFFFFFFFFFFFFFFFFFFFFFFFFFFFFFFFFFFFFF AND PUSH20 0xFFFFFFFFFFFFFFFFFFFFFFFFFFFFFFFFFFFFFFFF AND DUP2 MSTORE PUSH1 0x20 ADD SWAP1 PUSH1 0x1 ADD SWAP1 DUP1 DUP4 GT PUSH2 0x129 JUMPI JUMPDEST POP POP POP POP POP SWAP1 POP SWAP1 JUMP JUMPDEST PUSH1 0x0 DUP2 CALLER PUSH1 0x40 MLOAD PUSH2 0x18D SWAP1 PUSH2 0x21E JUMP JUMPDEST PUSH2 0x198 SWAP3 SWAP2 SWAP1 PUSH2 0x43D JUMP JUMPDEST PUSH1 0x40 MLOAD DUP1 SWAP2 SUB SWAP1 PUSH1 0x0 CREATE DUP1 ISZERO DUP1 ISZERO PUSH2 0x1B4 JUMPI RETURNDATASIZE PUSH1 0x0 DUP1 RETURNDATACOPY RETURNDATASIZE PUSH1 0x0 REVERT JUMPDEST POP SWAP1 POP PUSH1 0x0 DUP2 SWAP1 DUP1 PUSH1 0x1 DUP2 SLOAD ADD DUP1 DUP3 SSTORE DUP1 SWAP2 POP POP PUSH1 0x1 SWAP1 SUB SWAP1 PUSH1 0x0 MSTORE PUSH1 0x20 PUSH1 0x0 KECCAK256 ADD PUSH1 0x0 SWAP1 SWAP2 SWAP1 SWAP2 SWAP1 SWAP2 PUSH2 0x100 EXP DUP2 SLOAD DUP2 PUSH20 0xFFFFFFFFFFFFFFFFFFFFFFFFFFFFFFFFFFFFFFFF MUL NOT AND SWAP1 DUP4 PUSH20 0xFFFFFFFFFFFFFFFFFFFFFFFFFFFFFFFFFFFFFFFF AND MUL OR SWAP1 SSTORE POP POP POP JUMP JUMPDEST PUSH2 0x146F DUP1 PUSH2 0x467 DUP4 CODECOPY ADD SWAP1 JUMP JUMPDEST PUSH1 0x0 DUP1 REVERT JUMPDEST PUSH1 0x0 DUP2 SWAP1 POP SWAP2 SWAP1 POP JUMP JUMPDEST PUSH2 0x243 DUP2 PUSH2 0x230 JUMP JUMPDEST DUP2 EQ PUSH2 0x24E JUMPI PUSH1 0x0 DUP1 REVERT JUMPDEST POP JUMP JUMPDEST PUSH1 0x0 DUP2 CALLDATALOAD SWAP1 POP PUSH2 0x260 DUP2 PUSH2 0x23A JUMP JUMPDEST SWAP3 SWAP2 POP POP JUMP JUMPDEST PUSH1 0x0 PUSH1 0x20 DUP3 DUP5 SUB SLT ISZERO PUSH2 0x27C JUMPI PUSH2 0x27B PUSH2 0x22B JUMP JUMPDEST JUMPDEST PUSH1 0x0 PUSH2 0x28A DUP5 DUP3 DUP6 ADD PUSH2 0x251 JUMP JUMPDEST SWAP2 POP POP SWAP3 SWAP2 POP POP JUMP JUMPDEST PUSH1 0x0 PUSH20 0xFFFFFFFFFFFFFFFFFFFFFFFFFFFFFFFFFFFFFFFF DUP3 AND SWAP1 POP SWAP2 SWAP1 POP JUMP JUMPDEST PUSH1 0x0 DUP2 SWAP1 POP SWAP2 SWAP1 POP JUMP JUMPDEST PUSH1 0x0 PUSH2 0x2D8 PUSH2 0x2D3 PUSH2 0x2CE DUP5 PUSH2 0x293 JUMP JUMPDEST PUSH2 0x2B3 JUMP JUMPDEST PUSH2 0x293 JUMP JUMPDEST SWAP1 POP SWAP2 SWAP1 POP JUMP JUMPDEST PUSH1 0x0 PUSH2 0x2EA DUP3 PUSH2 0x2BD JUMP JUMPDEST SWAP1 POP SWAP2 SWAP1 POP JUMP JUMPDEST PUSH1 0x0 PUSH2 0x2FC DUP3 PUSH2 0x2DF JUMP JUMPDEST SWAP1 POP SWAP2 SWAP1 POP JUMP JUMPDEST PUSH2 0x30C DUP2 PUSH2 0x2F1 JUMP JUMPDEST DUP3 MSTORE POP POP JUMP JUMPDEST PUSH1 0x0 PUSH1 0x20 DUP3 ADD SWAP1 POP PUSH2 0x327 PUSH1 0x0 DUP4 ADD DUP5 PUSH2 0x303 JUMP JUMPDEST SWAP3 SWAP2 POP POP JUMP JUMPDEST PUSH1 0x0 DUP2 MLOAD SWAP1 POP SWAP2 SWAP1 POP JUMP JUMPDEST PUSH1 0x0 DUP3 DUP3 MSTORE PUSH1 0x20 DUP3 ADD SWAP1 POP SWAP3 SWAP2 POP POP JUMP JUMPDEST PUSH1 0x0 DUP2 SWAP1 POP PUSH1 0x20 DUP3 ADD SWAP1 POP SWAP2 SWAP1 POP JUMP JUMPDEST PUSH2 0x362 DUP2 PUSH2 0x2F1 JUMP JUMPDEST DUP3 MSTORE POP POP JUMP JUMPDEST PUSH1 0x0 PUSH2 0x374 DUP4 DUP4 PUSH2 0x359 JUMP JUMPDEST PUSH1 0x20 DUP4 ADD SWAP1 POP SWAP3 SWAP2 POP POP JUMP JUMPDEST PUSH1 0x0 PUSH1 0x20 DUP3 ADD SWAP1 POP SWAP2 SWAP1 POP JUMP JUMPDEST PUSH1 0x0 PUSH2 0x398 DUP3 PUSH2 0x32D JUMP JUMPDEST PUSH2 0x3A2 DUP2 DUP6 PUSH2 0x338 JUMP JUMPDEST SWAP4 POP PUSH2 0x3AD DUP4 PUSH2 0x349 JUMP JUMPDEST DUP1 PUSH1 0x0 JUMPDEST DUP4 DUP2 LT ISZERO PUSH2 0x3DE JUMPI DUP2 MLOAD PUSH2 0x3C5 DUP9 DUP3 PUSH2 0x368 JUMP JUMPDEST SWAP8 POP PUSH2 0x3D0 DUP4 PUSH2 0x380 JUMP JUMPDEST SWAP3 POP POP PUSH1 0x1 DUP2 ADD SWAP1 POP PUSH2 0x3B1 JUMP JUMPDEST POP DUP6 SWAP4 POP POP POP POP SWAP3 SWAP2 POP POP JUMP JUMPDEST PUSH1 0x0 PUSH1 0x20 DUP3 ADD SWAP1 POP DUP2 DUP2 SUB PUSH1 0x0 DUP4 ADD MSTORE PUSH2 0x405 DUP2 DUP5 PUSH2 0x38D JUMP JUMPDEST SWAP1 POP SWAP3 SWAP2 POP POP JUMP JUMPDEST PUSH2 0x416 DUP2 PUSH2 0x230 JUMP JUMPDEST DUP3 MSTORE POP POP JUMP JUMPDEST PUSH1 0x0 PUSH2 0x427 DUP3 PUSH2 0x293 JUMP JUMPDEST SWAP1 POP SWAP2 SWAP1 POP JUMP JUMPDEST PUSH2 0x437 DUP2 PUSH2 0x41C JUMP JUMPDEST DUP3 MSTORE POP POP JUMP JUMPDEST PUSH1 0x0 PUSH1 0x40 DUP3 ADD SWAP1 POP PUSH2 0x452 PUSH1 0x0 DUP4 ADD DUP6 PUSH2 0x40D JUMP JUMPDEST PUSH2 0x45F PUSH1 0x20 DUP4 ADD DUP5 PUSH2 0x42E JUMP JUMPDEST SWAP4 SWAP3 POP POP POP JUMP INVALID PUSH1 0x80 PUSH1 0x40 MSTORE CALLVALUE DUP1 ISZERO PUSH3 0x11 JUMPI PUSH1 0x0 DUP1 REVERT JUMPDEST POP PUSH1 0x40 MLOAD PUSH3 0x146F CODESIZE SUB DUP1 PUSH3 0x146F DUP4 CODECOPY DUP2 DUP2 ADD PUSH1 0x40 MSTORE DUP2 ADD SWAP1 PUSH3 0x37 SWAP2 SWAP1 PUSH3 0x12B JUMP JUMPDEST DUP1 PUSH1 0x0 DUP1 PUSH2 0x100 EXP DUP2 SLOAD DUP2 PUSH20 0xFFFFFFFFFFFFFFFFFFFFFFFFFFFFFFFFFFFFFFFF MUL NOT AND SWAP1 DUP4 PUSH20 0xFFFFFFFFFFFFFFFFFFFFFFFFFFFFFFFFFFFFFFFF AND MUL OR SWAP1 SSTORE POP DUP2 PUSH1 0x1 DUP2 SWAP1 SSTORE POP POP POP PUSH3 0x172 JUMP JUMPDEST PUSH1 0x0 DUP1 REVERT JUMPDEST PUSH1 0x0 DUP2 SWAP1 POP SWAP2 SWAP1 POP JUMP JUMPDEST PUSH3 0xA0 DUP2 PUSH3 0x8B JUMP JUMPDEST DUP2 EQ PUSH3 0xAC JUMPI PUSH1 0x0 DUP1 REVERT JUMPDEST POP JUMP JUMPDEST PUSH1 0x0 DUP2 MLOAD SWAP1 POP PUSH3 0xC0 DUP2 PUSH3 0x95 JUMP JUMPDEST SWAP3 SWAP2 POP POP JUMP JUMPDEST PUSH1 0x0 PUSH20 0xFFFFFFFFFFFFFFFFFFFFFFFFFFFFFFFFFFFFFFFF DUP3 AND SWAP1 POP SWAP2 SWAP1 POP JUMP JUMPDEST PUSH1 0x0 PUSH3 0xF3 DUP3 PUSH3 0xC6 JUMP JUMPDEST SWAP1 POP SWAP2 SWAP1 POP JUMP JUMPDEST PUSH3 0x105 DUP2 PUSH3 0xE6 JUMP JUMPDEST DUP2 EQ PUSH3 0x111 JUMPI PUSH1 0x0 DUP1 REVERT JUMPDEST POP JUMP JUMPDEST PUSH1 0x0 DUP2 MLOAD SWAP1 POP PUSH3 0x125 DUP2 PUSH3 0xFA JUMP JUMPDEST SWAP3 SWAP2 POP POP JUMP JUMPDEST PUSH1 0x0 DUP1 PUSH1 0x40 DUP4 DUP6 SUB SLT ISZERO PUSH3 0x145 JUMPI PUSH3 0x144 PUSH3 0x86 JUMP JUMPDEST JUMPDEST PUSH1 0x0 PUSH3 0x155 DUP6 DUP3 DUP7 ADD PUSH3 0xAF JUMP JUMPDEST SWAP3 POP POP PUSH1 0x20 PUSH3 0x168 DUP6 DUP3 DUP7 ADD PUSH3 0x114 JUMP JUMPDEST SWAP2 POP POP SWAP3 POP SWAP3 SWAP1 POP JUMP JUMPDEST PUSH2 0x12ED DUP1 PUSH3 0x182 PUSH1 0x0 CODECOPY PUSH1 0x0 RETURN INVALID PUSH1 0x80 PUSH1 0x40 MSTORE PUSH1 0x4 CALLDATASIZE LT PUSH2 0x9C JUMPI PUSH1 0x0 CALLDATALOAD PUSH1 0xE0 SHR DUP1 PUSH4 0x81D12C58 GT PUSH2 0x64 JUMPI DUP1 PUSH4 0x81D12C58 EQ PUSH2 0x18C JUMPI DUP1 PUSH4 0x82FDE093 EQ PUSH2 0x1CD JUMPI DUP1 PUSH4 0x8A9CFD55 EQ PUSH2 0x1F8 JUMPI DUP1 PUSH4 0x937E09B1 EQ PUSH2 0x221 JUMPI DUP1 PUSH4 0xD7BB99BA EQ PUSH2 0x24C JUMPI DUP1 PUSH4 0xD7D1BBDB EQ PUSH2 0x256 JUMPI PUSH2 0x9C JUMP JUMPDEST DUP1 PUSH4 0x3441006 EQ PUSH2 0xA1 JUMPI DUP1 PUSH4 0xA144391 EQ PUSH2 0xCA JUMPI DUP1 PUSH4 0x3410452A EQ PUSH2 0x107 JUMPI DUP1 PUSH4 0x4051DDAC EQ PUSH2 0x132 JUMPI DUP1 PUSH4 0x481C6A75 EQ PUSH2 0x161 JUMPI JUMPDEST PUSH1 0x0 DUP1 REVERT JUMPDEST CALLVALUE DUP1 ISZERO PUSH2 0xAD JUMPI PUSH1 0x0 DUP1 REVERT JUMPDEST POP PUSH2 0xC8 PUSH1 0x4 DUP1 CALLDATASIZE SUB DUP2 ADD SWAP1 PUSH2 0xC3 SWAP2 SWAP1 PUSH2 0xA07 JUMP JUMPDEST PUSH2 0x27F JUMP JUMPDEST STOP JUMPDEST CALLVALUE DUP1 ISZERO PUSH2 0xD6 JUMPI PUSH1 0x0 DUP1 REVERT JUMPDEST POP PUSH2 0xF1 PUSH1 0x4 DUP1 CALLDATASIZE SUB DUP2 ADD SWAP1 PUSH2 0xEC SWAP2 SWAP1 PUSH2 0xA92 JUMP JUMPDEST PUSH2 0x424 JUMP JUMPDEST PUSH1 0x40 MLOAD PUSH2 0xFE SWAP2 SWAP1 PUSH2 0xADA JUMP JUMPDEST PUSH1 0x40 MLOAD DUP1 SWAP2 SUB SWAP1 RETURN JUMPDEST CALLVALUE DUP1 ISZERO PUSH2 0x113 JUMPI PUSH1 0x0 DUP1 REVERT JUMPDEST POP PUSH2 0x11C PUSH2 0x444 JUMP JUMPDEST PUSH1 0x40 MLOAD PUSH2 0x129 SWAP2 SWAP1 PUSH2 0xB04 JUMP JUMPDEST PUSH1 0x40 MLOAD DUP1 SWAP2 SUB SWAP1 RETURN JUMPDEST CALLVALUE DUP1 ISZERO PUSH2 0x13E JUMPI PUSH1 0x0 DUP1 REVERT JUMPDEST POP PUSH2 0x147 PUSH2 0x44E JUMP JUMPDEST PUSH1 0x40 MLOAD PUSH2 0x158 SWAP6 SWAP5 SWAP4 SWAP3 SWAP2 SWAP1 PUSH2 0xB2E JUMP JUMPDEST PUSH1 0x40 MLOAD DUP1 SWAP2 SUB SWAP1 RETURN JUMPDEST CALLVALUE DUP1 ISZERO PUSH2 0x16D JUMPI PUSH1 0x0 DUP1 REVERT JUMPDEST POP PUSH2 0x176 PUSH2 0x492 JUMP JUMPDEST PUSH1 0x40 MLOAD PUSH2 0x183 SWAP2 SWAP1 PUSH2 0xB81 JUMP JUMPDEST PUSH1 0x40 MLOAD DUP1 SWAP2 SUB SWAP1 RETURN JUMPDEST CALLVALUE DUP1 ISZERO PUSH2 0x198 JUMPI PUSH1 0x0 DUP1 REVERT JUMPDEST POP PUSH2 0x1B3 PUSH1 0x4 DUP1 CALLDATASIZE SUB DUP2 ADD SWAP1 PUSH2 0x1AE SWAP2 SWAP1 PUSH2 0xA07 JUMP JUMPDEST PUSH2 0x4B6 JUMP JUMPDEST PUSH1 0x40 MLOAD PUSH2 0x1C4 SWAP6 SWAP5 SWAP4 SWAP3 SWAP2 SWAP1 PUSH2 0xC56 JUMP JUMPDEST PUSH1 0x40 MLOAD DUP1 SWAP2 SUB SWAP1 RETURN JUMPDEST CALLVALUE DUP1 ISZERO PUSH2 0x1D9 JUMPI PUSH1 0x0 DUP1 REVERT JUMPDEST POP PUSH2 0x1E2 PUSH2 0x5A1 JUMP JUMPDEST PUSH1 0x40 MLOAD PUSH2 0x1EF SWAP2 SWAP1 PUSH2 0xB04 JUMP JUMPDEST PUSH1 0x40 MLOAD DUP1 SWAP2 SUB SWAP1 RETURN JUMPDEST CALLVALUE DUP1 ISZERO PUSH2 0x204 JUMPI PUSH1 0x0 DUP1 REVERT JUMPDEST POP PUSH2 0x21F PUSH1 0x4 DUP1 CALLDATASIZE SUB DUP2 ADD SWAP1 PUSH2 0x21A SWAP2 SWAP1 PUSH2 0xE11 JUMP JUMPDEST PUSH2 0x5A7 JUMP JUMPDEST STOP JUMPDEST CALLVALUE DUP1 ISZERO PUSH2 0x22D JUMPI PUSH1 0x0 DUP1 REVERT JUMPDEST POP PUSH2 0x236 PUSH2 0x6B4 JUMP JUMPDEST PUSH1 0x40 MLOAD PUSH2 0x243 SWAP2 SWAP1 PUSH2 0xB04 JUMP JUMPDEST PUSH1 0x40 MLOAD DUP1 SWAP2 SUB SWAP1 RETURN JUMPDEST PUSH2 0x254 PUSH2 0x6BA JUMP JUMPDEST STOP JUMPDEST CALLVALUE DUP1 ISZERO PUSH2 0x262 JUMPI PUSH1 0x0 DUP1 REVERT JUMPDEST POP PUSH2 0x27D PUSH1 0x4 DUP1 CALLDATASIZE SUB DUP2 ADD SWAP1 PUSH2 0x278 SWAP2 SWAP1 PUSH2 0xA07 JUMP JUMPDEST PUSH2 0x770 JUMP JUMPDEST STOP JUMPDEST PUSH1 0x0 DUP1 SLOAD SWAP1 PUSH2 0x100 EXP SWAP1 DIV PUSH20 0xFFFFFFFFFFFFFFFFFFFFFFFFFFFFFFFFFFFFFFFF AND PUSH20 0xFFFFFFFFFFFFFFFFFFFFFFFFFFFFFFFFFFFFFFFF AND CALLER PUSH20 0xFFFFFFFFFFFFFFFFFFFFFFFFFFFFFFFFFFFFFFFF AND EQ PUSH2 0x2D7 JUMPI PUSH1 0x0 DUP1 REVERT JUMPDEST PUSH1 0x0 PUSH1 0x5 PUSH1 0x0 DUP4 DUP2 MSTORE PUSH1 0x20 ADD SWAP1 DUP2 MSTORE PUSH1 0x20 ADD PUSH1 0x0 KECCAK256 SWAP1 POP PUSH1 0x2 PUSH1 0x3 SLOAD PUSH2 0x2FD SWAP2 SWAP1 PUSH2 0xEDE JUMP JUMPDEST DUP2 PUSH1 0x3 ADD SLOAD GT PUSH2 0x342 JUMPI PUSH1 0x40 MLOAD PUSH32 0x8C379A000000000000000000000000000000000000000000000000000000000 DUP2 MSTORE PUSH1 0x4 ADD PUSH2 0x339 SWAP1 PUSH2 0xF81 JUMP JUMPDEST PUSH1 0x40 MLOAD DUP1 SWAP2 SUB SWAP1 REVERT JUMPDEST DUP1 PUSH1 0x2 ADD PUSH1 0x14 SWAP1 SLOAD SWAP1 PUSH2 0x100 EXP SWAP1 DIV PUSH1 0xFF AND ISZERO PUSH2 0x394 JUMPI PUSH1 0x40 MLOAD PUSH32 0x8C379A000000000000000000000000000000000000000000000000000000000 DUP2 MSTORE PUSH1 0x4 ADD PUSH2 0x38B SWAP1 PUSH2 0x1013 JUMP JUMPDEST PUSH1 0x40 MLOAD DUP1 SWAP2 SUB SWAP1 REVERT JUMPDEST DUP1 PUSH1 0x2 ADD PUSH1 0x0 SWAP1 SLOAD SWAP1 PUSH2 0x100 EXP SWAP1 DIV PUSH20 0xFFFFFFFFFFFFFFFFFFFFFFFFFFFFFFFFFFFFFFFF AND PUSH20 0xFFFFFFFFFFFFFFFFFFFFFFFFFFFFFFFFFFFFFFFF AND PUSH2 0x8FC DUP3 PUSH1 0x1 ADD SLOAD SWAP1 DUP2 ISZERO MUL SWAP1 PUSH1 0x40 MLOAD PUSH1 0x0 PUSH1 0x40 MLOAD DUP1 DUP4 SUB DUP2 DUP6 DUP9 DUP9 CALL SWAP4 POP POP POP POP ISZERO DUP1 ISZERO PUSH2 0x402 JUMPI RETURNDATASIZE PUSH1 0x0 DUP1 RETURNDATACOPY RETURNDATASIZE PUSH1 0x0 REVERT JUMPDEST POP PUSH1 0x1 DUP2 PUSH1 0x2 ADD PUSH1 0x14 PUSH2 0x100 EXP DUP2 SLOAD DUP2 PUSH1 0xFF MUL NOT AND SWAP1 DUP4 ISZERO ISZERO MUL OR SWAP1 SSTORE POP POP POP JUMP JUMPDEST PUSH1 0x2 PUSH1 0x20 MSTORE DUP1 PUSH1 0x0 MSTORE PUSH1 0x40 PUSH1 0x0 KECCAK256 PUSH1 0x0 SWAP2 POP SLOAD SWAP1 PUSH2 0x100 EXP SWAP1 DIV PUSH1 0xFF AND DUP2 JUMP JUMPDEST PUSH1 0x0 PUSH1 0x4 SLOAD SWAP1 POP SWAP1 JUMP JUMPDEST PUSH1 0x0 DUP1 PUSH1 0x0 DUP1 PUSH1 0x0 PUSH1 0x1 SLOAD SELFBALANCE PUSH1 0x4 SLOAD PUSH1 0x3 SLOAD PUSH1 0x0 DUP1 SLOAD SWAP1 PUSH2 0x100 EXP SWAP1 DIV PUSH20 0xFFFFFFFFFFFFFFFFFFFFFFFFFFFFFFFFFFFFFFFF AND SWAP5 POP SWAP5 POP SWAP5 POP SWAP5 POP SWAP5 POP SWAP1 SWAP2 SWAP3 SWAP4 SWAP5 JUMP JUMPDEST PUSH1 0x0 DUP1 SLOAD SWAP1 PUSH2 0x100 EXP SWAP1 DIV PUSH20 0xFFFFFFFFFFFFFFFFFFFFFFFFFFFFFFFFFFFFFFFF AND DUP2 JUMP JUMPDEST PUSH1 0x5 PUSH1 0x20 MSTORE DUP1 PUSH1 0x0 MSTORE PUSH1 0x40 PUSH1 0x0 KECCAK256 PUSH1 0x0 SWAP2 POP SWAP1 POP DUP1 PUSH1 0x0 ADD DUP1 SLOAD PUSH2 0x4D9 SWAP1 PUSH2 0x1062 JUMP JUMPDEST DUP1 PUSH1 0x1F ADD PUSH1 0x20 DUP1 SWAP2 DIV MUL PUSH1 0x20 ADD PUSH1 0x40 MLOAD SWAP1 DUP2 ADD PUSH1 0x40 MSTORE DUP1 SWAP3 SWAP2 SWAP1 DUP2 DUP2 MSTORE PUSH1 0x20 ADD DUP3 DUP1 SLOAD PUSH2 0x505 SWAP1 PUSH2 0x1062 JUMP JUMPDEST DUP1 ISZERO PUSH2 0x552 JUMPI DUP1 PUSH1 0x1F LT PUSH2 0x527 JUMPI PUSH2 0x100 DUP1 DUP4 SLOAD DIV MUL DUP4 MSTORE SWAP2 PUSH1 0x20 ADD SWAP2 PUSH2 0x552 JUMP JUMPDEST DUP3 ADD SWAP2 SWAP1 PUSH1 0x0 MSTORE PUSH1 0x20 PUSH1 0x0 KECCAK256 SWAP1 JUMPDEST DUP2 SLOAD DUP2 MSTORE SWAP1 PUSH1 0x1 ADD SWAP1 PUSH1 0x20 ADD DUP1 DUP4 GT PUSH2 0x535 JUMPI DUP3 SWAP1 SUB PUSH1 0x1F AND DUP3 ADD SWAP2 JUMPDEST POP POP POP POP POP SWAP1 DUP1 PUSH1 0x1 ADD SLOAD SWAP1 DUP1 PUSH1 0x2 ADD PUSH1 0x0 SWAP1 SLOAD SWAP1 PUSH2 0x100 EXP SWAP1 DIV PUSH20 0xFFFFFFFFFFFFFFFFFFFFFFFFFFFFFFFFFFFFFFFF AND SWAP1 DUP1 PUSH1 0x2 ADD PUSH1 0x14 SWAP1 SLOAD SWAP1 PUSH2 0x100 EXP SWAP1 DIV PUSH1 0xFF AND SWAP1 DUP1 PUSH1 0x3 ADD SLOAD SWAP1 POP DUP6 JUMP JUMPDEST PUSH1 0x3 SLOAD DUP2 JUMP JUMPDEST PUSH1 0x0 DUP1 SLOAD SWAP1 PUSH2 0x100 EXP SWAP1 DIV PUSH20 0xFFFFFFFFFFFFFFFFFFFFFFFFFFFFFFFFFFFFFFFF AND PUSH20 0xFFFFFFFFFFFFFFFFFFFFFFFFFFFFFFFFFFFFFFFF AND CALLER PUSH20 0xFFFFFFFFFFFFFFFFFFFFFFFFFFFFFFFFFFFFFFFF AND EQ PUSH2 0x5FF JUMPI PUSH1 0x0 DUP1 REVERT JUMPDEST PUSH1 0x0 PUSH1 0x5 PUSH1 0x0 PUSH1 0x4 PUSH1 0x0 DUP2 SLOAD DUP1 SWAP3 SWAP2 SWAP1 PUSH2 0x618 SWAP1 PUSH2 0x1093 JUMP JUMPDEST SWAP2 SWAP1 POP SSTORE DUP2 MSTORE PUSH1 0x20 ADD SWAP1 DUP2 MSTORE PUSH1 0x20 ADD PUSH1 0x0 KECCAK256 SWAP1 POP DUP4 DUP2 PUSH1 0x0 ADD SWAP1 DUP1 MLOAD SWAP1 PUSH1 0x20 ADD SWAP1 PUSH2 0x644 SWAP3 SWAP2 SWAP1 PUSH2 0x91A JUMP JUMPDEST POP DUP3 DUP2 PUSH1 0x1 ADD DUP2 SWAP1 SSTORE POP DUP2 DUP2 PUSH1 0x2 ADD PUSH1 0x0 PUSH2 0x100 EXP DUP2 SLOAD DUP2 PUSH20 0xFFFFFFFFFFFFFFFFFFFFFFFFFFFFFFFFFFFFFFFF MUL NOT AND SWAP1 DUP4 PUSH20 0xFFFFFFFFFFFFFFFFFFFFFFFFFFFFFFFFFFFFFFFF AND MUL OR SWAP1 SSTORE POP PUSH1 0x0 DUP2 PUSH1 0x2 ADD PUSH1 0x14 PUSH2 0x100 EXP DUP2 SLOAD DUP2 PUSH1 0xFF MUL NOT AND SWAP1 DUP4 ISZERO ISZERO MUL OR SWAP1 SSTORE POP POP POP POP POP JUMP JUMPDEST PUSH1 0x1 SLOAD DUP2 JUMP JUMPDEST PUSH1 0x1 SLOAD CALLVALUE GT PUSH2 0x6FE JUMPI PUSH1 0x40 MLOAD PUSH32 0x8C379A000000000000000000000000000000000000000000000000000000000 DUP2 MSTORE PUSH1 0x4 ADD PUSH2 0x6F5 SWAP1 PUSH2 0x114D JUMP JUMPDEST PUSH1 0x40 MLOAD DUP1 SWAP2 SUB SWAP1 REVERT JUMPDEST PUSH1 0x1 PUSH1 0x2 PUSH1 0x0 CALLER PUSH20 0xFFFFFFFFFFFFFFFFFFFFFFFFFFFFFFFFFFFFFFFF AND PUSH20 0xFFFFFFFFFFFFFFFFFFFFFFFFFFFFFFFFFFFFFFFF AND DUP2 MSTORE PUSH1 0x20 ADD SWAP1 DUP2 MSTORE PUSH1 0x20 ADD PUSH1 0x0 KECCAK256 PUSH1 0x0 PUSH2 0x100 EXP DUP2 SLOAD DUP2 PUSH1 0xFF MUL NOT AND SWAP1 DUP4 ISZERO ISZERO MUL OR SWAP1 SSTORE POP PUSH1 0x3 PUSH1 0x0 DUP2 SLOAD DUP1 SWAP3 SWAP2 SWAP1 PUSH2 0x769 SWAP1 PUSH2 0x1093 JUMP JUMPDEST SWAP2 SWAP1 POP SSTORE POP JUMP JUMPDEST PUSH1 0x0 PUSH1 0x5 PUSH1 0x0 DUP4 DUP2 MSTORE PUSH1 0x20 ADD SWAP1 DUP2 MSTORE PUSH1 0x20 ADD PUSH1 0x0 KECCAK256 SWAP1 POP PUSH1 0x2 PUSH1 0x0 CALLER PUSH20 0xFFFFFFFFFFFFFFFFFFFFFFFFFFFFFFFFFFFFFFFF AND PUSH20 0xFFFFFFFFFFFFFFFFFFFFFFFFFFFFFFFFFFFFFFFF AND DUP2 MSTORE PUSH1 0x20 ADD SWAP1 DUP2 MSTORE PUSH1 0x20 ADD PUSH1 0x0 KECCAK256 PUSH1 0x0 SWAP1 SLOAD SWAP1 PUSH2 0x100 EXP SWAP1 DIV PUSH1 0xFF AND PUSH2 0x813 JUMPI PUSH1 0x40 MLOAD PUSH32 0x8C379A000000000000000000000000000000000000000000000000000000000 DUP2 MSTORE PUSH1 0x4 ADD PUSH2 0x80A SWAP1 PUSH2 0x1205 JUMP JUMPDEST PUSH1 0x40 MLOAD DUP1 SWAP2 SUB SWAP1 REVERT JUMPDEST DUP1 PUSH1 0x4 ADD PUSH1 0x0 CALLER PUSH20 0xFFFFFFFFFFFFFFFFFFFFFFFFFFFFFFFFFFFFFFFF AND PUSH20 0xFFFFFFFFFFFFFFFFFFFFFFFFFFFFFFFFFFFFFFFF AND DUP2 MSTORE PUSH1 0x20 ADD SWAP1 DUP2 MSTORE PUSH1 0x20 ADD PUSH1 0x0 KECCAK256 PUSH1 0x0 SWAP1 SLOAD SWAP1 PUSH2 0x100 EXP SWAP1 DIV PUSH1 0xFF AND ISZERO PUSH2 0x8A2 JUMPI PUSH1 0x40 MLOAD PUSH32 0x8C379A000000000000000000000000000000000000000000000000000000000 DUP2 MSTORE PUSH1 0x4 ADD PUSH2 0x899 SWAP1 PUSH2 0x1297 JUMP JUMPDEST PUSH1 0x40 MLOAD DUP1 SWAP2 SUB SWAP1 REVERT JUMPDEST PUSH1 0x1 DUP2 PUSH1 0x4 ADD PUSH1 0x0 CALLER PUSH20 0xFFFFFFFFFFFFFFFFFFFFFFFFFFFFFFFFFFFFFFFF AND PUSH20 0xFFFFFFFFFFFFFFFFFFFFFFFFFFFFFFFFFFFFFFFF AND DUP2 MSTORE PUSH1 0x20 ADD SWAP1 DUP2 MSTORE PUSH1 0x20 ADD PUSH1 0x0 KECCAK256 PUSH1 0x0 PUSH2 0x100 EXP DUP2 SLOAD DUP2 PUSH1 0xFF MUL NOT AND SWAP1 DUP4 ISZERO ISZERO MUL OR SWAP1 SSTORE POP DUP1 PUSH1 0x3 ADD PUSH1 0x0 DUP2 SLOAD DUP1 SWAP3 SWAP2 SWAP1 PUSH2 0x911 SWAP1 PUSH2 0x1093 JUMP JUMPDEST SWAP2 SWAP1 POP SSTORE POP POP POP JUMP JUMPDEST DUP3 DUP1 SLOAD PUSH2 0x926 SWAP1 PUSH2 0x1062 JUMP JUMPDEST SWAP1 PUSH1 0x0 MSTORE PUSH1 0x20 PUSH1 0x0 KECCAK256 SWAP1 PUSH1 0x1F ADD PUSH1 0x20 SWAP1 DIV DUP2 ADD SWAP3 DUP3 PUSH2 0x948 JUMPI PUSH1 0x0 DUP6 SSTORE PUSH2 0x98F JUMP JUMPDEST DUP3 PUSH1 0x1F LT PUSH2 0x961 JUMPI DUP1 MLOAD PUSH1 0xFF NOT AND DUP4 DUP1 ADD OR DUP6 SSTORE PUSH2 0x98F JUMP JUMPDEST DUP3 DUP1 ADD PUSH1 0x1 ADD DUP6 SSTORE DUP3 ISZERO PUSH2 0x98F JUMPI SWAP2 DUP3 ADD JUMPDEST DUP3 DUP2 GT ISZERO PUSH2 0x98E JUMPI DUP3 MLOAD DUP3 SSTORE SWAP2 PUSH1 0x20 ADD SWAP2 SWAP1 PUSH1 0x1 ADD SWAP1 PUSH2 0x973 JUMP JUMPDEST JUMPDEST POP SWAP1 POP PUSH2 0x99C SWAP2 SWAP1 PUSH2 0x9A0 JUMP JUMPDEST POP SWAP1 JUMP JUMPDEST JUMPDEST DUP1 DUP3 GT ISZERO PUSH2 0x9B9 JUMPI PUSH1 0x0 DUP2 PUSH1 0x0 SWAP1 SSTORE POP PUSH1 0x1 ADD PUSH2 0x9A1 JUMP JUMPDEST POP SWAP1 JUMP JUMPDEST PUSH1 0x0 PUSH1 0x40 MLOAD SWAP1 POP SWAP1 JUMP JUMPDEST PUSH1 0x0 DUP1 REVERT JUMPDEST PUSH1 0x0 DUP1 REVERT JUMPDEST PUSH1 0x0 DUP2 SWAP1 POP SWAP2 SWAP1 POP JUMP JUMPDEST PUSH2 0x9E4 DUP2 PUSH2 0x9D1 JUMP JUMPDEST DUP2 EQ PUSH2 0x9EF JUMPI PUSH1 0x0 DUP1 REVERT JUMPDEST POP JUMP JUMPDEST PUSH1 0x0 DUP2 CALLDATALOAD SWAP1 POP PUSH2 0xA01 DUP2 PUSH2 0x9DB JUMP JUMPDEST SWAP3 SWAP2 POP POP JUMP JUMPDEST PUSH1 0x0 PUSH1 0x20 DUP3 DUP5 SUB SLT ISZERO PUSH2 0xA1D JUMPI PUSH2 0xA1C PUSH2 0x9C7 JUMP JUMPDEST JUMPDEST PUSH1 0x0 PUSH2 0xA2B DUP5 DUP3 DUP6 ADD PUSH2 0x9F2 JUMP JUMPDEST SWAP2 POP POP SWAP3 SWAP2 POP POP JUMP JUMPDEST PUSH1 0x0 PUSH20 0xFFFFFFFFFFFFFFFFFFFFFFFFFFFFFFFFFFFFFFFF DUP3 AND SWAP1 POP SWAP2 SWAP1 POP JUMP JUMPDEST PUSH1 0x0 PUSH2 0xA5F DUP3 PUSH2 0xA34 JUMP JUMPDEST SWAP1 POP SWAP2 SWAP1 POP JUMP JUMPDEST PUSH2 0xA6F DUP2 PUSH2 0xA54 JUMP JUMPDEST DUP2 EQ PUSH2 0xA7A JUMPI PUSH1 0x0 DUP1 REVERT JUMPDEST POP JUMP JUMPDEST PUSH1 0x0 DUP2 CALLDATALOAD SWAP1 POP PUSH2 0xA8C DUP2 PUSH2 0xA66 JUMP JUMPDEST SWAP3 SWAP2 POP POP JUMP JUMPDEST PUSH1 0x0 PUSH1 0x20 DUP3 DUP5 SUB SLT ISZERO PUSH2 0xAA8 JUMPI PUSH2 0xAA7 PUSH2 0x9C7 JUMP JUMPDEST JUMPDEST PUSH1 0x0 PUSH2 0xAB6 DUP5 DUP3 DUP6 ADD PUSH2 0xA7D JUMP JUMPDEST SWAP2 POP POP SWAP3 SWAP2 POP POP JUMP JUMPDEST PUSH1 0x0 DUP2 ISZERO ISZERO SWAP1 POP SWAP2 SWAP1 POP JUMP JUMPDEST PUSH2 0xAD4 DUP2 PUSH2 0xABF JUMP JUMPDEST DUP3 MSTORE POP POP JUMP JUMPDEST PUSH1 0x0 PUSH1 0x20 DUP3 ADD SWAP1 POP PUSH2 0xAEF PUSH1 0x0 DUP4 ADD DUP5 PUSH2 0xACB JUMP JUMPDEST SWAP3 SWAP2 POP POP JUMP JUMPDEST PUSH2 0xAFE DUP2 PUSH2 0x9D1 JUMP JUMPDEST DUP3 MSTORE POP POP JUMP JUMPDEST PUSH1 0x0 PUSH1 0x20 DUP3 ADD SWAP1 POP PUSH2 0xB19 PUSH1 0x0 DUP4 ADD DUP5 PUSH2 0xAF5 JUMP JUMPDEST SWAP3 SWAP2 POP POP JUMP JUMPDEST PUSH2 0xB28 DUP2 PUSH2 0xA54 JUMP JUMPDEST DUP3 MSTORE POP POP JUMP JUMPDEST PUSH1 0x0 PUSH1 0xA0 DUP3 ADD SWAP1 POP PUSH2 0xB43 PUSH1 0x0 DUP4 ADD DUP9 PUSH2 0xAF5 JUMP JUMPDEST PUSH2 0xB50 PUSH1 0x20 DUP4 ADD DUP8 PUSH2 0xAF5 JUMP JUMPDEST PUSH2 0xB5D PUSH1 0x40 DUP4 ADD DUP7 PUSH2 0xAF5 JUMP JUMPDEST PUSH2 0xB6A PUSH1 0x60 DUP4 ADD DUP6 PUSH2 0xAF5 JUMP JUMPDEST PUSH2 0xB77 PUSH1 0x80 DUP4 ADD DUP5 PUSH2 0xB1F JUMP JUMPDEST SWAP7 SWAP6 POP POP POP POP POP POP JUMP JUMPDEST PUSH1 0x0 PUSH1 0x20 DUP3 ADD SWAP1 POP PUSH2 0xB96 PUSH1 0x0 DUP4 ADD DUP5 PUSH2 0xB1F JUMP JUMPDEST SWAP3 SWAP2 POP POP JUMP JUMPDEST PUSH1 0x0 DUP2 MLOAD SWAP1 POP SWAP2 SWAP1 POP JUMP JUMPDEST PUSH1 0x0 DUP3 DUP3 MSTORE PUSH1 0x20 DUP3 ADD SWAP1 POP SWAP3 SWAP2 POP POP JUMP JUMPDEST PUSH1 0x0 JUMPDEST DUP4 DUP2 LT ISZERO PUSH2 0xBD6 JUMPI DUP1 DUP3 ADD MLOAD DUP2 DUP5 ADD MSTORE PUSH1 0x20 DUP2 ADD SWAP1 POP PUSH2 0xBBB JUMP JUMPDEST DUP4 DUP2 GT ISZERO PUSH2 0xBE5 JUMPI PUSH1 0x0 DUP5 DUP5 ADD MSTORE JUMPDEST POP POP POP POP JUMP JUMPDEST PUSH1 0x0 PUSH1 0x1F NOT PUSH1 0x1F DUP4 ADD AND SWAP1 POP SWAP2 SWAP1 POP JUMP JUMPDEST PUSH1 0x0 PUSH2 0xC07 DUP3 PUSH2 0xB9C JUMP JUMPDEST PUSH2 0xC11 DUP2 DUP6 PUSH2 0xBA7 JUMP JUMPDEST SWAP4 POP PUSH2 0xC21 DUP2 DUP6 PUSH1 0x20 DUP7 ADD PUSH2 0xBB8 JUMP JUMPDEST PUSH2 0xC2A DUP2 PUSH2 0xBEB JUMP JUMPDEST DUP5 ADD SWAP2 POP POP SWAP3 SWAP2 POP POP JUMP JUMPDEST PUSH1 0x0 PUSH2 0xC40 DUP3 PUSH2 0xA34 JUMP JUMPDEST SWAP1 POP SWAP2 SWAP1 POP JUMP JUMPDEST PUSH2 0xC50 DUP2 PUSH2 0xC35 JUMP JUMPDEST DUP3 MSTORE POP POP JUMP JUMPDEST PUSH1 0x0 PUSH1 0xA0 DUP3 ADD SWAP1 POP DUP2 DUP2 SUB PUSH1 0x0 DUP4 ADD MSTORE PUSH2 0xC70 DUP2 DUP9 PUSH2 0xBFC JUMP JUMPDEST SWAP1 POP PUSH2 0xC7F PUSH1 0x20 DUP4 ADD DUP8 PUSH2 0xAF5 JUMP JUMPDEST PUSH2 0xC8C PUSH1 0x40 DUP4 ADD DUP7 PUSH2 0xC47 JUMP JUMPDEST PUSH2 0xC99 PUSH1 0x60 DUP4 ADD DUP6 PUSH2 0xACB JUMP JUMPDEST PUSH2 0xCA6 PUSH1 0x80 DUP4 ADD DUP5 PUSH2 0xAF5 JUMP JUMPDEST SWAP7 SWAP6 POP POP POP POP POP POP JUMP JUMPDEST PUSH1 0x0 DUP1 REVERT JUMPDEST PUSH1 0x0 DUP1 REVERT JUMPDEST PUSH32 0x4E487B7100000000000000000000000000000000000000000000000000000000 PUSH1 0x0 MSTORE PUSH1 0x41 PUSH1 0x4 MSTORE PUSH1 0x24 PUSH1 0x0 REVERT JUMPDEST PUSH2 0xCF2 DUP3 PUSH2 0xBEB JUMP JUMPDEST DUP2 ADD DUP2 DUP2 LT PUSH8 0xFFFFFFFFFFFFFFFF DUP3 GT OR ISZERO PUSH2 0xD11 JUMPI PUSH2 0xD10 PUSH2 0xCBA JUMP JUMPDEST JUMPDEST DUP1 PUSH1 0x40 MSTORE POP POP POP JUMP JUMPDEST PUSH1 0x0 PUSH2 0xD24 PUSH2 0x9BD JUMP JUMPDEST SWAP1 POP PUSH2 0xD30 DUP3 DUP3 PUSH2 0xCE9 JUMP JUMPDEST SWAP2 SWAP1 POP JUMP JUMPDEST PUSH1 0x0 PUSH8 0xFFFFFFFFFFFFFFFF DUP3 GT ISZERO PUSH2 0xD50 JUMPI PUSH2 0xD4F PUSH2 0xCBA JUMP JUMPDEST JUMPDEST PUSH2 0xD59 DUP3 PUSH2 0xBEB JUMP JUMPDEST SWAP1 POP PUSH1 0x20 DUP2 ADD SWAP1 POP SWAP2 SWAP1 POP JUMP JUMPDEST DUP3 DUP2 DUP4 CALLDATACOPY PUSH1 0x0 DUP4 DUP4 ADD MSTORE POP POP POP JUMP JUMPDEST PUSH1 0x0 PUSH2 0xD88 PUSH2 0xD83 DUP5 PUSH2 0xD35 JUMP JUMPDEST PUSH2 0xD1A JUMP JUMPDEST SWAP1 POP DUP3 DUP2 MSTORE PUSH1 0x20 DUP2 ADD DUP5 DUP5 DUP5 ADD GT ISZERO PUSH2 0xDA4 JUMPI PUSH2 0xDA3 PUSH2 0xCB5 JUMP JUMPDEST JUMPDEST PUSH2 0xDAF DUP5 DUP3 DUP6 PUSH2 0xD66 JUMP JUMPDEST POP SWAP4 SWAP3 POP POP POP JUMP JUMPDEST PUSH1 0x0 DUP3 PUSH1 0x1F DUP4 ADD SLT PUSH2 0xDCC JUMPI PUSH2 0xDCB PUSH2 0xCB0 JUMP JUMPDEST JUMPDEST DUP2 CALLDATALOAD PUSH2 0xDDC DUP5 DUP3 PUSH1 0x20 DUP7 ADD PUSH2 0xD75 JUMP JUMPDEST SWAP2 POP POP SWAP3 SWAP2 POP POP JUMP JUMPDEST PUSH2 0xDEE DUP2 PUSH2 0xC35 JUMP JUMPDEST DUP2 EQ PUSH2 0xDF9 JUMPI PUSH1 0x0 DUP1 REVERT JUMPDEST POP JUMP JUMPDEST PUSH1 0x0 DUP2 CALLDATALOAD SWAP1 POP PUSH2 0xE0B DUP2 PUSH2 0xDE5 JUMP JUMPDEST SWAP3 SWAP2 POP POP JUMP JUMPDEST PUSH1 0x0 DUP1 PUSH1 0x0 PUSH1 0x60 DUP5 DUP7 SUB SLT ISZERO PUSH2 0xE2A JUMPI PUSH2 0xE29 PUSH2 0x9C7 JUMP JUMPDEST JUMPDEST PUSH1 0x0 DUP5 ADD CALLDATALOAD PUSH8 0xFFFFFFFFFFFFFFFF DUP2 GT ISZERO PUSH2 0xE48 JUMPI PUSH2 0xE47 PUSH2 0x9CC JUMP JUMPDEST JUMPDEST PUSH2 0xE54 DUP7 DUP3 DUP8 ADD PUSH2 0xDB7 JUMP JUMPDEST SWAP4 POP POP PUSH1 0x20 PUSH2 0xE65 DUP7 DUP3 DUP8 ADD PUSH2 0x9F2 JUMP JUMPDEST SWAP3 POP POP PUSH1 0x40 PUSH2 0xE76 DUP7 DUP3 DUP8 ADD PUSH2 0xDFC JUMP JUMPDEST SWAP2 POP POP SWAP3 POP SWAP3 POP SWAP3 JUMP JUMPDEST PUSH32 0x4E487B7100000000000000000000000000000000000000000000000000000000 PUSH1 0x0 MSTORE PUSH1 0x12 PUSH1 0x4 MSTORE PUSH1 0x24 PUSH1 0x0 REVERT JUMPDEST PUSH32 0x4E487B7100000000000000000000000000000000000000000000000000000000 PUSH1 0x0 MSTORE PUSH1 0x11 PUSH1 0x4 MSTORE PUSH1 0x24 PUSH1 0x0 REVERT JUMPDEST PUSH1 0x0 PUSH2 0xEE9 DUP3 PUSH2 0x9D1 JUMP JUMPDEST SWAP2 POP PUSH2 0xEF4 DUP4 PUSH2 0x9D1 JUMP JUMPDEST SWAP3 POP DUP3 PUSH2 0xF04 JUMPI PUSH2 0xF03 PUSH2 0xE80 JUMP JUMPDEST JUMPDEST DUP3 DUP3 DIV SWAP1 POP SWAP3 SWAP2 POP POP JUMP JUMPDEST PUSH32 0x546869732072657175657374206E65656473206D6F726520617070726F76616C PUSH1 0x0 DUP3 ADD MSTORE PUSH32 0x73206265666F72652069742063616E2062652066696E616C697A65642E000000 PUSH1 0x20 DUP3 ADD MSTORE POP JUMP JUMPDEST PUSH1 0x0 PUSH2 0xF6B PUSH1 0x3D DUP4 PUSH2 0xBA7 JUMP JUMPDEST SWAP2 POP PUSH2 0xF76 DUP3 PUSH2 0xF0F JUMP JUMPDEST PUSH1 0x40 DUP3 ADD SWAP1 POP SWAP2 SWAP1 POP JUMP JUMPDEST PUSH1 0x0 PUSH1 0x20 DUP3 ADD SWAP1 POP DUP2 DUP2 SUB PUSH1 0x0 DUP4 ADD MSTORE PUSH2 0xF9A DUP2 PUSH2 0xF5E JUMP JUMPDEST SWAP1 POP SWAP2 SWAP1 POP JUMP JUMPDEST PUSH32 0x5468697320726571756573742068617320616C7265616479206265656E206669 PUSH1 0x0 DUP3 ADD MSTORE PUSH32 0x6E616C697A656400000000000000000000000000000000000000000000000000 PUSH1 0x20 DUP3 ADD MSTORE POP JUMP JUMPDEST PUSH1 0x0 PUSH2 0xFFD PUSH1 0x27 DUP4 PUSH2 0xBA7 JUMP JUMPDEST SWAP2 POP PUSH2 0x1008 DUP3 PUSH2 0xFA1 JUMP JUMPDEST PUSH1 0x40 DUP3 ADD SWAP1 POP SWAP2 SWAP1 POP JUMP JUMPDEST PUSH1 0x0 PUSH1 0x20 DUP3 ADD SWAP1 POP DUP2 DUP2 SUB PUSH1 0x0 DUP4 ADD MSTORE PUSH2 0x102C DUP2 PUSH2 0xFF0 JUMP JUMPDEST SWAP1 POP SWAP2 SWAP1 POP JUMP JUMPDEST PUSH32 0x4E487B7100000000000000000000000000000000000000000000000000000000 PUSH1 0x0 MSTORE PUSH1 0x22 PUSH1 0x4 MSTORE PUSH1 0x24 PUSH1 0x0 REVERT JUMPDEST PUSH1 0x0 PUSH1 0x2 DUP3 DIV SWAP1 POP PUSH1 0x1 DUP3 AND DUP1 PUSH2 0x107A JUMPI PUSH1 0x7F DUP3 AND SWAP2 POP JUMPDEST PUSH1 0x20 DUP3 LT DUP2 SUB PUSH2 0x108D JUMPI PUSH2 0x108C PUSH2 0x1033 JUMP JUMPDEST JUMPDEST POP SWAP2 SWAP1 POP JUMP JUMPDEST PUSH1 0x0 PUSH2 0x109E DUP3 PUSH2 0x9D1 JUMP JUMPDEST SWAP2 POP PUSH32 0xFFFFFFFFFFFFFFFFFFFFFFFFFFFFFFFFFFFFFFFFFFFFFFFFFFFFFFFFFFFFFFFF DUP3 SUB PUSH2 0x10D0 JUMPI PUSH2 0x10CF PUSH2 0xEAF JUMP JUMPDEST JUMPDEST PUSH1 0x1 DUP3 ADD SWAP1 POP SWAP2 SWAP1 POP JUMP JUMPDEST PUSH32 0x54686520616D6F756E7420656E7465726564206973206C657373207468616E20 PUSH1 0x0 DUP3 ADD MSTORE PUSH32 0x746865206D696E696D756D20636F6E747269627574696F6E2E00000000000000 PUSH1 0x20 DUP3 ADD MSTORE POP JUMP JUMPDEST PUSH1 0x0 PUSH2 0x1137 PUSH1 0x39 DUP4 PUSH2 0xBA7 JUMP JUMPDEST SWAP2 POP PUSH2 0x1142 DUP3 PUSH2 0x10DB JUMP JUMPDEST PUSH1 0x40 DUP3 ADD SWAP1 POP SWAP2 SWAP1 POP JUMP JUMPDEST PUSH1 0x0 PUSH1 0x20 DUP3 ADD SWAP1 POP DUP2 DUP2 SUB PUSH1 0x0 DUP4 ADD MSTORE PUSH2 0x1166 DUP2 PUSH2 0x112A JUMP JUMPDEST SWAP1 POP SWAP2 SWAP1 POP JUMP JUMPDEST PUSH32 0x5065726D697373696F6E2064656E69656421204F6E6C7920636F6E7472696275 PUSH1 0x0 DUP3 ADD MSTORE PUSH32 0x746F72732063616E20617070726F76652061207370656369666963207061796D PUSH1 0x20 DUP3 ADD MSTORE PUSH32 0x656E7420726571756573742E0000000000000000000000000000000000000000 PUSH1 0x40 DUP3 ADD MSTORE POP JUMP JUMPDEST PUSH1 0x0 PUSH2 0x11EF PUSH1 0x4C DUP4 PUSH2 0xBA7 JUMP JUMPDEST SWAP2 POP PUSH2 0x11FA DUP3 PUSH2 0x116D JUMP JUMPDEST PUSH1 0x60 DUP3 ADD SWAP1 POP SWAP2 SWAP1 POP JUMP JUMPDEST PUSH1 0x0 PUSH1 0x20 DUP3 ADD SWAP1 POP DUP2 DUP2 SUB PUSH1 0x0 DUP4 ADD MSTORE PUSH2 0x121E DUP2 PUSH2 0x11E2 JUMP JUMPDEST SWAP1 POP SWAP2 SWAP1 POP JUMP JUMPDEST PUSH32 0x596F75206861766520616C726561647920766F74656420746F20617070726F76 PUSH1 0x0 DUP3 ADD MSTORE PUSH32 0x6520746869732072657175657374000000000000000000000000000000000000 PUSH1 0x20 DUP3 ADD MSTORE POP JUMP JUMPDEST PUSH1 0x0 PUSH2 0x1281 PUSH1 0x2E DUP4 PUSH2 0xBA7 JUMP JUMPDEST SWAP2 POP PUSH2 0x128C DUP3 PUSH2 0x1225 JUMP JUMPDEST PUSH1 0x40 DUP3 ADD SWAP1 POP SWAP2 SWAP1 POP JUMP JUMPDEST PUSH1 0x0 PUSH1 0x20 DUP3 ADD SWAP1 POP DUP2 DUP2 SUB PUSH1 0x0 DUP4 ADD MSTORE PUSH2 0x12B0 DUP2 PUSH2 0x1274 JUMP JUMPDEST SWAP1 POP SWAP2 SWAP1 POP JUMP INVALID LOG2 PUSH5 0x6970667358 0x22 SLT KECCAK256 CALLCODE PUSH12 0x3E7777D4E72513CD9BA94F4D 0x28 0xB3 PUSH32 0xB12BAB22EC7C6B6F6D413938710C2B64736F6C634300080E0033A26469706673 PC 0x22 SLT KECCAK256 0xC7 CHAINID SHR 0x29 0x5E 0xCF PUSH18 0x2300457BE6A7B0EC32789F94F96F287D0C5 PUSH26 0x379E08EFAE8064736F6C634300080E0033000000000000000000 "},"gasEstimates":{"creation":{"codeDepositCost":"1282200","executionCost":"1335","totalCost":"1283535"},"external":{"createCampaign(uint256)":"infinite","deployedCampaigns(uint256)":"infinite","getDeployedCampaigns()":"infinite"}},"methodIdentifiers":{"createCampaign(uint256)":"a3303a75","deployedCampaigns(uint256)":"339d50a5","getDeployedCampaigns()":"4acb9d4f"}},"storageLayout":{"storage":[{"astId":5,"contract":"Campaign.sol:CampaignFactory","label":"deployedCampaigns","offset":0,"slot":"0","type":"t_array(t_contract(Campaign)291)dyn_storage"}],"types":{"t_array(t_contract(Campaign)291)dyn_storage":{"base":"t_contract(Campaign)291","encoding":"dynamic_array","label":"contract Campaign[]","numberOfBytes":"32"},"t_contract(Campaign)291":{"encoding":"inplace","label":"contract Campaign","numberOfBytes":"20"}}},"userdoc":{"kind":"user","methods":{},"version":1}}